:10076A000140800141A00142C00143D0013A000189
:10077A003D00013900023B0000023E00000246072C
:09078A00D0023700000244000017
:1002A700E53F2538F53CE53E3537F53B7D0F7F01CA
:1002B700120577C3E53B648094805003020397AE31
:1002C7003BAF3C7C277D1012014EEF4E6021AD07FE
:1002D7007F04120577AE3BAF3C7C277D1012014EA1
:1002E7007E037FE8CFCDCFCECCCE12014E800FAEAE
:1002F7003BAF3C7C037DE812014EEF4E6021AD071A
:100307007F05120577AE3BAF3C7C037DE812014EBB
:100317007E007F64CFCDCFCECCCE12014E800FAE04
:100327003BAF3C7C007D6412014EEF4E601EAD0773
:100337007F06120577AE3BAF3C7C007D6412014E11
:100347007E007F0ACFCDCFCECCCE8017AE3BAF3C61
:100357007C007D6412014EEF4E601FAE3BAF3C7CCC
:10036700007D0A12014EAD077F07120577AE3BAF3E
:100377003C7C007D0A12014E8011AE3BAF3C7C00F5
:100387007D0A12014EEF4E6015AD077F0802057713
:0F0397007DC77F071206137DC77F08120613224A
:100184007D8C7F01120613E53D70657D017F0212AF
:100194000577AE46AF477C037DE81200F9AD077FD3
:1001A40005120577AE46AF477C037DE81200F97E61
:1001B400007F64CFCDCFCECCCE1200F9AD077F0641
:1001C400120577AE46AF477C007D641200F97E00CD
:1001D4007F0ACFCDCFCECCCE1200F9AD077F071268
:1001E4000577AE46AF477C007D0A1200F90202A1F2
:1001F4007D027F02120577D3E5389400E5376480E9
:100204009480403EAE37AF387C007D6412014EAD21
:10021400077F06120577AE37AF387C007D64120184
:100224004E7E007F0ACFCDCFCECCCE12014EAD078D
:100234007F07120577AE37AF387C007D0A12014E76
:0B024400805BC3E5376480948050505D
:10024F00C3E49538F51FE49537F51E7DBF7F051282
:10025F000613AE1EAF1F7C007D6412014EAD077FEB
:10026F0006120577AE1EAF1F7C007D6412014E7E15
:10027F00007F0ACFCDCFCECCCE12014EAD077F0778
:0E028F00120577AE1EAF1F7C007D0A12014ED5
:0A029D008002AD387F0812057722B9
:1003A6007D897F01120613E539600302048B7D0FF8
:1003B6007F02120577AE44AF457C277D101200F907
:1003C600EF4E6021AD077F04120577AE44AF457C42
:1003D600277D101200F97E037FE8CFCDCFCECCCE9D
:1003E6001200F9800FAE44AF457C037DE81200F998
:1003F600EF4E6021AD077F05120577AE44AF457C11
:10040600037DE81200F97E007F64CFCDCFCECCCE3F
:100416001200F9800FAE44AF457C007D641200F9EE
:10042600EF4E601EAD077F06120577AE44AF457CE2
:10043600007D641200F97E007F0ACFCDCFCECCCEF0
:100446008017AE44AF457C007D641200F9EF4E6024
:100456001FAE44AF457C007D0A1200F9AD077F0749
:10046600120577AE44AF457C007D0A1200F9801173
:10047600AE44AF457C007D0A1200F9EF4E600DAD2B
:0D048600077F0880047D0A7F02120577229F
:05094D0012086980FEA4
:10090000E4FEC297EF1392A3EFC313FFD2970EBE7C
:0209100008F0ED
:0109120022C2
:1008EC00C29300C29700D29300120900AF051209FF
:0408FC0000C2932281
:10073600E4FDC29300C29700D29300120900E4FFC1
:10074600C297EDC313FD30A303430580D2970FBFB5
:1007560008EEC29300C29700D29700C2A300D2A3AC
:0307660000AF05DC
:01076900226D
:04088600D2A07F0A73
:10088A00000000000000000000000000000000AEB0
:06089A00071FEE70EB22C7
:0F092500D2A1120886C2A17F0A12088AC2A0229C
:0C094100C2A1120886D2A17F0A02088A17
:02079D00AD07A6
:10079F00E4FCC2A07F0A12088AED30E704D2A180E0
:1007AF0002C2A17F0A12088AD2A0ED25E0FD7F0ABE
:0907BF0012088A0CBC08DBC2A080
:0107C800220E
:10084C00E4FC120886ED25E0FD30A103430501C24E
:0C085C00A07F0A12088A0CBC08E8AF0557
:01086800226D
:10091300120886A2A1E433FDC2A07F0A12088AAF9F
:0109230005CE
:0109240022B0
:1008D400C2A0EF24FF92A17F0A12088A120886C2DE
:0808E400A0D2A17F0A02088ADC
:0408A0007F057E0052
:1008A400EF1FAA0670011E4A600BE4FDEDC3940C11
:0508B40050EE0D80F77D
:0108B900221C
:02081000A90736
:10081200E4FBC294E91392941208A0D294E9C313A0
:0C082200F90BBB08ED7F057E000208A466
:1008BA00E4FBC294ECC313FCD29430940343048047
:0908CA001208A00BBB08EBAF04FF
:0108D3002202
:1007C900C200D2947F0C7E001208A4C2947F507E8E
:1007D900001208A4D2947F0A7E001208A4A294925F
:0607E900001208A0A200AE
:0107EF0022E7
:100869007580FFE5A0541F4480F5A053A01FE4F54F
:0D08790080E5A0541F44A0F5A053A01F224D
:1007F000C0F9A4B0999282F880908883C6A1868EB1
:10080000C0F9A4B0999282F880908883C6A1868EA0
:040577008F088D0953
:10057B00750A80750BA0750CC0750DE0780E7C00AC
:10058B007D007BFF7A0779F07E007F101200D3E5A8
:10059B000814B4080050579005B075F003A4C58338
:1005AB0025F0C583730205C80205CE0205D40205EA
:1005BB00DA0205E00205E60205EC0205F2AD0C7F5E
:1005CB00018028AD0C7F028022AD0C7F04801CAD16
:1005DB000C7F088016AD0C7F108010AD0C7F208037
:1005EB000AAD0C7F408004AD0C7F80120934740E71
:1005FB002509F8E6FFAD0D1209347F027E001208C3
:08060B002EAD0D7FFF02093442
:040613008F218D2284
:100617007523807524A07525C07526E078277C0092
:100627007D007BFF7A0879007E007F101200D3E5FA
:100637002114B40800505790064C75F003A4C583E5
:1006470025F0C5837302066402066A020670020675
:100657007602067C02068202068802068EAD257F98
:10066700018028AD257F028022AD257F04801CAD47
:10067700257F088016AD257F108010AD257F20804F
:100687000AAD257F408004AD257F80120934AD2651
:10069700AF221209347F027E0012082EAD267FFF9B
:0306A70002093411
:0A082E00E4FDFCC3ED9FEC9E5013A7
:0C083800754B0C754CA9D54CFDD54BFA46
:070844000DBD00010C80E670
:01084B00228A
:09079300014900014A000148007F
:10049300E4FFD2B0D2B1D2B2D2B3D2C4D2C2D2B5B7
:1004A300D2B4C2C420B0047F07801320B1047F06F6
:1004B300800C20B2047F05800520B3027F04D2B0F4
:1004C300D2B1D2B2D2B3D2C4D2C2D2B5D2B4C2C2E2
:1004D30020B0047F0B801320B1047F0A800C20B26C
:1004E300047F09800520B3027F08D2B0D2B1D2B213
:1004F300D2B3D2C4D2C2D2B5D2B4C2B520B0047F73
:100503000F801320B1047F0E800C20B2047F0D8076
:100513000520B3027F0CD2B0D2B1D2B2D2B3D2C4CF
:10052300D2C2D2B5D2B4C2B420B0047F1380132098
:10053300B1047F12800C20B2047F11800520B30226
:100543007F10EFB5490BE54AC39403500B054A806E
:0D05530007E4F54A8F49FF22E54AB403147E
:10056000E549600AE5487006754801AF4922E5494A
:040570007002F548D8
:020574007F0006
:010576002262
:0D0934008F80E5A0541F4DF5A053A01F2299
:030000000206AA4B
:0C06AA00787FE4F6D8FD75814C0206F163
:10000300E709F608DFFA8046E709F208DFFA803EDF
:1000130088828C83E709F0A3DFFA8032E309F608CC
:10002300DFFA8078E309F208DFFA807088828C8334
:10003300E309F0A3DFFA806489828A83E0A3F608E8
:10004300DFFA805889828A83E0A3F208DFFA804CC2
:1000530080D280FA80C680D4806980F28033801099
:1000630080A680EA809A80A880DA80E280CA803302
:1000730089828A83ECFAE493A3C8C582C8CCC5837A
:10008300CCF0A3C8C582C8CCC583CCDFE9DEE7804A
:100093000D89828A83E493A3F608DFF9ECFAA9F0C9
:1000A300EDFB2289828A83ECFAE0A3C8C582C8CC1F
:1000B300C583CCF0A3C8C582C8CCC583CCDFEADE38
:1000C300E880DB89828A83E493A3F208DFF980CC9A
:1000D30088F0EF60010E4E60C388F0ED2402B40493
:1000E3000050B9F582EB2402B4040050AF2323453A
:0600F3008223900053730C
:1000F900BC000BBE0029EF8DF084FFADF022E4CCEB
:10010900F875F008EF2FFFEE33FEEC33FCEE9DECB3
:10011900984005FCEE9DFE0FD5F0E9E4CEFD22EDF9
:10012900F8F5F0EE8420D21CFEADF075F008EF2F43
:10013900FFED33FD4007985006D5F0F222C398FD34
:050149000FD5F0EA22D1
:10014E00C2D5EC30E709B2D5E4C39DFDE49CFCEECC
:10015E0030E715B2D5E4C39FFFE49EFE1200F9C34B
:10016E00E49DFDE49CFC80031200F930D507C3E446
:06017E009FFFE49EFE223B
:1006B60002094DE493A3F8E493A34003F68001F204
:1006C60008DFF48029E493A3F85407240CC8C33345
:1006D600C4540F4420C8834004F456800146F6DF14
:1006E600E4800B010204081020408090076AE47E33
:1006F600019360BCA3FF543F30E509541FFEE49309
:10070600A360010ECF54C025E060A840B8E493A3CF
:10071600FAE493A3F8E493A3C8C582C8CAC583CAFA
:10072600F0A3C8C582C8CAC583CADFE9DEE780BEB2
:01079C00005C
:00000001FF
