:0400C8007FF47E0142
:0A00CC00E4FDFCC3ED9FEC9E501311
:0C00D60075080C7509A9D509FDD508FABC
:0700E2000DBD00010C80E6DA
:0100E90022F4
:100003001201257D80E4FF1201F01200C87D807F7C
:10001300011201F01200C87D807F021201F012006C
:10002300C87D807F031201F01200C87D807F041217
:0E00330001F01200C87D807F051201F080C52B
:1001BC00E4FEC297EF1392A3EFC313FFD2970EBEC8
:0201CC0008F039
:0101CE00220E
:1001A800C29300C29700D293001201BCAF0512019E
:0401B800BCC2932210
:10004100E4FDC29300C29700D293001201BCE4FF09
:10005100C297EDC313FD30A303430580D2970FBFB1
:1000610008EEC29300C29700D29700C2A300D2A3A8
:0300710000AF05D8
:010074002269
:04014200D2A07F0ABE
:10014600000000000000000000000000000000AEFB
:06015600071FEE70EB2212
:0F01E100D2A1120142C2A17F0A120146C2A0227E
:0C01FD00C2A1120142D2A17F0A020146F9
:02007500AD07D5
:10007700E4FCC2A07F0A120146ED30E704D2A1805A
:1000870002C2A17F0A120146D2A0ED25E0FD7F0A38
:090097001201460CBC08DBC2A0FA
:0100A000223D
:10010800E4FC120142ED25E0FD30A103430501C2E4
:0C011800A07F0A1201460CBC08E8AF05ED
:0101240022B8
:1001CF00120142A2A1E433FDC2A07F0A120146AF81
:0101DF00051A
:0101E00022FC
:10019000C2A0EF24FF92A17F0A120146120142C2BF
:0801A000A0D2A17F0A02014672
:04015C007F057E009D
:10016000EF1FAA0670011E4A600BE4FDEDC3940C5C
:0501700050EE0D80F7C8
:010175002267
:0200EA00A90764
:1000EC00E4FBC294E913929412015CD294E9C31319
:0C00FC00F90BBB08ED7F057E00020160DF
:10017600E4FBC294ECC313FCD29430940343048092
:0901860012015C0BBB08EBAF0495
:01018F00224D
:1000A100C200D2947F0C7E00120160C2947F507E08
:1000B10000120160D2947F0A7E00120160A2949224
:0600C1000012015CA20028
:0100C7002216
:0D01F0008F80E5A0541F4DF5A053A01F22E5
:100125007580FFE5A0541F4480F5A053A01FE4F59A
:0D01350080E5A0541F44A0F5A053A01F2298
:03000000020209F0
:0C020900787FE4F6D8FD75812002000328
:00000001FF
