:1008B400011800010B00011200010A00040C0000E1
:1008C400000002130000021B07D0020800000219F6
:0208D400000022
:100A4500C2AFAE10AF117C007D0A1201BE8E138FAE
:040A550014D2AF22E6
:03001B0002084C8C
:10084C00C0E0C0D075D000C005C0070518E518C3BE
:10085C00940A4017751800C28CAF8CEFAD8AF51056
:10086C00EDF511758C00758A00D28CD007D005D0AF
:04087C00D0D0E032C6
:10096300758E00758904758BF0758DD8E4F58AF55D
:0E0973008CC28FC28DD28ED28CD2ABD2AF226C
:1007BF007F851208808F167F831208808F177F81A5
:1007CF001208808F15E516C4540F75F00AA4FFE5C3
:1007DF0016540F2FF516E517C4540F75F00AA4FF22
:1007EF00E517540F2FF517E515C4540F75F00AA42C
:0907FF00FFE515540F2FF515223A
:10001E00E5142509FFE5133508FEE48F0F8E0EF566
:10002E000DF50C7D0F7F01120677AF0FAE0EAD0DE5
:10003E00AC0CEC3350030201AFE47B107A27F9F8D5
:10004E00120808EC4D4E4F603CE47B107A27F9F80D
:10005E00AF0FAE0EAD0DAC0C120808AD077F04123B
:10006E000677E47B107A27F9F8AF0FAE0EAD0DAC24
:10007E000C120808AC00AD01AE02AF03E47BE87AC7
:10008E0003F9F88027E47BE87A03F9F8AF0FAE0E98
:10009E00AD0DAC0C120808EC4D4E4F603BE47BE806
:1000AE007A03F9F8AF0FAE0EAD0DAC0C120808AD19
:1000BE00077F05120677E47BE87A03F9F8AF0FAEF7
:1000CE000EAD0DAC0C120808AC00AD01AE02AF03C4
:1000DE00E47B64FAF9F88025E47B64FAF9F8AF0F53
:1000EE00AE0EAD0DAC0C120808EC4D4E4F6056E442
:1000FE007B64FAF9F8AF0FAE0EAD0DAC0C1208081A
:10010E00AD077F06120677E47B64FAF9F8AF0FAEFF
:10011E000EAD0DAC0C120808AC00AD01AE02AF0373
:10012E00E47B0AFAF9F8120808AD077F0712067782
:10013E00E47B0AFAF9F8AF0FAE0EAD0DAC0C120857
:10014E0008AF038055E47B0AFAF9F8AF0FAE0EAD97
:10015E000DAC0C120808EC4D4E4F602DE47B0AFAE4
:10016E00F9F8AF0FAE0EAD0DAC0C120808AD077F4F
:10017E0007120677E47B0AFAF9F8AF0FAE0EAD0D53
:10018E00AC0C120808AF038011E47B0AFAF9F8AF41
:10019E000FAE0EAD0DAC0C120808AD077F080206AF
:1001AE00777DC77F071206F17DC77F081206F12201
:100329007D8C7F011206F1E51270657D017F021255
:100339000677AE1BAF1C7C037DE81201D0AD077FA9
:1003490005120677AE1BAF1C7C037DE81201D07E37
:10035900007F64CFCDCFCECCCE1201D0AD077F06C2
:10036900120677AE1BAF1C7C007D641201D07E00A3
:100379007F0ACFCDCFCECCCE1201D0AD077F0712E9
:100389000677AE1BAF1C7C007D0A1201D002044621
:100399007D027F02120677D3E5099400E50864809F
:1003A9009480403EAE08AF097C007D64120225AD01
:1003B900077F06120677AE08AF097C007D6412023A
:1003C900257E007F0ACFCDCFCECCCE120225AD0738
:1003D9007F07120677AE08AF097C007D0A12022555
:0B03E900805BC3E508648094805050E6
:1003F400C3E49509F528E49508F5277DBF7F051228
:1004040006F1AE27AF287C007D64120225AD077F7C
:1004140006120677AE27AF287C007D641202257E83
:10042400007F0ACFCDCFCECCCE120225AD077F07F9
:0E043400120677AE27AF287C007D0A12022543
:0A0442008002AD097F081206772240
:10044C007D897F011206F1E50A60030205317D0FFB
:10045C007F02120677AE19AF1A7C277D101201D0DD
:10046C00EF4E6021AD077F04120677AE19AF1A7CF0
:10047C00277D101201D07E037FE8CFCDCFCECCCE1E
:10048C001201D0800FAE19AF1A7C037DE81201D097
:10049C00EF4E6021AD077F05120677AE19AF1A7CBF
:1004AC00037DE81201D07E007F64CFCDCFCECCCEC1
:1004BC001201D0800FAE19AF1A7C007D641201D0EE
:1004CC00EF4E601EAD077F06120677AE19AF1A7C91
:1004DC00007D641201D07E007F0ACFCDCFCECCCE72
:1004EC008017AE19AF1A7C007D641201D0EF4E60FC
:1004FC001FAE19AF1A7C007D0A1201D0AD077F0721
:10050C00120677AE19AF1A7C007D0A1201D0801149
:10051C00AE19AF1A7C007D0A1201D0EF4E600DAD02
:0D052C00077F0880047D0A7F0212067722F7
:10076600E51675F00A84FD7F01120677E51675F029
:100776000A84ADF07F021206777DBF7F031206F171
:10078600E51775F00A84FD7F04120677E51775F004
:100796000A84ADF07F051206777DBF7F061206F14B
:1007A600E51575F00A84FD7F07120677E51575F0E5
:0907B6000A84ADF07F0802067709
:0E0AC1001209DA120963120A4512001E80F8AB
:100A920080828486888A8C8E81838587898B8D8FDC
:0508D600031D050313E2
:100A6D00E4FEC297EF1392A3EFC313FFD2970EBE0E
:020A7D0008F07F
:010A7F002254
:100A5900C29300C29700D29300120A6DAF05120A21
:040A69006DC29322A5
:10088000E4FDC29300C29700D29300120A6DE4FF08
:10089000C297EDC313FD30A303430580D2970FBF6A
:1008A00008EEC29300C29700D29700C2A300D2A361
:0308B00000AF0591
:0108B3002222
:10091100900A99E493FFE4FD120A59E4FCEC900A71
:100921009293FF741D2CF8E6FD120A590CBC03EDDD
:0B093100900A99E493FF7D80020A59B0
:0409F700D2A07F0A01
:1009FB00000000000000000000000000000000AE3E
:060A0B00071FEE70EB2254
:0F0AB200D2A11209F7C2A17F0A1209FBC2A0222A
:0C0ADC00C2A11209F7D2A17F0A0209FB97
:0208E500AD075D
:1008E700E4FCC2A07F0A1209FBED30E704D2A18025
:1008F70002C2A17F0A1209FBD2A0ED25E0FD7F0A03
:090907001209FB0CBC08DBC2A0C4
:0109100022C4
:1009BD00E4FC1209F7ED25E0FD30A103430501C26A
:0C09CD00A07F0A1209FB0CBC08E8AF0573
:0109D90022FB
:100A80001209F7A2A1E433FDC2A07F0A1209FBAF4D
:010A90000560
:010A91002242
:10000300C2A0EF24FF92A17F0A1209FB1209F7C2D3
:08001300A0D2A17F0A0209FB43
:040A11007F057E00DF
:100A1500EF1FAA0670011E4A600BE4FDEDC3940C9E
:050A250050EE0D80F70A
:010A2A0022A9
:02098100A907C4
:10098300E4FBC294E9139294120A11D294E9C313BB
:0C099300F90BBB08ED7F057E00020A1581
:100A2B00E4FBC294ECC313FCD294309403430480D4
:090A3B00120A110BBB08EBAF0419
:010A4400228F
:10093C00C200D2947F0C7E00120A15C2947F507EA6
:10094C0000120A15D2947F0A7E00120A15A2949204
:06095C0000120A11A200C6
:010962002272
:1009DA007580FFE5A0541F4480F5A053A01FE4F5DD
:0D09EA0080E5A0541F44A0F5A053A01F22DB
:100AA200C0F9A4B0999282F880908883C6A1868EFC
:100677008D24EF14B40800505790068E75F003A42C
:10068700C58325F0C583730206A60206AC0206B22F
:100697000206B80206BE0206C40206CA0206D07DDA
:1006A700C07F0180287DC07F0280227DC07F0480BB
:1006B7001C7DC07F0880167DC07F1080107DC07FA5
:1006C70020800A7DC07F4080047DC07F80120ACFD2
:1006D700E524900AA293FF7DE0120ACF7F027E00F5
:0A06E70012099F7DE07FFF020ACF99
:1006F1008D24EF14B40800505790070875F003A437
:10070100C58325F0C5837302072002072602072C43
:1007110002073202073802073E02074402074A7DF8
:10072100C07F0180287DC07F0280227DC07F048040
:100731001C7DC07F0880167DC07F1080107DC07F2A
:1007410020800A7DC07F4080047DC07F80120ACF57
:100751007DE0AF24120ACF7F027E0012099F7DE067
:050761007FFF020ACF3A
:0A099F00E4FDFCC3ED9FEC9E501335
:0C09A90075250C7526A9D526FDD525FA6C
:0709B5000DBD00010C80E6FE
:0109BC002218
:0908DB00012200012300012100AB
:10053900E4FFD2B0D2B1D2B2D2B3D2C4D2C2D2B510
:10054900C2C420B0047F07801320B1047F06800C49
:1005590020B2047F05800520B3027F04D2B0D2B156
:10056900D2B2D2B3D2C4D2C2D2B5C2C220B0047FF1
:100579000B801320B1047F0A800C20B2047F09800C
:100589000520B3027F08D2B0D2B1D2B2D2B3D2C45D
:10059900D2C2D2B5C2B520B0047F0F801320B104F6
:1005A9007F0E800C20B2047F0D800520B3027F0CE2
:1005B900EFB5220BE523C39403500B05238007E411
:0B05C900F5238F22FF22E523B403146A
:1005D400E522600AE5217006752101AF2222E52299
:0405E4007002F5218B
:0205E8007F0092
:0105EA0022EE
:0D0ACF008F80E5A0541F4DF5A053A01F22FD
:030000000205EB0B
:0C05EB00787FE4F6D8FD75812802063206
:1001BE00EF8DF0A4A8F0CF8CF0A428CE8DF0A42E55
:0201CE00FE220F
:1001D000BC000BBE0029EF8DF084FFADF022E4CC13
:1001E000F875F008EF2FFFEE33FEEC33FCEE9DECDC
:1001F000984005FCEE9DFE0FD5F0E9E4CEFD22ED22
:10020000F8F5F0EE8420D21CFEADF075F008EF2F6B
:10021000FFED33FD4007985006D5F0F222C398FD5C
:050220000FD5F0EA22F9
:10022500C2D5EC30E709B2D5E4C39DFDE49CFCEEF4
:1002350030E715B2D5E4C39FFFE49EFE1201D0C39B
:10024500E49DFDE49CFC80031201D030D507C3E496
:060255009FFFE49EFE2263
:10080800C2D5E830E70FB2D5E4C39BFBE49AFAE41B
:1008180099F9E498F8EC30E717B2D512083E1202BD
:1008280097E4C39BFBE49AFAE499F9E498F8800307
:1008380012029730D50DE4C39FFFE49EFEE49DFDB0
:04084800E49CFC220E
:1005F700020AC1E493A3F8E493A34003F68001F24F
:1006070008DFF48029E493A3F85407240CC8C33304
:10061700C4540F4420C8834004F456800146F6DFD3
:10062700E4800B01020408102040809008B4E47EA7
:10063700019360BCA3FF543F30E509541FFEE493C8
:10064700A360010ECF54C025E060A840B8E493A38F
:10065700FAE493A3F8E493A3C8C582C8CAC583CABA
:10066700F0A3C8C582C8CAC583CADFE9DEE780BE72
:0108E4000013
:10025B0075F008758200EF2FFFEE33FECD33CDCC5A
:10026B0033CCC58233C5829BED9AEC99E5829840DD
:10027B000CF582EE9BFEED9AFDEC99FC0FD5F0D6BA
:10028B00E4CEFBE4CDFAE4CCF9A88222B800C1B9E4
:10029B000059BA002DEC8BF084CFCECDFCE5F0CB22
:1002AB00F97818EF2FFFEE33FEED33FDEC33FCEB5B
:1002BB0033FB10D703994004EB99FB0FD8E5E4F916
:1002CB00FA227818EF2FFFEE33FEED33FDEC33FC03
:1002DB00C933C910D7059BE99A4007EC9BFCE99AF7
:1002EB00F90FD8E0E4C9FAE4CCFB2275F010EF2F3C
:1002FB00FFEE33FEED33FDCC33CCC833C810D7073C
:10030B009BEC9AE899400AED9BFDEC9AFCE899F876
:0E031B000FD5F0DAE4CDFBE4CCFAE4C8F92209
:00000001FF
