:100BAD00023B0000023F000002390000013100014C
:100BBD003200013500012400012B00012300042522
:100BCD0000000000042C000000000441000007D0CC
:0E0BDD000221000002370000013D01013E012F
:100D75007FFFE53D70031F8003430701E53E7005D6
:100D85005307FD80034307028F80E5A0541F44806D
:050D9500F5A053A01FB2
:010D9A002236
:1009E800AE27AD26AC25EC33406DE47FF47E01FDE7
:1009F800FCAB28AA27A926A825D31201D850047F22
:100A0800338056AF28AE27AD26AC25AB44AA43A900
:100A180042A841D31201EE50047FFF803CE5282410
:100A28000CFFE52734FEFEE52634FFFDE52534FFFF
:100A3800FCE47BCCFAF9F81200BBE544240CFBE596
:100A48004334FEFAE54234FFF9E54134FFF8120178
:0D0A580046EF2433FF8002E4FF120D9B22C5
:1007DA00C2AFAE29AF2A7C007D0A12001EE48F2F19
:1007EA008E2EF52DF52CD2AFAE21EE3395E0FDFC21
:1007FA00E52F2522F528E52E3EF527E52D3DF526A0
:10080A00E52C3CF525AE37AF38E4FCFDAB28AA272A
:10081A00A926A825D31201D850030208A98527378B
:10082A008528387F85120CC3753B008F3C7F831265
:10083A000CC3753F008F407F81120CC37539008F3E
:10084A003AE53BC4F854F0C868FEE53CC4540F4886
:10085A00FF7C007D0A12001EE53C540F2FF53CEC8C
:10086A003EF53BE53FC4F854F0C868FEE540C45481
:10087A000F48FF12001EE540540F2FF540EC3EF5DD
:10088A003FE539C4F854F0C868FEE53AC4540F4845
:10089A00FF12001EE53A540F2FF53AEC3EF53922C5
:03001B000201FFE0
:1001FF00C0E0C0F0C083C082C0D075D000C000C0C6
:10020F0001C002C003C004C005C006C007053512F7
:10021F0008AA8F36E536B404100524752B00752314
:10022F0000E524B40403752400E52464016003028F
:10023F000319E536B40502052BE52BB40203752B24
:10024F0000E52B7077E536B40833E54424E8F54430
:10025F00E5433403F543E43542F542E43541F541D6
:10026F00E47F287E23FDFCAB44AA43A942A841D3D7
:10027F001201EE40477544287543238039E536B4A3
:10028F00093AC3E54494E8F544E5439403F543E59F
:10029F00429400F542E5419400F541E47FE87E0386
:1002AF00FDFCAB44AA43A942A841C31201EE500C76
:1002BF007544E8754303754200754100E52BB401A1
:1002CF0049E536B4082074642522F522E43521F57A
:1002DF0021D3E5229484E52164809483402C7521F9
:1002EF00037522848024E536B4091F749C2522F5FA
:1002FF002274FF3521F521C3E522947CE52164802A
:10030F00947C50067521FC75227CE524B4030FE51F
:10031F0036B405020523E523B40203752300E52453
:10032F00701A0531E531C394144017753100E53D5E
:10033F0070047F0180027F008F3D8006753D01753F
:10034F003100AF28AE27AD26AC25AB44AA43A94256
:10035F00A841C31201EE50170532E532C394144081
:10036F001FE53E70047F0180027F008F3E800EAC40
:10037F0025EC335005753E008003753E0175320044
:10038F00E535C3940A4017753500C28CAF8CEFADBD
:10039F008AF529EDF52A758C00758A00D28CD00765
:1003AF00D006D005D004D003D002D001D000D0D0D9
:0903BF00D082D083D0F0D0E032EE
:100DF700E4F58E758904758BF0758DD8F58AF58CB9
:0D0E0700C28FC28DD28ED28CD2ABD2AF2260
:100BFA007F85120CC38F337F83120CC38F347F819E
:100C0A00120CC38F30E533C4540F75F00AA4FFE504
:100C1A0033540F2FF533E534C4540F75F00AA4FF8B
:100C2A00E534540F2FF534E530C4540F75F00AA497
:090C3A00FFE530540F2FF53022C4
:1003C8007D0F7F01120A65AF28AE27AD26AC25EC5C
:1003D800335003020539E47B107A27F9F8120C43ED
:1003E800EC4D4E4F603CE47B107A27F9F8AF28AE0D
:1003F80027AD26AC25120C43AD077F04120A65E42D
:100408007B107A27F9F8AF28AE27AD26AC25120C59
:1004180043AC00AD01AE02AF03E47BE87A03F9F820
:100428008027E47BE87A03F9F8AF28AE27AD26AC3D
:1004380025120C43EC4D4E4F603BE47BE87A03F900
:10044800F8AF28AE27AD26AC25120C43AD077F05C3
:10045800120A65E47BE87A03F9F8AF28AE27AD26DF
:10046800AC25120C43AC00AD01AE02AF03E47B64D3
:10047800FAF9F88025E47B64FAF9F8AF28AE27ADDD
:1004880026AC25120C43EC4D4E4F6058E47B64FAC1
:10049800F9F8AF28AE27AD26AC25120C43AD077F7F
:1004A80006120A65E47B64FAF9F8AF28AE27AD2690
:1004B800AC25120C43AC00AD01AE02AF03E47B0ADD
:1004C800FAF9F8120C43AD077F07120A65E47B0AB4
:1004D800FAF9F8AF28AE27AD26AC25120C43AF03C6
:1004E800AD078048E47B0AFAF9F8AF28AE27AD26B5
:1004F800AC25120C43EC4D4E4F602FE47B0AFAF901
:10050800F8AF28AE27AD26AC25120C43AD077F0700
:10051800120A65E47B0AFAF9F8AF28AE27AD26ACD3
:1005280025120C43AF03AD078002AD287F08020AED
:10053800657DC77F07120ADF7DC77F08120ADF22A1
:100548007D8C7F01120ADFE52B60030205E17D0146
:100558007F02120A65E47BE87A03F9F8AF44AE43F8
:10056800AD42AC41120146AD077F05120A65E47B36
:10057800E87A03F9F8AF44AE43AD42AC4112014604
:10058800AC00AD01AE02AF03E47B64FAF9F81201E6
:1005980046AD077F06120A65E47B64FAF9F8AF44B2
:1005A800AE43AD42AC41120146AC00AD01AE02AF64
:1005B80003E47B0AFAF9F8120146AD077F07120A2D
:1005C80065E47B0AFAF9F8AF44AE43AD42AC411298
:1005D8000146AF03AD0702068E7D027F02120A654F
:1005E800D3E5229400E52164809480403EAE21AF9B
:1005F800227C007D64120085AD077F06120A65AE75
:1006080021AF227C007D641200857E007F0ACFCD59
:10061800CFCECCCE120085AD077F07120A65AE217A
:10062800AF227C007D0A120085805BC3E5216480CF
:04063800948050500A
:10063C00C3E49522F509E49521F5087DBF7F0512E9
:10064C000ADFAE08AF097C007D64120085AD077F20
:10065C0006120A65AE08AF097C007D641200857E27
:10066C00007F0ACFCDCFCECCCE120085AD077F0751
:0E067C00120A65AE08AF097C007D0A120085E7
:0A068A008002AD227F08120A6522EB
:100694007D897F01120ADFE523600302076C7D0F69
:1006A4007F02120A65AE37AF387C277D1012003006
:1006B400EF4E6021AD077F04120A65AE37AF387C78
:1006C400277D101200307E037FE8CFCDCFCECCCE75
:1006D400120030800FAE37AF387C037DE812003053
:1006E400EF4E6021AD077F05120A65AE37AF387C47
:1006F400037DE81200307E007F64CFCDCFCECCCE18
:10070400120030800FAE37AF387C007D64120030A9
:10071400EF4E602DAD077F06120A65AE37AF387C09
:10072400007D641200307E007F0ACFCDCFCECCCEC8
:10073400120030AD077F07120A65AE37AF380207E3
:10074400CDAE37AF387C007D0A120030EF4E601416
:10075400AD077F07120A65AE37AF387C007D0A12F9
:100764000030806CAD3880687D0A7F02120A65AE65
:100774003BAF3C7C007D0A120030AD077F03120AB8
:1007840065AE3BAF3C7C007D0A1200307F04120A48
:1007940065AE3FAF407C007D0A120030AD077F0597
:1007A400120A65AE3FAF407C007D0A1200307F061E
:1007B400120A65AE39AF3A7C007D0A120030AD07EB
:1007C4007F07120A65AE39AF3A7C007D0A12003009
:0607D4007F08120A6522F5
:100B5400E53375F00A84FD7F01120A65E53375F00B
:100B64000A84ADF07F02120A657DBF7F03120ADF9B
:100B7400E53475F00A84FD7F04120A65E53475F0E6
:100B84000A84ADF07F05120A657DBF7F06120ADF75
:100B9400E53075F00A84FD7F07120A65E53075F0CB
:090BA4000A84ADF07F08020A6525
:100C8700120E31120DF7120D231207DA1209E812AC
:100C97000D75E52470051203C880EEE524B401053F
:100CA70012054880E4E524B40208120BFA120B542B
:0C0CB70080D7E524B403D212069480CD4F
:100ED50080828486888A8C8E81838587898B8D8F95
:050BEB00030D050313DA
:100EB000E4FEC297EF1392A3EFC313FFD2970EBEC7
:020EC00008F038
:010EC200220D
:100E9C00C29300C29700D29300120EB0AF05120E8F
:040EAC00B0C293221B
:100CC300E4FDC29300C29700D29300120EB0E4FF7A
:100CD300C297EDC313FD30A303430580D2970FBF23
:100CE30008EEC29300C29700D29700C2A300D2A31A
:030CF30000AF054A
:010CF60022DB
:100D2300900EDCE493FFE4FD120E9CE4FCEC900EC9
:100D3300D593FF740D2CF8E6FD120E9C0CBC03ED4D
:0B0D4300900EDCE493FF7D80020E9C0C
:040E4E00D2A07F0AA5
:100E5200000000000000000000000000000000AEE2
:060E6200071FEE70EB22F9
:0F0EF500D2A1120E4EC2A17F0A120E52C2A0222B
:0C0F1100C2A1120E4ED2A17F0A020E52A5
:020CF700AD0747
:100CF900E4FCC2A07F0A120E52ED30E704D2A180B3
:100D090002C2A17F0A120E52D2A0ED25E0FD7F0A90
:090D1900120E520CBC08DBC2A052
:010D220022AE
:100E1400E4FC120E4EED25E0FD30A103430501C2B2
:0C0E2400A07F0A120E520CBC08E8AF05BB
:010E3000229F
:100EC300120E4EA2A1E433FDC2A07F0A120E52AF4E
:010ED3000519
:010ED40022FB
:10000300C2A0EF24FF92A17F0A120E52120E4EC21B
:08001300A0D2A17F0A020E52E7
:040E68007F057E0084
:100E6C00EF1FAA0670011E4A600BE4FDEDC3940C43
:050E7C0050EE0D80F7AF
:010E8100224E
:020DBB00A90786
:100DBD00E4FBC294E9139294120E68D294E9C31322
:0C0DCD00F90BBB08ED7F057E00020E6CE8
:100E8200E4FBC294ECC313FCD29430940343048079
:090E9200120E680BBB08EBAF0463
:010E9B002234
:100D4E00C200D2947F0C7E00120E6CC2947F507E35
:100D5E0000120E6CD2947F0A7E00120E6CA2949238
:060D6E0000120E68A20055
:010D7400225C
:100E3100E4F580E5A0541F44A0F5A053A01F7580E0
:0D0E4100FFE5A0541F4480F5A053A01F2220
:100EE500C0F9A4B0999282F880908883C6A1868EB5
:100A65008D0AEF14B408005057900A7C75F003A462
:100A7500C58325F0C58373020A94020A9A020AA067
:100A8500020AA6020AAC020AB2020AB8020ABE7D2E
:100A9500C07F0180287DC07F0280227DC07F0480C9
:100AA5001C7DC07F0880167DC07F1080107DC07FB3
:100AB50020800A7DC07F4080047DC07F80120F04A6
:100AC500E50A900EE593FF7DE0120F047F027E009C
:0A0AD500120DD97DE07FFF020F042F
:100ADF008D0AEF14B408005057900AF675F003A46E
:100AEF00C58325F0C58373020B0E020B14020B1A7C
:100AFF00020B20020B26020B2C020B32020B387D4D
:100B0F00C07F0180287DC07F0280227DC07F04804E
:100B1F001C7DC07F0880167DC07F1080107DC07F38
:100B2F0020800A7DC07F4080047DC07F80120F042B
:100B3F007DE0AF0A120F047F027E00120DD97DE017
:050B4F007FFF020F040E
:0A0DD900E4FDFCC3ED9FEC9E5013F7
:0C0DE300750B0C750CA9D50CFDD50BFA96
:070DEF000DBD00010C80E6C0
:010DF60022DA
:090BF000011100011200011000C6
:1008AA00E4FFD2B0D2B1D2B2D2B3D2C4D2C2D2B59C
:1008BA00C2C420B0047F07801320B1047F06800CD5
:1008CA0020B2047F05800520B3027F04D2B0D2B1E2
:1008DA00D2B2D2B3D2C4D2C2D2B5C2C220B0047F7D
:1008EA000B801320B1047F0A800C20B2047F098098
:1008FA000520B3027F08D2B0D2B1D2B2D2B3D2C4E9
:10090A00D2C2D2B5C2B520B0047F0F801320B10481
:10091A007F0E800C20B2047F0D800520B3027F0C6D
:10092A00EFB5110BE512C39403500B05128007E4CF
:0B093A00F5128F11FF22E512B4031428
:10094500E511600AE5107006751001AF1122E51179
:040955007002F51027
:020959007F001D
:01095B002279
:0D0F04008F80E5A0541F4DF5A053A01F22C3
:100D9B008F08120EF57F90120CF7120EC37F4012C4
:100DAB000CF7120EC3AF08120CF7120EC3020F1181
:0300000002095C96
:0C095C00787FE4F6D8FD7581440209A301
:10001E00EF8DF0A4A8F0CF8CF0A428CE8DF0A42EF6
:02002E00FE22B0
:10003000BC000BBE0029EF8DF084FFADF022E4CCB4
:10004000F875F008EF2FFFEE33FEEC33FCEE9DEC7D
:10005000984005FCEE9DFE0FD5F0E9E4CEFD22EDC3
:10006000F8F5F0EE8420D21CFEADF075F008EF2F0D
:10007000FFED33FD4007985006D5F0F222C398FDFE
:050080000FD5F0EA229B
:10008500C2D5EC30E709B2D5E4C39DFDE49CFCEE96
:1000950030E715B2D5E4C39FFFE49EFE120030C3DE
:1000A500E49DFDE49CFC800312003030D507C3E4D9
:0600B5009FFFE49EFE2205
:1000BB00E88FF0A4CC8BF0A42CFCE98EF0A42CFCE4
:1000CB008AF0EDA42CFCEA8EF0A4CDA8F08BF0A462
:1000DB002DCC3825F0FDE98FF0A42CCD35F0FCEBC1
:1000EB008EF0A4FEA9F0EB8FF0A4CFC5F02ECD3986
:0F00FB00FEE43CFCEAA42DCE35F0FDE43CFC22F3
:10010A0075F008758200EF2FFFEE33FECD33CDCCAC
:10011A0033CCC58233C5829BED9AEC99E58298402F
:10012A000CF582EE9BFEED9AFDEC99FC0FD5F0D60C
:10013A00E4CEFBE4CDFAE4CCF9A88222B800C1B936
:10014A000059BA002DEC8BF084CFCECDFCE5F0CB74
:10015A00F97818EF2FFFEE33FEED33FDEC33FCEBAD
:10016A0033FB10D703994004EB99FB0FD8E5E4F968
:10017A00FA227818EF2FFFEE33FEED33FDEC33FC55
:10018A00C933C910D7059BE99A4007EC9BFCE99A49
:10019A00F90FD8E0E4C9FAE4CCFB2275F010EF2F8E
:1001AA00FFEE33FEED33FDCC33CCC833C810D7078E
:1001BA009BEC9AE899400AED9BFDEC9AFCE899F8C9
:0E01CA000FD5F0DAE4CDFBE4CCFAE4C8F9225C
:100C4300C2D5E830E70FB2D5E4C39BFBE49AFAE4DC
:100C530099F9E498F8EC30E717B2D5120C79120140
:100C630046E4C39BFBE49AFAE499F9E498F8800319
:100C730012014630D50DE4C39FFFE49EFEE49DFDC3
:040C8300E49CFC22CF
:1001D800EB9FF5F0EA9E42F0E99D42F0EC6480C89E
:0601E80064809845F0223E
:1001EE00EB9FF5F0EA9E42F0E99D42F0E89C45F067
:0101FE0022DE
:10096800020C87E493A3F8E493A34003F68001F212
:1009780008DFF48029E493A3F85407240CC8C33390
:10098800C4540F4420C8834004F456800146F6DF5F
:10099800E4800B0102040810204080900BADE47E37
:1009A800019360BCA3FF543F30E509541FFEE49354
:1009B800A360010ECF54C025E060A840B8E493A31B
:1009C800FAE493A3F8E493A3C8C582C8CAC583CA46
:1009D800F0A3C8C582C8CAC583CADFE9DEE780BEFE
:010BF90000FB
:00000001FF
