:0C03DC000121800122A00123C00124D0D7
:0C03F600120301AD21E4FF1203E980F7BF
:10039800E4FEC297EF1392A3EFC313FFD2970EBEEA
:0203A80008F05B
:0103AA002230
:10038400C29300C29700D29300120398AF051203E0
:0403940098C2932256
:10022100E4FDC29300C29700D29300120398E4FF49
:10023100C297EDC313FD30A303430580D2970FBFCF
:1002410008EEC29300C29700D29700C2A300D2A3C6
:0302510000AF05F6
:010254002287
:04031E00D2A07F0AE0
:10032200000000000000000000000000000000AE1D
:06033200071FEE70EB2234
:0F03CD00D2A112031EC2A17F0A120322C2A022D4
:0C040200C2A112031ED2A17F0A02032235
:02025500AD07F3
:10025700E4FCC2A07F0A120322ED30E704D2A1809A
:1002670002C2A17F0A120322D2A0ED25E0FD7F0A78
:090277001203220CBC08DBC2A03A
:01028000225B
:1002E400E4FC12031EED25E0FD30A103430501C229
:0C02F400A07F0A1203220CBC08E8AF0532
:0103000022DA
:1003AB0012031EA2A1E433FDC2A07F0A120322AFE7
:0103BB00053C
:0103BC00221E
:10036C00C2A0EF24FF92A17F0A12032212031EC225
:08037C00A0D2A17F0A020322B6
:040338007F057E00BF
:10033C00EF1FAA0670011E4A600BE4FDEDC3940C7E
:05034C0050EE0D80F7EA
:010351002289
:0202A800A907A4
:1002AA00E4FBC294E9139294120338D294E9C3137B
:0C02BA00F90BBB08ED7F057E0002033C41
:10035200E4FBC294ECC313FCD294309403430480B4
:090362001203380BBB08EBAF04D9
:01036B00226F
:10028100C200D2947F0C7E0012033CC2947F507E48
:100291000012033CD2947F0A7E0012033CA2949286
:0602A10000120338A20068
:0102A7002234
:100301007580FFE5A0541F4480F5A053A01FE4F5BC
:0D03110080E5A0541F44A0F5A053A01F22BA
:1003BD00C0F9A4B0999282F880908883C6A1868EE8
:0400F9008F088D09D6
:1000FD00750A80750BA0750CC0750DE0780E7C002F
:10010D007D007BFF7A0379BD7E007F101200D3E561
:10011D000814B40800505790013275F003A4C5833C
:10012D0025F0C5837302014A0201500201560201F6
:10013D005C02016202016802016E020174AD0C7F66
:10014D00018028AD0C7F028022AD0C7F04801CAD98
:10015D000C7F088016AD0C7F108010AD0C7F2080B9
:10016D000AAD0C7F408004AD0C7F801203E9740E44
:10017D002509F8E6FFAD0D1203E97F027E0012029C
:08018D00C6AD0D7FFF0203E97E
:0A02C600E4FDFCC3ED9FEC9E501315
:0C02D000751E0C751FA9D51FFDD51EFA68
:0702DC000DBD00010C80E6DE
:0102E30022F8
:0D03E9008F80E5A0541F4DF5A053A01F22EA
:0300000002019565
:0C019500787FE4F6D8FD7581240201DCBF
:10000300E709F608DFFA8046E709F208DFFA803EDF
:1000130088828C83E709F0A3DFFA8032E309F608CC
:10002300DFFA8078E309F208DFFA807088828C8334
:10003300E309F0A3DFFA806489828A83E0A3F608E8
:10004300DFFA805889828A83E0A3F208DFFA804CC2
:1000530080D280FA80C680D4806980F28033801099
:1000630080A680EA809A80A880DA80E280CA803302
:1000730089828A83ECFAE493A3C8C582C8CCC5837A
:10008300CCF0A3C8C582C8CCC583CCDFE9DEE7804A
:100093000D89828A83E493A3F608DFF9ECFAA9F0C9
:1000A300EDFB2289828A83ECFAE0A3C8C582C8CC1F
:1000B300C583CCF0A3C8C582C8CCC583CCDFEADE38
:1000C300E880DB89828A83E493A3F208DFF980CC9A
:1000D30088F0EF60010E4E60C388F0ED2402B40493
:1000E3000050B9F582EB2402B4040050AF2323453A
:0600F3008223900053730C
:1001A1000203F6E493A3F8E493A34003F68001F27B
:1001B10008DFF48029E493A3F85407240CC8C3335F
:1001C100C4540F4420C8834004F456800146F6DF2E
:1001D100E4800B01020408102040809003DCE47EDF
:1001E100019360BCA3FF543F30E509541FFEE49323
:1001F100A360010ECF54C025E060A840B8E493A3EA
:10020100FAE493A3F8E493A3C8C582C8CAC583CA14
:10021100F0A3C8C582C8CAC583CADFE9DEE780BECC
:0103E8000014
:00000001FF
