:030000000200C635
:0C00C600787FE4F6D8FD75812002010D62
:06031600010800010901CD
:1002F5001203251202E0C2027D01AF0912015280EC
:01030500F502
:03000B0002023EB0
:10023E00C0E0C0F0C083C082C0D075D000C000C086
:10024E0001C002C003C004C005C006C00712000EE4
:10025E008F08E508B404020509E508B4050215097E
:10026E00D007D006D005D004D003D002D001D000E4
:0B027E00D0D0D082D083D0F0D0E0328E
:1002E000538E7F5389F0758AF0758CD8C28DD28C6D
:0502F000D2A9D2AF22EB
:10030600C0F9A4B0999282F880908883C6A1868E9F
:08031C00010A00010B00C10100
:10028900EF24FB601414601B14602224037026E51C
:10029900A0541F4480F5A0801CE5A0541F44A0F57C
:1002A900A08012E5A0541F44C0F5A08008E5A05421
:0902B9001F44E0F5A053A01F2230
:0902C2007F071202897F027E0011
:1002CB00EF1FAC0670011E4C600A7D0C7CA9DCFE96
:0402DB00DDFC80ECDA
:0102DF0022FC
:0F0325007580FF7F04120289E4F5800F020289C0
:10015200EF14B40800504E90016775F003A4C583F4
:1001620025F0C5837302017F020184020189020125
:100172008E02019302019802019D0201A275800183
:1001820080267580028021758004801C758008801D
:10019200177580108012758020800D758040800850
:1001A2007580808003E4F5807F06120289ED90035A
:1001B20006933002064480F5808002F5801202C266
:0801C2007580FF7F070202892E
:1001CA00EF14B40800504E9001DF75F003A4C58304
:1001DA0025F0C583730201F70201FC020201020243
:1001EA000602020B02021002021502021A758001AF
:1001FA0080267580028021758004801C75800880A5
:10020A00177580108012758020800D7580408008D7
:10021A007580808003E4F5807F061202893000072A
:10022A00ED4480F58080028D801202C27580FF7FC6
:04023A00070202892C
:10000E00E4FFD2B0D2B1D2B2D2B3D2C4D2C2D2B540
:10001E00C2B020C4047F07800C20C2047F0B800571
:10002E0020B5027F0FD2B0D2B1D2B2D2B3D2C4D2E7
:10003E00C2D2B5C2B120C4047F06800C20C2047F98
:10004E000A800520B5027F0ED2B0D2B1D2B2D2B3A1
:10005E00D2C4D2C2D2B5C2B220C4047F05800C2055
:10006E00C2047F09800520B5027F0DD2B0D2B1D275
:10007E00B2D2B3D2C4D2C2D2B5C2B320C4047F04AA
:10008E00800C20C2047F08800520B5027F0CEFB5DE
:10009E000A0BE50BC394035009050B8005E4F50B21
:1000AE008F0AE50BB4030E200106EF6003D2012286
:0700BE00EF7002C2017F0098
:0100C5002218
:1000D2000202F5E493A3F8E493A34003F68001F24D
:1000E20008DFF48029E493A3F85407240CC8C3332F
:1000F200C4540F4420C8834004F456800146F6DFFE
:10010200E4800B0102040810204080900316E47E74
:10011200019360BCA3FF543F30E509541FFEE493F2
:10012200A360010ECF54C025E060A840B8E493A3B9
:10013200FAE493A3F8E493A3C8C582C8CAC583CAE4
:10014200F0A3C8C582C8CAC583CADFE9DEE780BE9C
:0103240000D8
:00000001FF
