:10107F00432532752020204E253175004C253175C2
:10108F00202020253033750050432020202025328A
:10109F007500504C20202020253275004E43202013
:0410AF00253475006F
:0A128F00014D1E01501E022B01F458
:10123A0012126A121225120DCE120E71120D2812F6
:04124A000C6480F2BE
:100DCE00C3E5279464E52694005003020E70E4F503
:100DDE0026F527E54B24F0602624F0603914604791
:100DEE0024F16054243070687558FF755910755A87
:100DFE007F755B0085225C755D0085315E80487570
:100E0E0058FF755910755A8B755B00854F5C755D73
:100E1E000085525E80317558FF755910755A977559
:100E2E005B00854D5C80207558FF755910755AA171
:100E3E00755B0085505C800F7558FF755910755A9B
:100E4E00AB755B0085285C7B007A00793F120664E7
:100E5E00755800755900755A377B007A00793F1224
:030E6E000A7722DE
:100E7100E52AC3940A5003020F13E4F52A120B86E4
:100E8100EF652460098F24E4F52BF52C8002E4FF43
:100E9100EF24FB601E24FD60271460432405705F6E
:100EA100534BF07410254BF54BC394404051E4F57E
:100EB1004B804CE54B54F064207044634B01803F00
:100EC100E54BB42009E54DC394505002054DE54B67
:100ED1006421702BE550C3945050247405801CE5A7
:100EE1004BB42009E54DD394144002154DE54BB4A4
:100EF100210DE550D39414400674FB2550F550E5BF
:100F010024B4140ED3E52C94D0E52B94074003E4CC
:020F1100F528C1
:010F130022BB
:100D2800E551C394645003020DCDE4F551E54B54ED
:100D3800F0FFBF200DE530B40103634E80AF4E02D3
:100D480012A5E552C39550502DE53124FE601214CA
:100D5800601714601C24037020434E01534EF18029
:100D680018434E03534EF38010434E07534EF780FB
:100D780008434E0F8003534EF0E54F24FE600F14D6
:100D8800601424027016E4F530534E7F800EE4F5AB
:100D980030434E808006753001634E80AF4E12128C
:100DA800A5E552C395505015E522954D400F7F108B
:100DB8001212ADE523700E752301052822E4FF12F7
:060DC80012ADE4F5232248
:100C6400E53465547004E53365537003020D27853C
:100C740053338554347F0112110CAC07E41201CEB6
:100C84007B337A3379A378401201271202028F4C06
:100C9400E54CC3941E4005753101801BE54CC3949B
:100CA400144005753102800FE54CC3940540057569
:100CB4003103800375310412102B8F52C3E5549510
:100CC40036FFE5539535FEC3EF9404EE94004031AE
:100CD400E552D395324008E5529532F5558007C365
:100CE400E5329552F555E555C394055005754F0108
:100CF400800FE555C3940A5005754F028003754F64
:100D040003855232E52F654F6009854F2F85533592
:100D14008554361210B3EEC4F854F0C8EFC4540F1F
:030D240048F5226D
:010D270022A9
:10122500538EBF53890F758B18758DFCC28FD28E67
:05123500D2ABD2AF2294
:03001B00020FA031
:100FA000C0E0C0F0C083C082C0D075D000C000C017
:100FB00001C002C003C004C005C006C007052EE57D
:100FC0002E7002052DFFAE2DBE0311BFE80E752D4C
:100FD00000752E000554E554700205530527E527DA
:100FE000700205260525052A052CE52C7002052B27
:100FF0000551E525C394024017752500743725294E
:10100000F8E6FFAD2912115B0529E5295407F529FA
:10101000D007D006D005D004D003D002D001D00034
:0B102000D0D0D082D083D0F0D0E032DE
:10102B007F0AC29075E9F475F9FFD2DEAE071FEEA9
:10103B00601230DFFDA290B3929075E9F475F9FF61
:10104B00C2DF80E8C2DEE4F5E9F5F9D2DE309103C8
:10105B0030DFFAC2DEAFF9EFFEADE97C00E42DFD27
:10106B00EC3EFC1201C97B967A43798B783C1200DB
:04107B001E0202024D
:0D125D008F80EDC43354E042A053A01F2247
:0812A500EFF4FF7D0402125D6D
:0512AD007D0502125D49
:0D126A0053A01FE4FF1212A5E4FF0212AD15
:060A77008B558A568957D9
:100A7D00E4F55CF55BE55BC394084003020B85ABC5
:100A8D0055AA56A957855C82758300120536120545
:100A9D00B50B4D2D0AE4300AE9310AEE320AF33373
:100AAD000AF8340AFD350B02360B07370B0C380BE1
:100ABD0011390B16410B1B420B20430B25440B2AFE
:100ACD00450B2F460B34480B394C0B3E4E0B435008
:100ADD000B485500000B52755DC0806C755DF9803B
:100AED0067755DA48062755DB0805D755D99805898
:100AFD00755D928053755D82804E755DF880497588
:100B0D005D808044755D90803F755D88803A755D30
:100B1D00838035755DC68030755DA1802B755D86D2
:100B2D008026755D8E8021755D89801C755DC78001
:100B3D0017755DC88012755D8C800D755DC180085F
:100B4D00755DBF8003755DFF855C82758300A3AB0A
:100B5D0055AA56A957120536B42E05535D7F055C6F
:100B6D00AB58AA59A95A855B82758300E55D1205BC
:080B7D0075055B055C020A82AC
:010B8500224D
:10115B00AE05AC077D077FFF12125DAF06A80774C3
:10116B0001088002C333D8FCFF7D0612125DAF0469
:04117B000D02125DF2
:100B8600C2C4D2C2D2B5D2B4AFB07E00D2C4C2C241
:100B9600EFC4F8540FC868FFEEC454F048FEE5B041
:100BA600540FFDEF4DD2C2C2B5C4F8540FC868FF4A
:100BB600EEC454F048FEE5B0540FFDEF4DD2B5C279
:100BC600B4C4F8540FC868FFEEC454F048FEE5B04C
:100BD600540FFDEF4DF4FFEEF4FEEF8EF01205DB41
:100BE6000C5B00010C5800020C5500040C52000866
:100BF6000C4F00100C4C00200C4900400C460080A5
:100C06000C4301000C4002000C3D04000C3A0800A5
:100C16000C5E0C000C3710000C3420000C31400028
:100C26000C2E800000000C617F04227F05227F06C7
:100C3600227F07227F08227F09227F0A227F0B223A
:100C46007F0C227F0D227F0E227F0F227F10227FB4
:0D0C560011227F12227F13227F14227F00C3
:010C6300226E
:04124E007F197E0086
:0B125200EF1FAC0670011E4C70F6226E
:10117F00C200D294C2947FC87E00121252D2947FC2
:0F118F00647E00121252A294920012124EA2001D
:01119E00222E
:02119F00AD079A
:1011A100E4FBC294ED13929412124ED294EDC31348
:0C11B100FD0BBB08ED7F057E0002125212
:1011F500E4FBC294EDC313FDD29430940343058000
:0912050012124E0BBB08EBAF0501
:01120E0022BD
:1010B30012117F7FCC12119F7F4412119F12117F57
:1010C3007FCC12119F7FBE12119F1211F5AA071236
:0C10D30011F5EFFE7C00E42AFFEC3EFE6D
:0110DF0022EE
:04129A00D2A07F055A
:07129E00AE071FEE70FA22FB
:0C127700D2A112129AC2A17F0502129EA1
:0C128300C2A112129AD2A17F0502129E95
:10000300C2A0A20092A17F0512129E12129AC2A050
:07001300D2A17F0502129E3D
:0A11DA00AB071212777F901210E0AD
:1011E40012129AA2A19200C2A07F0512129EA2001E
:0111F40022D8
:0210E000AD075A
:1010E200E4FCC2A07F0512129EED30E704D2A1807B
:1010F20002C2A17F0512129ED2A0ED25E0FD7F055E
:0911020012129E0CBC08DBC2A015
:01110B0022C1
:1011BD00E4FC12129AED25E0FD30A103430501C2B6
:0C11CD00A07F0512129E0CBC08E8AF05C4
:0111D90022F3
:10110C001211DAEB2440FF1210E01211E4121277E4
:10111C007F911210E01211E41211BDAD07D2001232
:07112C000003121283AF055E
:011133002299
:10120F001211DA7F401210E01211E4AF031210E056
:06121F001211E40212832B
:10001E00EC4D6011E8497017ED33EC3304600DE4DC
:10002E00FCFFFEFD22E933E8330470F802026E1283
:10003E00023958046009E4CC248150062850090284
:10004E000278284003020275C0E0EB4A7044B98082
:10005E0006D0E0FB020264EF4E701CBD8008EBFF81
:10006E00EAFEE9FD80EBE98DF0A4FEE5F002010762
:10007E00E9CDF9EAFEEBFFEF89F0A4FCE5F0CE89BD
:10008E00F0A42EFFE435F0CD89F0A42DFEE435F07A
:10009E008067EF4E7005BD80D780C3EF8BF0A4ACA8
:1000AE00F0EE8BF0A42CFCE435F0F8EF8AF0A42CE3
:1000BE00E5F038FCE433CB8DF0A42CFCE5F03BF8F6
:1000CE00EE8AF0A42CFCE5F038F8E433CF89F0A4E6
:1000DE002CFCE5F038CF3400CE89F0A42FFFE5F0EC
:1000EE003EFEE433C98DF0A42EFEE5F039CD8AF044
:1000FE00A42FFFE5F03EFEE43DFD33D0E0FB5007BC
:10010E000BBB000F020278EC2CFCEF33FFEE33FE3C
:06011E00ED33FD0202506A
:10012400020278EC5D046005E85904700302026E73
:10013400120239580460F6EC4860F2EC7004FDFEDB
:10014400FF22C860DB2481C85009C39860025006AE
:100154000202759850CAF582E9294B4A7005AB82B0
:1001640002026475F0007C1A7880C3EF9BEE9AED6E
:1001740099400DC3EF9BFFEE9AFEED99FDE842F026
:10018400DC23ACF0D0E0FFD0E0FED0E0FDAB822079
:10019400E7101BEB60BAEC2CFCEF33FFEE33FEED03
:1001A40033FD020250E803F830E705C0F075F000B3
:1001B400EF2FFFEE33FEED33FD40B830E7C280AAE7
:1001C40075F020800E75F010800575F0087D007EB6
:1001D400007F003392D530D503120597EC334010DD
:1001E400EF33FFEE33FEED33FDEC33FCD5F0ED22BF
:0E01F400E5F0247EA2D513CC92E7CDCEFF22FB
:10020200EDD2E7CD33EC3392D524814006E4FFFEF4
:10021200FDFC22FCE4CFCECDCC24E0501174FF8053
:10022200EDC3CC13CCCD13CDCE13CECF13CF0470F0
:07023200F030D5DE02059754
:10060800E56C2458F8E6056C2278553007027858CE
:10061800E475F0011205A502051D2000EB7F2ED21E
:10062800008018EF540F2490D43440D4FF30040BCA
:10063800EF24BFB41A0050032461FFE56D60021572
:100648006D0570E5707002056F30070D7855E4751B
:10065800F0011205A5EF0205630211347403D207F5
:100668008003E4C207F56C8B558A568957E4F56D0B
:10067800F56FF570E56D60077F2012064380F5750C
:100688006EFFC201C200C202C203C205C206C2088E
:10069800120611FF700D3007057F00120654AF7067
:1006A800AE6F22B4255FC2D5C204120611FF24D052
:1006B800B40A00501A75F00A786D30D50508B6FFEF
:1006C8000106C6A426F620D5047002D20380D924D8
:1006D800CFB41A00EF5004C2E5D204020941D20196
:1006E80080C6D20080C0D20280BCD2D580BAD205E2
:1006F80080B47F201206432002077401B56D0040C4
:10070800F1120608FF12064302067CD208D20680C0
:1007180095120608FB120608FA120608F94A4B70E9
:100728000679387A0A7BFF20022EE56D602A7E0062
:100738008E8275830012053660060EEE656E70F0C7
:10074800C2D5EBC0E0EAC0E0E9C0E0EE1209A1D0F2
:10075800E0F9D0E0FAD0E0FB12051DFF60AAEBC07B
:10076800E0EAC0E0E9C0E0120643D0E02401F9D095
:10077800E03400FAD0E0FBE56E0460DCD56ED98089
:1007880087D20280A212098460F7E56E7001041214
:100798000283A96E600DE56E600914F56E120A2BCE
:1007A800EF60F3EA30E702F404C3995077EAF425DE
:1007B8006E0430E701E404F56E800D12098460C10F
:1007C800EA056E256E120283EA786BF630E701E4DB
:1007D800256E04D56E04200501141209A1E4C0E0B9
:1007E800120A2B786BE6601320E70714F612062B23
:1007F800802204F6D0E014C0E07F0012062BE56EDC
:100808006007120622156E800B300503120622D0EF
:10081800E002067CD0E00480C512098460A0E56E81
:1008280004120283786BEAF6E56E20050260010483
:0508380024041209A1D7
:10083D0074FF04C0E0120A2B12062BE56E20050290
:10084D006003120622D0E0B56EE87F4512063578BA
:10085D006BE67F2B30E7047F2DF404C0E0120643D6
:10086D00D0E075F00A84C0F012062CD0E012062CF0
:10087D0002067C791080027908C206C2088008D26F
:10088D00D5790A8004790AC2D5E56E047002F56E39
:10089D00E4FAFDFEFF120608FC7B08200113120688
:1008AD0008FD7B1030000A120608FE120608FF7BB9
:1008BD0020EC3382D592D55013C3E43000069FFF50
:1008CD00E49EFEE42001039DFDE49CFCE4CBF8C214
:1008DD0001EC700CCFCECDCCE824F8F870F3801776
:1008ED00C3EF33FFEE33FEED33FDEC33FCEB33FBA7
:1008FD00994002FB0FD8E9EB300105F8D0E0C44870
:10090D00B201C0E00AEC4D4E4F78207B0070C2EA78
:10091D00B56E0040BCC0E01209A3D0F0D0E02001BC
:10092D0004C4C0E0C4B201C0F012062CD0F0D5F062
:10093D00EB02067C1205B507195308805806EA4CE0
:10094D0006E64208844F088C44088C4906FF43088C
:10095D00925507C346082145078D470A585006EEA4
:10096D002D06F22E07152B06F6230713200A412A12
:10097D0006AE480000070DE56EB4FF03756E061256
:10098D000608FC120608FD120608FE120608FF787E
:10099D00640202B2790AA2D5200314300509B910F8
:1009AD00020404B9080104A2D52006025001042056
:1009BD0002689202B56D005034C0E07F20300319FB
:1009CD007F30A20272067205500F1209FAC202C2DE
:1009DD0006C205C2087F30800F300503E9C0E01262
:1009ED000643300503D0E0F9D0E0B56DCC300517E6
:1009FD007F30B9100C1206437F583004077F788082
:100A0D0003B908031206433002057F2D0206437F0A
:100A1D00202008F87F2B2006F322920280CF7F0042
:100A2D00B4070050052464F8E6FF22286E756C6C3F
:100A3D002900D2011206083001F8C201786D30D5B7
:100A4D000108F60206AE2D5043495812060824033C
:100A5D00B405004001E4900A5393120634743A121F
:0A0A6D000634D203756D0402088000
:10023900E9D2E7C933E833F892D5EDD2E7CD33EC0B
:0702490033FC5002B2D52284
:10025000EC30E7100FBF000C0EBE00080DBD00040F
:100260000BEB6014A2D5EB13FCED92E7FD2274FFBB
:10027000FCFDFEFF22E480F8A2D574FF13FC7D8014
:03028000E480EF28
:10028300F920E72824F950037907E4F42402FB1842
:10029300DBFDE624FB5014E9600DE4F618E604F6F2
:0F02A300B40A08E4F6D9F57401F60A22C2D5228E
:1002B200ED33EC3392D5FA602AB4FF33EDC2E77B1B
:1002C200FF60067A0279D7E4227A0279E020D50427
:1002D2007A0279DB224E614E002B494E46002D49AF
:1002E2004E4600E47A08F608DAFC7B00740722E83E
:1002F200C0E0ECC0E0EDC0E0EEC0E0EFC0E0EA75C7
:10030200F010A4CAABF075F04DA42BFBE435F0FC61
:10031200EA2410FAEB34C5FBEC34D9FCEDC2E7FF5A
:1003220075F056A4F42411C5F0F434C58FF0A42A54
:10033200E5F03BE43CF620E7141204DDD0E0FFD008
:10034200E0FED0E0FDD0E0FC1201278014F404129C
:1003520004DDD0E0FFD0E0FED0E0FDD0E0FC1200F2
:100362001ED0E0F8E6FAEDD2E7CD33EC332482FB7F
:10037200E4C3CF33CFCE33CECD33CD33DBF37B07E4
:1003820075F00A846004F6081B0AE5F0F6088FF09F
:10039200740AA4FFACF08EF0740AA42CFEACF050E8
:1003A200010C8DF0740AA42CFDE435F0F608DBDEB6
:0303B200740722AB
:1003B50002026EE86480F8E933E83360110460F006
:1003C500ED33EC337009E8FCE9FDEAFEEBFF2204AE
:1003D50060DED3EB9FEA9EE99DE8C2E78CF0C2F7A9
:1003E50095F0400CE8CCF8E9CDF9EACEFAEBCFFB75
:1003F50012023985D0F05804700320D5B3E8047093
:10040500075002B2D502027892D5EC0460F7E4CC2D
:10041500C0E0C398F8603B94186008400DD0E0FB3D
:10042500020250E4FBFAC9FC8028E830E406E4C97E
:10043500FBE4CAFCE830E305E4C9CACBFCE8540791
:100445006010F8C3E913F9EA13FAEB13FBEC13FC9C
:10045500D8F130F52FC3E49CFCEF9BFFEE9AFEED3F
:1004650099FDD0E0FBEF4E4D4C701222DB030202EA
:1004750075EC2CFCEF33FFEE33FEED33FDED30E78D
:10048500EB020250EF2BFFEE3AFEED39FDD0E0FB1B
:1004950050130BBB0003020278ED13FDEE13FEEFC4
:0804A50013FFEC13FC020250EE
:1004AD003F8000004120000042C80000447A000057
:1004BD00461C400047C35000497424004B189680D9
:1004CD004CBEBC205A0E1BCA6753C21C749DC5AED0
:1004DD00FB60065407601C232312050BEB54386098
:1004ED00091204F712050612001EECF8EDF9EEFAEA
:1004FD00EFCB22EB12050680F1543803241C900437
:10050D00ADFE93FC0EEE93FD0EEE930ECE93FF22F9
:03000000020F14D8
:0C0F1400787FE4F6D8FD758170020F5B59
:10051D00BB010689828A83E0225002E722BBFE02DC
:09052D00E32289828A83E493220F
:10053600BB010CE58229F582E5833AF583E022507A
:1005460006E92582F8E622BBFE06E92582F8E222C4
:0D055600E58229F582E5833AF583E49322DE
:10056300BB010689828A83F0225002F722BBFE0177
:02057300F32271
:10057500F8BB010DE58229F582E5833AF583E8F0BC
:10058500225006E92582C8F622BBFE05E92582C868
:02059500F22250
:0E059700C3E49FFFE49EFEE49DFDE49CFC2275
:1005A500FAE6FB0808E6F925F0F618E6CA3AF62257
:1005B500D083D082F8E4937012740193700DA3A3D5
:1005C50093F8740193F5828883E4737402936860E9
:0605D500EFA3A3A380DFE9
:1005DB00D083D082F8E4937012740193700DA3A3AF
:1005EB0093F8740193F5828883E473740293B5F0E6
:0D05FB00067403936860E9A3A3A3A380D84E
:10113400EFB40A07740D12113F740A309811A8997C
:10114400B8130CC2983098FDA899C298B811F6301B
:0711540099FDC299F59922F3
:100F200002123AE493A3F8E493A34003F68001F29B
:100F300008DFF48029E493A3F85407240CC8C333D2
:100F4000C4540F4420C8834004F456800146F6DFA1
:100F5000E4800B010204081020408090128FE47E90
:100F6000019360BCA3FF543F30E509541FFEE49396
:100F7000A360010ECF54C025E060A840B8E493A35D
:100F8000FAE493A3F8E493A3C8C582C8CAC583CA88
:100F9000F0A3C8C582C8CAC583CADFE9DEE780BE40
:011299000054
:00000001FF
