:03000000020342B6
:0C034200787FE4F6D8FD75812002038965
:1004B5001207371205188E088F09E4F50AF50BAEF9
:1004C50008AF097C007D641201C8AD077F011203E6
:1004D500CEAE08AF097C007D641201C87E007F0A9C
:1004E500CFCDCFCECCCE1201C8AD077F021203CE41
:1004F500AE08AF097C007D0A1201C87F031203CE46
:10050500050BE50B7002050AC394C8E50A94004083
:03051500AE80A015
:10056700EF24FB601414601B14602224037026E53B
:10057700A0541F4480F5A0801CE5A0541F44A0F59B
:10058700A08012E5A0541F44C0F5A08008E5A05440
:090597001F44E0F5A053A01F224F
:10073700E4F5807F051205677580FF7F0402056772
:10074700C0F9A4B0999282F880908883C6A1868E5A
:1003CE008D11EF14B40800504C9003E575F003A4A2
:1003DE00C58325F0C583730203FD020402020407E0
:1003EE0002040C02041102041602041B02042075FE
:1003FE0080018021758002801C75800480177580B5
:10040E00088012758010800D7580208008758040E0
:10041E0080037580807F06120567E511900747936C
:10042E00F5807F071205677F017E001206E9758051
:06043E00FF7F07020567C5
:100444008D0FEF14B40800504C90045B75F003A4B6
:10045400C58325F0C5837302047302047802047D06
:1004640002048202048702048C0204910204967539
:1004740080018021758002801C758004801775803E
:10048400088012758010800D75802080087580406A
:1004940080037580807F06120567850F807F0712B1
:1004A40005677F017E001206E97580FF7F0702055C
:0104B40067E0
:1006E900EF1FAC0670011E4C600A7D0C7CA9DCFE74
:0406F900DDFC80ECB8
:0106FD0022DA
:09077F00010C00010D00010E0047
:10026100E4FFD2B3D2B2D2B1D2B0D2B4D2B5D2C2FB
:10027100D2C4C2B320B4047F10801320B5047F0C14
:10028100800C20C2047F08800520C4027F04D2B301
:10029100D2B2D2B1D2B0D2B4D2B5D2C2D2C4C2B229
:1002A10020B4047F11801320B5047F0D800C20C27F
:1002B100047F09800520C4027F05D2B3D2B2D2B136
:1002C100D2B0D2B4D2B5D2C2D2C4C2B120B4047FAA
:1002D10012801320B5047F0E800C20C2047F0A8097
:1002E1000520C4027F06D2B3D2B2D2B1D2B0D2B409
:1002F100D2B5D2C2D2C4C2B020B4047F13801320BD
:10030100B5047F0F800C20C2047F0B800520C4023E
:100311007F07EFB50C0BE50DC394035009050D8064
:10032100058F0CE4F50DE50D64037012EF6008E52F
:100331000E7004750E0122EF7004F50EFF227F008E
:010341002299
:10071200E4FEC297EF1392A3EFC313FFD2970EBE6C
:0207220008F0DD
:0107240022B2
:1006FE00C29300C29700D29300120712AF051207E1
:04070E0012C293225E
:1005A000E4FDC29300C29700D29300120712E4FF49
:1005B000C297EDC313FD30A303430580D2970FBF4D
:1005C00008EEC29300C29700D29700C2A300D2A344
:0305D00000AF0574
:0105D3002205
:04068300D2A07F057D
:10068700000000000000000000000000000000AEB5
:06069700071FEE70EB22CC
:0F075700D2A1120683C2A17F05120687C2A0227B
:0C077300C2A1120683D2A17F05020687F6
:0205D400AD0771
:1005D600E4FCC2A07F05120687ED30E704D2A180B5
:1005E60002C2A17F05120687D2A0ED25E0FD7F0598
:0905F6001206870CBC08DBC2A050
:0105FF0022D9
:10066600E4FC120683ED25E0FD30A103430501C23B
:0C067600A07F051206870CBC08E8AF0549
:010682002255
:10072500120683A2A1E433FDC2A07F05120687AF9E
:0107350005BE
:0107360022A0
:1006D100C2A0EF24FF92A17F05120687120683C2F2
:0806E100A0D2A17F05020687EB
:04069D007F057E0057
:1006A100EF1FAA0670011E4A600BE4FDEDC3940C16
:0506B10050EE0D80F782
:0106B6002221
:02064800A90700
:10064A00E4FBC294E913929412069DD294E9C3136F
:0C065A00F90BBB08ED7F057E000206A135
:1006B700E4FBC294ECC313FCD2943094034304804C
:0906C70012069D0BBB08EBAF0409
:0106D0002207
:10060000C200D2947F0C7E001206A1C2947F507E5D
:10061000001206A1D2947F0A7E001206A1A2949233
:060620000012069DA2007D
:0106260022B1
:0D0766001206007FCC1206487F44020648B0
:100627001206007FCC1206487FBE1206481206B794
:100637008F101206B7EFFEE510FF7C007D10020257
:010647001D95
:0607890000007F21DFFEED
:01078F002247
:1005180075D901E4F5D8F5F9F5E9FED29012078905
:10052800C2901207890EBE08F2D2DE309107E5F9B3
:10053800C3944040F6C2DEE5F9C394404004E4FEAB
:10054800FF22AFF9EFFEADE9EDFFAC06E412010EB4
:0E0558007B047AE7798C783C1200031201478D
:010566002272
:10000300EC4D6011E8497017ED33EC3304600DE4F7
:10001300FCFFFEFD22E933E8330470F80201B3125A
:10002300017E58046009E4CC24815006285009025B
:1000330001BD2840030201BAC0E0EB4A7044B98015
:1000430006D0E0FB0201A9EF4E701CBD8008EBFF58
:10005300EAFEE9FD80EBE98DF0A4FEE5F00200EC99
:10006300E9CDF9EAFEEBFFEF89F0A4FCE5F0CE89D8
:10007300F0A42EFFE435F0CD89F0A42DFEE435F095
:100083008067EF4E7005BD80D780C3EF8BF0A4ACC3
:10009300F0EE8BF0A42CFCE435F0F8EF8AF0A42CFE
:1000A300E5F038FCE433CB8DF0A42CFCE5F03BF811
:1000B300EE8AF0A42CFCE5F038F8E433CF89F0A401
:1000C3002CFCE5F038CF3400CE89F0A42FFFE5F007
:1000D3003EFEE433C98DF0A42EFEE5F039CD8AF05F
:1000E300A42FFFE5F03EFEE43DFD33D0E0FB5007D7
:1000F3000BBB000F0201BDEC2CFCEF33FFEE33FE14
:06010300ED33FD02019541
:1001090075F020800E75F010800575F0087D007E71
:10011900007F003392D530D503120253EC334010DF
:10012900EF33FFEE33FEED33FDEC33FCD5F0ED227A
:0E013900E5F0247EA2D513CC92E7CDCEFF22B6
:10014700EDD2E7CD33EC3392D524814006E4FFFEB0
:10015700FDFC22FCE4CFCECDCC24E0501174FF800F
:10016700EDC3CC13CCCD13CDCE13CECF13CF0470AC
:07017700F030D5DE02025357
:10017E00E9D2E7C933E833F892D5EDD2E7CD33ECC7
:07018E0033FC5002B2D52240
:10019500EC30E7100FBF000C0EBE00080DBD0004CB
:1001A5000BEB6014A2D5EB13FCED92E7FD2274FF77
:1001B500FCFDFEFF22E480F8A2D574FF13FC7D80D0
:0301C500E480EFE4
:10034E000204B5E493A3F8E493A34003F68001F20C
:10035E0008DFF48029E493A3F85407240CC8C333B0
:10036E00C4540F4420C8834004F456800146F6DF7F
:10037E00E4800B010204081020408090077FE47E89
:10038E00019360BCA3FF543F30E509541FFEE49374
:10039E00A360010ECF54C025E060A840B8E493A33B
:1003AE00FAE493A3F8E493A3C8C582C8CAC583CA66
:1003BE00F0A3C8C582C8CAC583CADFE9DEE780BE1E
:010788000070
:1001C800BC000BBE0029EF8DF084FFADF022E4CC1B
:1001D800F875F008EF2FFFEE33FEEC33FCEE9DECE4
:1001E800984005FCEE9DFE0FD5F0E9E4CEFD22ED2A
:1001F800F8F5F0EE8420D21CFEADF075F008EF2F74
:10020800FFED33FD4007985006D5F0F222C398FD64
:050218000FD5F0EA2201
:10021D00C2D5EC30E709B2D5E4C39DFDE49CFCEEFC
:10022D0030E715B2D5E4C39FFFE49EFE1201C8C3AB
:10023D00E49DFDE49CFC80031201C830D507C3E4A6
:06024D009FFFE49EFE226B
:0E025300C3E49FFFE49EFEE49DFDE49CFC22BC
:00000001FF
