:0E005F0000007F057E907D47DDFEDEFCDFFAAF
:01006D002270
:08001A008F993099FDC2992273
:03002300020026B2
:10002600C0E0C0D075D000C005C006C00730981E1D
:10003600C298E59930E0117580FE12005F7580FF69
:1000460012005F3098F180067580FF3098FAD0076D
:09005600D006D005D0D0D0E03274
:10000300759850438E01438E0475D7C775D6FE434A
:070013008E10D2ACD2AF2227
:0D006E00120003C2B6C2A5C2A6D2A780FE32
:0300000002007B80
:0C007B00787FE4F6D8FD75810B02006E62
:00000001FF
