:03000000020AB53C
:0C0AB500787FE4F6D8FD758157020AFC3A
:10065A00312E4C45442020322E5541525400332E1F
:10066A004441202020575943004C45442052756E7E
:10067A0000543D202020206D73004C454420543DF9
:10068A00006D730D0A00543D00312E53656E6420CF
:10069A00322E526563760055415254205465737464
:1006AA000053656E643A20707265737320302D3979
:1006BA00004B65793A202020202000526563763A63
:1006CA002020202020202020202020002020202040
:1006DA002020202020202020202020200020202030
:1006EA00202020202020202000312E536177203224
:1006FA002E54726920332E53696E0053656C6563FC
:10070A0074205761766500463D20202020487A20D3
:10071A0055502F444E005361772057617665005437
:10072A00726920576176650053696E205761766554
:10073A0000808C99A5B1BCC7D1DAE2EAF0F5FAFDDE
:10074A00FEFFFEFDFAF5F0EAE2DAD1C7BCB1A599DF
:10075A008C8074675B4F44392F261E16100B0603D4
:10076A0002010203060B10161E262F39444F5B673F
:01077A00740A
:100EE4007580FF7F04120C40E4F5807F05020C40FE
:03002300020A27A7
:100A2700C0E0C0F0C083C082C0D075D000C000C095
:0D0A370001C002C003C004C005C006C00716
:100A440030984EC298859913E54464047043E513C5
:100A5400C39420403CE513947F5036AE41AF42E44A
:100A6400FCFD7B607AEAF9F81202D75006754A0059
:100A7400752500754100754200E54AC3941B501169
:100A8400AF4A054A74252FF8A6137425254AF8762B
:060A940000309902C29936
:100A9A00D007D006D005D004D003D002D001D000B0
:0B0AAA00D0D0D082D083D0F0D0E0325A
:100E7500759850538EBF538EFE53890F758BE6754B
:090E85008DFFC2ABD28ED2AC226B
:100E3F007C00AF03AE021201A67C007D0A1201A650
:040E4F00ED2430FF5F
:080E53008F993099FDC299222C
:0D0CE400AF24AE23120D427BFF7A06798B00
:100CF1008B098A0A890BAB09AA0AA90B12014E605A
:100D010013050BE50B7002050A14F912014EFF12CF
:050D11000E5380E222F8
:100D4200AB07AA067C037DE8120E457D64120E3FB6
:100D52007D0A120E3FAE02AF037C007D0A1201A68D
:070D6200ED2430FF020E53E7
:100EA600538E7F5389F0438901758A18758CFCC26D
:060EB6008DD28CD2A922AE
:100DAC00C3E49FFFE49EFE538E7F5389F043890179
:0D0DBC00AD07EDF58A8E8CC28DD28CD2A9C8
:010DC9002207
:100DE80012000E7BFF7A06795A7D017F01120D6988
:0D0DF8007BFF7A0679687D017F02020D699C
:1009570012000E7BFF7A0679737D017F01120D6904
:100967007BFF7A06797B7D017F02120D6975230172
:100977007524F47543FEE4F546F547F521F5228520
:1009870043807F04120C40750E03AB24AA237D031A
:100997007F02120E05120EA6D2AF7BFF7A0679846C
:1009A700120CF1120CE412087BEF6405606BEF6424
:1009B700047042D3E524940AE5239400400E74F6AC
:1009C7002524F52474FF3523F52380067523017547
:1009D70024F47BFF7A067990120CF1120CE4C2AF73
:1009E700750E03AB24AA237D037F02120E05D2AF37
:1009F700E4F546F547C3E52294F4E521940140A6C2
:100A0700E4F521F522C2AF750E03AB24AA237D03BB
:100A17007F02120E05D2AF808DC2A9C28C020EE4EE
:1002ED0012000E7BFF7A0679937D017F01120D6955
:1002FD007BFF7A0679A17D017F02120D6912087BC1
:10030D008F09E509B40505C2AFC2AC22E509B408F1
:10031D00057544038008E509B40CE2754404E54411
:10032D006403600302041912000E7BFF7A0679AB99
:10033D007D017F01120D697BFF7A0679BB7D017FFF
:0A034D0002120D69C29CD2AFD2ACBF
:10035700E4F50B12087B8F09E509640570030204B5
:1003670016E509B4080B7F31120E53750B310204E1
:1003770001E509B40C0A7F32120E53750B32807AED
:10038700E509B4100A7F33120E53750B33806BE502
:1003970009B4090A7F34120E53750B34805CE509E2
:1003A700B40D0A7F35120E53750B35804DE509B430
:1003B700110A7F36120E53750B36803EE509B40BD2
:1003C7000A7F37120E53750B37802FE509B40F0AD2
:1003D7007F38120E53750B388020E509B4130A7F56
:1003E70039120E53750B398011E509640760030252
:1003F70003577F30120E53750B307B3E7D057F020E
:0C040700120F28AB0B7D077F02120F289C
:0F041300020357D29C22E54464046003020516DD
:10042200F50BF541F542F54AF50A7425250AF8E47B
:10043200F6050AE50AB41BF212000E7BFF7A067972
:10044200C57D017F01120D697BFF7A0679D67D0198
:100452007F02120D69D29CD2AFD2ACC2C420B205C7
:10046200D2C4020514D2C4AE41AF42E4FCFD7B60AB
:100472007AEAF9F8D31202D740080542E54270023F
:100482000541AE41AF42E4FCFD7B607AEAF9F8D364
:100492001202D750C6E54A650B60C0854A0BC2AC52
:1004A2007BFF7A0679E77D067F01120D697BFF7A71
:1004B2000679D67D017F02120D69E4F50AE50AC3C9
:1004C200954A501CE50AC3940B5015E50A2406FD13
:1004D2007425250AF8E6FB7F01120F28050A80DD44
:1004E200E54AD3940B4026750A0BE50AC3954A5098
:1004F2001CE50AC3941B5015E50A24F6FD74252554
:100502000AF8E6FB7F02120F28050A80DDD2AC0250
:04051200045DC2AC16
:0105160022C2
:1005170012000E7BFF7A0679F37D017F01120D69C8
:100527007BFF7A0779057D017F02120D6912087B2F
:100537008F09E509B4050302064DE509B4080575F9
:1005470044068012E509B40C057544078008E509DF
:10055700B410DA754408754800754964E4F545F543
:1005670021F52212000E7BFF7A0779117D017F02A8
:10057700120D69E544B406087BFF7A0779208011DC
:10058700E5447BFFB407067A07792980047A07795F
:10059700327D017F01120D69750E04AB49AA487DB2
:1005A700037F02120E057F9C7E00120DACD2AF3086
:1005B7000007C200AF4B120D8C12087B8F09E509AB
:1005C7006405700302064DE50964067027C2A9C3D6
:1005D700E54994E8E5489403500B740A2549F54921
:1005E700E43548F548E549AE487806C333CE33CEFF
:1005F700D8F9802CE509640770B5C2A9D3E54994F9
:100607000AE5489400400C74F62549F54974FF350E
:1006170048F548E549AE487806C333CE33CED8F916
:10062700FBAA06E4F9F87F407E427D0FFC120237F1
:10063700120DAC750E04AB49AA487D037F02120E5A
:1006470005D2A90205B6C2A9C28CE4FF120D8C120D
:020657000EE4AF
:01065900227E
:03000B0002077B6E
:10077B00C0E0C0F0C083C082C0D075D000C000C044
:0D078B0001C002C003C004C005C006C007C5
:10079800E54464017046758A18758CFC0547E54781
:1007A800700205460522E52270020521C3E547953A
:1007B80024E54695235003020860754600754700F6
:1007C800E543B47F057543FE8008E54325E0440111
:1007D800F5438543807F04120C40807CE544C39434
:1007E800064075E544D39408506EE549AE4878064E
:1007F800C333CE33CED8F9FBAA06E4F9F87F407E9E
:10080800427D0FFC120237C3E49FFFE49EFEEFF522
:100818008A8E8C0545E545C394404003754500E53F
:1008280044B4060AE54525E025E0F5148025E544AD
:10083800B40718E545C394205004E5458005C37402
:100848003F954575F008A4F5148008E54590073BE9
:0808580093F51485144BD20046
:10086000D007D006D005D004D003D002D001D000EC
:0B087000D0D0D082D083D0F0D0E03296
:100B8B00120EE4120E75D2AF801D12087B8F08E592
:100B9B0008B40808754401120957800BE508B40C1A
:100BAB000E7544021202EDE4F544120DE880DBE50C
:100BBB0008B410D6754405120517E4F544120DE878
:020BCB0080C8E0
:060EF400C2A18F80D29222
:080EFA007F147EF7DEFEDFFC31
:010F020022CC
:0A0F1E00C2A0120EF4C292020EFAF5
:100DCA00CFCDCFCECCCE1201A67C007D0A1201A6D1
:040DDA00ED2430FFD5
:0A0DDE00D2A0120EF4C292020EFA27
:100EBC00AE07BE0104ED148006BE0209ED243F44CA
:060ECC0080FF120F1E2240
:10000E007F38120F1E7F0C120F1E7F06120F1E7FDF
:04001E0001020F1EAE
:0A0F2800AC03120EBCAF04020DDE94
:060D69008B0C8A0D890EBF
:100D6F00120EBCE4FDAB0CAA0DA90E8D827583008B
:0C0D7F00120167FF6006120DDE0D80E916
:010D8B002245
:0C0CB1007F0AEA24FFFDE434FFFC7E0013
:080CBD008E0F8F108C118D12B7
:100CC5007F017E00E4FBEBC39512E5116480F874A7
:0E0CD5008098500AAC0FAD101201940B80E80D
:010CE30022EE
:040E05008A0C8B0DBB
:100E0900120EBCAA0EEAD39400400D120CB1AC0C20
:080E1900AD0D120DCA1A80EDA7
:010E210022AE
:100BCD00120EBCC3EA64809480400B7F2B120DDEA5
:100BDD008A1A8B1B800E7F2D120DDEC3E49BF51B35
:100BED00E49AF51AAA19EAD39400400D120CB1AC8F
:090BFD001AAD1B120DCA1A80ED9D
:010C060022CB
:040C07008A4E8B4F37
:100C0B00120EBCAA50EAD3940040297F10120CB3E9
:100C1B00AC4EAD4FCFCDCFCECCCE1201A6EF540FF5
:100C2B00FEC3940AEE5004243080022437FF120DC9
:040C3B00DE1A80D16C
:010C3F002292
:040C79008A538B54BB
:100C7D00120EBCAA55EAD394004028EA24FFFDE4E5
:100C8D0034FFFC7F027E00120CBDAC53AD54CFCDB2
:100C9D00CFCECCCE1201A6EF54012430FF120DDEC3
:030CAD001A80D2D8
:010CB0002221
:020B41008F1C07
:100B4300120F037F90120D16120ED2AF1C120D1648
:100B5300120ED2120F12120F037F91120D16120EE4
:100B6300D2120E228F1DE4FF120E8E120E228F1E42
:100B73007F01120E8E120F12AC1EE41200D0E4FBA2
:080B8300FA794C7842020029C6
:100D8C008F0A120F037F90120D16120ED27F401293
:100D9C000D16120ED2AF0A120D16120ED2020F122F
:040E5B00D2A07F059D
:100E5F00000000000000000000000000000000AED5
:060E6F00071FEE70EB22EC
:0F0F0300D2A1120E5BC2A17F05120E5FC2A02207
:0C0F1200C2A1120E5BD2A17F05020E5F8F
:020D1600AD0727
:100D1800E4FCC2A07F05120E5FED30E704D2A1808B
:100D280002C2A17F05120E5FD2A0ED25E0FD7F056E
:090D3800120E5F0CBC08DBC2A026
:010D4100228F
:100E2200E4FC120E5BED25E0FD30A103430501C297
:0C0E3200A07F05120E5F0CBC08E8AF05A5
:010E3E002291
:100ED200120E5BA2A1E433FDC2A07F05120E5FAF2A
:010EE200050A
:010EE30022EC
:100E8E00C2A0EF24FF92A17F05120E5F120E5BC26D
:080E9E00A0D2A17F05020E5F46
:080F3200C10101560001570046
:10087B00E4FFD2B3D2B2D2B1D2B0D2B4D2B5D2C2DB
:10088B00D2C4C2B420B3047F10801320B2047F11F2
:10089B00800C20B1047F12800520B0027F13D2B3ED
:1008AB00D2B2D2B1D2B0D2B4D2B5D2C2D2C4C2B506
:1008BB0020B3047F0C801320B2047F0D800C20B179
:1008CB00047F0E800520B0027F0FD2B3D2B2D2B11B
:1008DB00D2B0D2B4D2B5D2C2D2C4C2C220B3047F7A
:1008EB0008801320B2047F09800C20B1047F0A809A
:1008FB000520B0027F0BD2B3D2B2D2B1D2B0D2B4F8
:10090B00D2B5D2C2D2C4C2C420B3047F0480132098
:10091B00B2047F05800C20B1047F06800520B00255
:10092B007F07EFB5560BE557C39403500905578066
:10093B0005E4F5578F56E557B4030E200106EF601B
:0B094B0003D20122EF7002C2017F0006
:01095600227E
:100C4000EF24FB601414601B14602224037026E55B
:100C5000A0541F4480F5A0801CE5A0541F44A0F5BB
:100C6000A08012E5A0541F44C0F5A08008E5A05460
:090C70001F44E0F5A053A01F226F
:10002600020143EC5D046005E859047003020139DE
:10003600120104580460F6EC4860F2EC7004FDFE10
:10004600FF22C860DB2481C85009C39860025006AD
:100056000201409850CAF582E9294B4A7005AB82E5
:1000660002012F75F0007C1A7880C3EF9BEE9AEDA3
:1000760099400DC3EF9BFFEE9AFEED99FDE842F025
:10008600DC23ACF0D0E0FFD0E0FED0E0FDAB822078
:10009600E7101BEB60BAEC2CFCEF33FFEE33FEED02
:1000A60033FD02011BE803F830E705C0F075F000E8
:1000B600EF2FFFEE33FEED33FD40B830E7C280AAE6
:1000C60075F020800E75F010800575F0087D007EB5
:1000D600007F003392D530D5031202C9EC334010AD
:1000E600EF33FFEE33FEED33FDEC33FCD5F0ED22BE
:0E00F600E5F0247EA2D513CC92E7CDCEFF22FA
:10010400E9D2E7C933E833F892D5EDD2E7CD33EC41
:0701140033FC5002B2D522BA
:10011B00EC30E7100FBF000C0EBE00080DBD000445
:10012B000BEB6014A2D5EB13FCED92E7FD2274FFF1
:10013B00FCFDFEFF22E480F8A2D574FF13FC7D804A
:03014B00E480EF5E
:100AC100020B8BE493A3F8E493A34003F68001F2B5
:100AD10008DFF48029E493A3F85407240CC8C33336
:100AE100C4540F4420C8834004F456800146F6DF05
:100AF100E4800B0102040810204080900F32E47E54
:100B0100019360BCA3FF543F30E509541FFEE493F9
:100B1100A360010ECF54C025E060A840B8E493A3C0
:100B2100FAE493A3F8E493A3C8C582C8CAC583CAEB
:100B3100F0A3C8C582C8CAC583CADFE9DEE780BEA3
:010F3A0000B6
:10014E00BB010689828A83E0225002E722BBFE02AF
:09015E00E32289828A83E49322E2
:10016700BB010CE58229F582E5833AF583E022504D
:1001770006E92582F8E622BBFE06E92582F8E22297
:0D018700E58229F582E5833AF583E49322B1
:10019400EF8DF0A4A8F0CF8CF0A428CE8DF0A42E7F
:0201A400FE2239
:1001A600BC000BBE0029EF8DF084FFADF022E4CC3D
:1001B600F875F008EF2FFFEE33FEEC33FCEE9DEC06
:1001C600984005FCEE9DFE0FD5F0E9E4CEFD22ED4C
:1001D600F8F5F0EE8420D21CFEADF075F008EF2F96
:1001E600FFED33FD4007985006D5F0F222C398FD87
:0501F6000FD5F0EA2224
:1001FB0075F008758200EF2FFFEE33FECD33CDCCBB
:10020B0033CCC58233C5829BED9AEC99E58298403D
:10021B000CF582EE9BFEED9AFDEC99FC0FD5F0D61A
:10022B00E4CEFBE4CDFAE4CCF9A88222B800C1B944
:10023B000059BA002DEC8BF084CFCECDFCE5F0CB82
:10024B00F97818EF2FFFEE33FEED33FDEC33FCEBBB
:10025B0033FB10D703994004EB99FB0FD8E5E4F976
:10026B00FA227818EF2FFFEE33FEED33FDEC33FC63
:10027B00C933C910D7059BE99A4007EC9BFCE99A57
:10028B00F90FD8E0E4C9FAE4CCFB2275F010EF2F9C
:10029B00FFEE33FEED33FDCC33CCC833C810D7079C
:1002AB009BEC9AE899400AED9BFDEC9AFCE899F8D7
:0E02BB000FD5F0DAE4CDFBE4CCFAE4C8F9226A
:0E02C900C3E49FFFE49EFEE49DFDE49CFC2246
:1002D700EB9FF5F0EA9E42F0E99D42F0EC6480C89E
:0602E70064809845F0223E
:00000001FF
