:03000000020A8D64
:0C0A8D00787FE4F6D8FD758163020AD47E
:10061B00312E4C45442020322E5541525400332E5E
:10062B0044412020204E616D6520204944004C45FB
:10063B00442052756E00543D202020206D73004CD9
:10064B00454420543D006D730D0A00543D00312E7E
:10065B0053656E6420322E526563760055415254B9
:10066B0020546573740053656E643A207072657321
:10067B007320302D39004B65793A20202020200043
:10068B00526563763A202020202020202020202035
:10069B00002020202020202020202020202020206F
:1006AB002000202020202020202020202000312E60
:1006BB0053617720322E54726920332E53696E00AA
:1006CB0053656C656374205761766500463D202049
:1006DB002020487A2055502F444E005361772057E5
:1006EB006176650054726920576176650053696EB7
:1006FB00205761766500808C99A5B1BCC7D1DAE231
:10070B00EAF0F5FAFDFEFFFEFDFAF5F0EAE2DAD1CA
:10071B00C7BCB1A5998C8074675B4F44392F261EDB
:10072B0016100B060302010203060B10161E262FD2
:06073B0039444F5B6774B6
:100F39007580FF7F04120C95E4F5807F05020C95FE
:030023000209DFF0
:1009DF00C0E0C0F0C083C082C0D075D000C000C0DE
:0D09EF0001C002C003C004C005C006C0075F
:1009FC0030986EC298859958E54364047063E55845
:100A0C00C39420405CE558947F5056AE40AF41E40F
:100A1C00FCFD7B607AEAF9F81202D75006754900A2
:100A2C00752400754000754100E549C3941B5013B3
:100A3C00AF49054974242FF8A65874242549F87633
:030A4C0000801E09
:100A4F0075590074252559F8E6FF74242559F8A621
:0E0A5F00070559E559B41AEB85583E753F005E
:050A6D00309902C2995E
:100A7200D007D006D005D004D003D002D001D000D8
:0B0A8200D0D0D082D083D0F0D0E03282
:100ECA00759850538EBF538EFE53890F758BE675F6
:090EDA008DFFC2ABD28ED2AC2216
:100E94007C00AF03AE021201A67C007D0A1201A6FB
:040EA400ED2430FF0A
:080EA8008F993099FDC29922D7
:0D0D3900AF23AE22120D977BFF7A06795191
:100D46008B5B8A5C895DAB5BAA5CA95D12014E6018
:100D560013055DE55D7002055C14F912014EFF1284
:050D66000EA880E2224E
:100D9700AB07AA067C037DE8120E9A7D64120E94B7
:100DA7007D0A120E94AE02AF037C007D0A1201A6E3
:070DB700ED2430FF020EA83D
:100EFB00538E7F5389F0438901758A18758CFCC218
:060F0B008DD28CD2A92258
:100E0100C3E49FFFE49EFE538E7F5389F043890123
:0D0E1100AD07EDF58A8E8CC28DD28CD2A972
:010E1E0022B1
:100E3D0012000E7BFF7A06791B7D017F01120DBE1C
:0D0E4D007BFF7A0679297D017F02020DBE30
:1009150012000E7BFF7A0679397D017F01120DBE2B
:100925007BFF7A0679417D017F02120DBE7522019A
:100935007523F47542FEE4F545F546F521854280BB
:100945007F04120C95755F03AB23AA227D037F02FA
:10095500120E5A120EFBD288D2A8D2AF7BFF7A06AE
:10096500794A120D46120D39120839EF6405606196
:10097500EF6404703ED3E523940AE5229400400E0B
:1009850074F62523F52374FF3522F522800675229A
:10099500017523F47BFF7A067956120D46120D393F
:1009A500755F03AB23AA227D037F02120E5AE4F57D
:1009B50045F546C3E52194F47480948140AAE4F595
:1009C50021755F03AB23AA227D037F02120E5A8095
:0A09D50097C2A9C28CC2A8020F3914
:1002ED0012000E7BFF7A0679597D017F01120DBE3A
:1002FD007BFF7A0679677D017F02120DBE120839E8
:10030D008F4CE54CB40505C2AFC2AC22E54CB40828
:10031D00057543038008E54CB40CE2754304E543D1
:10032D00640360030203DC12000E7BFF7A06797111
:10033D007D017F01120DBE7BFF7A0679817D017FE4
:10034D0002120DBEC29CD2AFD2AC1208398F4CE551
:10035D004C64056077E54CB408047F318050E54C62
:10036D00B40C047F328047E54CB410047F33803EDB
:10037D00E54CB409047F348035E54CB40D047F356C
:10038D00802CE54CB411047F368023E54CB40B046E
:10039D007F37801AE54CB40F047F388011E54CB4DB
:1003AD0013047F398008E54C6406709E7F30120E71
:1003BD00A87B3E7D057F02120F7DE54CFB7A007513
:1003CD005F027D077F02120E5A020357D29C22E56F
:0803DD0043640460030204D92B
:1003E500F54EF540F541F549F54D7424254DF8E4F4
:1003F500F6054DE54DB41BF212000E7BFF7A06792A
:100405008B7D017F01120DBE7BFF7A06799C7D01F4
:100415007F02120DBED29CD2AFD2ACC2C420B205AF
:10042500D2C40204D7D2C4AE40AF41E4FCFD7B6028
:100435007AEAF9F8D31202D740080541E54170027E
:100445000540AE40AF41E4FCFD7B607AEAF9F8D3A4
:100455001202D750C6E549654E60C085494EC2AC0B
:100465007BFF7A0679AD7D067F01120DBE7BFF7A93
:1004750006799C7D017F02120DBEE4F54DE54DC365
:100485009549501CE54DC3940B5015E54D2406FDCB
:100495007424254DF8E6FB7F01120F7D054D80DDA7
:1004A500E549D3940B4026754D0BE54DC395495051
:1004B5001CE54DC3941B5015E54D24F6FD7424250C
:1004C5004DF8E6FB7F02120F7D054D80DDD2AC02B3
:0404D5000420C2AC91
:0104D9002200
:1004DA0012000E7BFF7A0679B97D017F01120DBEEB
:1004EA007BFF7A0679CB7D017F02120DBE12083995
:1004FA008F4CE54CB4050302060EE54CB4080575AD
:10050A0043068012E54CB40C057543078008E54C98
:10051A00B410DA754308754700754864E4F544F584
:10052A002112000E7BFF7A0679D77D017F02120D18
:10053A00BEE543B406087BFF7A0679E68011E543F7
:10054A007BFFB407067A0679EF80047A0679F87D8C
:10055A00017F01120DBE755F04AB48AA477D037F78
:10056A0002120E5A7F9C7E00120E01D2AF30000793
:10057A00C200AF4A120DE11208398F4CE54C6405EE
:10058A00700302060EE54C64067027C2A9C3E5484B
:10059A0094E8E5479403500B740A2548F548E43576
:1005AA0047F547E548AE477806C333CE33CED8F988
:1005BA00802CE54C640770B5C2A9D3E548940AE5D6
:1005CA00479400400C74F62548F54874FF3547F502
:1005DA0047E548AE477806C333CE33CED8F9FBAAEF
:1005EA0006E4F9F87F407E427D0FFC120237120EB4
:1005FA0001755F04AB48AA477D037F02120E5AD2E7
:10060A00A9020577C2A9C28CE4FF120DE1120F39C3
:01061A0022BD
:03000B00020741A8
:10074100C0E0C0F0C083C082C0D075D000C000C07E
:0D07510001C002C003C004C005C006C007FF
:10075E00E5436401703E758A18758CFC0546E546C6
:10076E00700205450521C39523E5459522500302E8
:10077E00081E754500754600E542B47F057542FEBC
:10078E008008E54225E04401F5428542807F04124F
:10079E000C95807CE543C394064075E543D39408DD
:1007AE00506EE548AE477806C333CE33CED8F9FB4C
:1007BE00AA06E4F9F87F407E427D0FFC120237C391
:1007CE00E49FFFE49EFEEFF58A8E8C0544E544C35C
:1007DE0094404003754400E543B4060AE54425E021
:1007EE0025E0F55A8025E543B40718E544C3942067
:1007FE005004E5448005C3743F954475F008A4F594
:10080E005A8008E54490070193F55A855A4AD2005A
:10081E00D007D006D005D004D003D002D001D0002E
:0B082E00D0D0D082D083D0F0D0E032D8
:03000300020B19D4
:100B1900C0E0C0F0C083C082C0D075D000C000C0A2
:100B290001C002C003C004C005C006C007E5436494
:100B390001703FD3E523940AE5229400400E74F630
:100B49002523F52374FF3522F522800675220175C8
:100B590023F47BFF7A067956120D46120D39755F1B
:100B690003AB23AA227D037F02120E5A7545007535
:100B79004600D007D006D005D004D003D002D0015A
:0D0B8900D000D0D0D082D083D0F0D0E032A8
:100BE000120F39120ECAD2AF801D1208398F4BE591
:100BF0004BB40808754301120915800BE54BB40C82
:100C00000E7543021202EDE4F543120E3D80DBE562
:100C10004BB410D67543051204DAE4F543120E3DC9
:020C200080C88A
:060F4900C2A18F80D292CC
:080F4F007F147EF7DEFEDFFCDB
:010F57002277
:0A0F7300C2A0120F49C292020F4FF4
:100E1F00CFCDCFCECCCE1201A67C007D0A1201A67B
:040E2F00ED2430FF7F
:0A0E3300D2A0120F49C292020F4F25
:100F1100AE07BE0104ED148006BE0209ED243F4474
:060F210080FF120F732295
:10000E007F38120F737F0C120F737F06120F737FE0
:04001E0001020F7359
:0A0F7D00AC03120F11AF04020E3393
:060DBE008B4F8A508951A1
:100DC400120F11E4FDAB4FAA50A9518D8275830017
:0C0DD400120167FF6006120E330D80E96B
:010DE00022F0
:0C0D06007F0AEA24FFFDE434FFFC7E00BD
:080D12008E608F618C628D631D
:100D1A007F017E00E4FBEBC39563E5626480F874AF
:0E0D2A008098500AAC60AD611201940B80E815
:010D38002298
:040E5A008A5D8B5EC4
:100E5E00120F11AA5FEAD39400400D120D06AC5D7D
:080E6E00AD5E120E1F1A80EDAB
:010E76002259
:100C2200120F11C3EA64809480400B7F2B120E33A3
:100C32008A0D8B0E800E7F2D120E33C3E49BF50EB0
:100C4200E49AF50DAA0CEAD39400400D120D06ACFD
:090C52000DAD0E120E1F1A80ED0B
:010C5B002276
:040C5C008A118B125C
:100C6000120F11AA13EAD3940040297F10120D0825
:100C7000AC11AD12CFCDCFCECCCE1201A6EF540F1A
:100C8000FEC3940AEE5004243080022437FF120E73
:040C9000331A80D1C2
:010C9400223D
:040CCE008A168B17E0
:100CD200120F11AA18EAD394004028EA24FFFDE477
:100CE20034FFFC7F027E00120D12AC16AD17CFCD81
:100CF200CFCECCCE1201A6EF54012430FF120E3318
:030D02001A80D282
:010D050022CB
:020B96008F19B5
:100B9800120F587F90120D6B120F27AF19120D6BA1
:100BA800120F27120F67120F587F91120D6B120F39
:100BB80027120E778F1AE4FF120EE3120E778F1B9F
:100BC8007F01120EE3120F67AC1BE41200D0E4FBA6
:080BD800FA794C784202002971
:100DE1008F4D120F587F90120D6B120F277F4012FB
:100DF1000D6B120F27AF4D120D6B120F27020F67EC
:040EB000D2A07F0548
:100EB400000000000000000000000000000000AE80
:060EC400071FEE70EB2297
:0F0F5800D2A1120EB0C2A17F05120EB4C2A02208
:0C0F6700C2A1120EB0D2A17F05020EB490
:020D6B00AD07D2
:100D6D00E4FCC2A07F05120EB4ED30E704D2A180E1
:100D7D0002C2A17F05120EB4D2A0ED25E0FD7F05C4
:090D8D00120EB40CBC08DBC2A07C
:010D9600223A
:100E7700E4FC120EB0ED25E0FD30A103430501C2ED
:0C0E8700A07F05120EB40CBC08E8AF05FB
:010E9300223C
:100F2700120EB0A2A1E433FDC2A07F05120EB4AF2A
:010F370005B4
:010F38002296
:100EE300C2A0EF24FF92A17F05120EB4120EB0C26E
:080EF300A0D2A17F05020EB49C
:080F8700C101011C00011D0065
:10083900E4FFD2B3D2B2D2B1D2B0D2B4D2B5D2C21D
:10084900D2C4C2B420B3047F10801320B2047F1134
:10085900800C20B1047F12800520B0027F13D2B32F
:10086900D2B2D2B1D2B0D2B4D2B5D2C2D2C4C2B548
:1008790020B3047F0C801320B2047F0D800C20B1BB
:10088900047F0E800520B0027F0FD2B3D2B2D2B15D
:10089900D2B0D2B4D2B5D2C2D2C4C2C220B3047FBC
:1008A90008801320B2047F09800C20B1047F0A80DC
:1008B9000520B0027F0BD2B3D2B2D2B1D2B0D2B43A
:1008C900D2B5D2C2D2C4C2C420B3047F04801320DB
:1008D900B2047F05800C20B1047F06800520B00298
:1008E9007F07EFB51C0BE51DC394035009051D8057
:1008F90005E4F51D8F1CE51DB4030E200106EF600C
:0B09090003D20122EF7002C2017F0048
:0109140022C0
:100C9500EF24FB601414601B14602224037026E506
:100CA500A0541F4480F5A0801CE5A0541F44A0F566
:100CB500A08012E5A0541F44C0F5A08008E5A0540B
:090CC5001F44E0F5A053A01F221A
:10002600020143EC5D046005E859047003020139DE
:10003600120104580460F6EC4860F2EC7004FDFE10
:10004600FF22C860DB2481C85009C39860025006AD
:100056000201409850CAF582E9294B4A7005AB82E5
:1000660002012F75F0007C1A7880C3EF9BEE9AEDA3
:1000760099400DC3EF9BFFEE9AFEED99FDE842F025
:10008600DC23ACF0D0E0FFD0E0FED0E0FDAB822078
:10009600E7101BEB60BAEC2CFCEF33FFEE33FEED02
:1000A60033FD02011BE803F830E705C0F075F000E8
:1000B600EF2FFFEE33FEED33FD40B830E7C280AAE6
:1000C60075F020800E75F010800575F0087D007EB5
:1000D600007F003392D530D5031202C9EC334010AD
:1000E600EF33FFEE33FEED33FDEC33FCD5F0ED22BE
:0E00F600E5F0247EA2D513CC92E7CDCEFF22FA
:10010400E9D2E7C933E833F892D5EDD2E7CD33EC41
:0701140033FC5002B2D522BA
:10011B00EC30E7100FBF000C0EBE00080DBD000445
:10012B000BEB6014A2D5EB13FCED92E7FD2274FFF1
:10013B00FCFDFEFF22E480F8A2D574FF13FC7D804A
:03014B00E480EF5E
:100A9900020BE0E493A3F8E493A34003F68001F288
:100AA90008DFF48029E493A3F85407240CC8C3335E
:100AB900C4540F4420C8834004F456800146F6DF2D
:100AC900E4800B0102040810204080900F87E47E27
:100AD900019360BCA3FF543F30E509541FFEE49322
:100AE900A360010ECF54C025E060A840B8E493A3E9
:100AF900FAE493A3F8E493A3C8C582C8CAC583CA14
:100B0900F0A3C8C582C8CAC583CADFE9DEE780BECB
:010F8F000061
:10014E00BB010689828A83E0225002E722BBFE02AF
:09015E00E32289828A83E49322E2
:10016700BB010CE58229F582E5833AF583E022504D
:1001770006E92582F8E622BBFE06E92582F8E22297
:0D018700E58229F582E5833AF583E49322B1
:10019400EF8DF0A4A8F0CF8CF0A428CE8DF0A42E7F
:0201A400FE2239
:1001A600BC000BBE0029EF8DF084FFADF022E4CC3D
:1001B600F875F008EF2FFFEE33FEEC33FCEE9DEC06
:1001C600984005FCEE9DFE0FD5F0E9E4CEFD22ED4C
:1001D600F8F5F0EE8420D21CFEADF075F008EF2F96
:1001E600FFED33FD4007985006D5F0F222C398FD87
:0501F6000FD5F0EA2224
:1001FB0075F008758200EF2FFFEE33FECD33CDCCBB
:10020B0033CCC58233C5829BED9AEC99E58298403D
:10021B000CF582EE9BFEED9AFDEC99FC0FD5F0D61A
:10022B00E4CEFBE4CDFAE4CCF9A88222B800C1B944
:10023B000059BA002DEC8BF084CFCECDFCE5F0CB82
:10024B00F97818EF2FFFEE33FEED33FDEC33FCEBBB
:10025B0033FB10D703994004EB99FB0FD8E5E4F976
:10026B00FA227818EF2FFFEE33FEED33FDEC33FC63
:10027B00C933C910D7059BE99A4007EC9BFCE99A57
:10028B00F90FD8E0E4C9FAE4CCFB2275F010EF2F9C
:10029B00FFEE33FEED33FDCC33CCC833C810D7079C
:1002AB009BEC9AE899400AED9BFDEC9AFCE899F8D7
:0E02BB000FD5F0DAE4CDFBE4CCFAE4C8F9226A
:0E02C900C3E49FFFE49EFEE49DFDE49CFC2246
:1002D700EB9FF5F0EA9E42F0E99D42F0EC6480C89E
:0602E70064809845F0223E
:00000001FF
