:100C7000012600012800022F001E0234000002237A
:100C8000000001270001250101331E01311E012D45
:100C90000102290000C101C104C103012C00012B84
:100CA00000012E00013201C102023A0000022100BF
:0B0CB0000002360000C1000238000006
:0D10F2008F80E5A0541F4DF5A053A01F22D4
:08000300EFF4FF7D800210F212
:051130007DA00210F299
:10107600538E7F5389F0438901758A18758CFCC29B
:081086008DD2A9D2AFD28C2259
:03000B00020E4F93
:100E4F00C0E0C0D0758A18758CFC053BE53B70027D
:100E5F00053AD3E5229400E52194004008E52215D8
:100E6F002270021521D3E5379400E536940040082F
:0D0E7F00E537153770021536D0D0D0E032BF
:100DC8007D0C7F01120891AE2FAF307C007D64123C
:100DD800036B7E007F0ACFCDCFCECCCE12036BAD96
:100DE800077F02120891AE2FAF307C007D0A1203F4
:100DF8006B7F031208917DC87F07120957AD257FC5
:040E08000802089143
:100D31007DC77F01120957AD2D7F02120891AE3494
:100D4100AF357C007D6412036BAD077F06120891FD
:100D5100AE34AF357C007D6412036B7E007F0ACF19
:100D6100CDCFCECCCE12036BAD077F07120891AE6B
:0F0D710034AF357C007D0A12036B7F08020891B6
:100E0C007D8C7F01120957E52870177D0C7F02122B
:100E1C000891E53375F00A84FD7F07120891E533DC
:100E2C0080157DC77F02120957E53175F00A84FDE4
:100E3C007F07120891E53175F00A84ADF07F081236
:030E4C00089122E8
:100AC0007DC87F011209577D0C7F0212089185298C
:100AD00046852A47C3E54794E8E54694034019AEA6
:100AE00046AF477C037DE812036B7C007D0A12034E
:100AF0006B7F0512089180077DFF7F05120957C3A0
:100B0000E5479464E54694004019AE46AF477C0043
:100B10007D6412036B7C007D0A12036B7F06120852
:100B20009180077DFF7F06120957C3E547940AE5C8
:100B30004694004019AE46AF477C007D0A12036B15
:100B40007C007D0A12036B7F0712089180077DFFEE
:100B50007F07120957AE46AF477C007D0A12036B30
:050B60007F080208916E
:1010A600120F43E4FBFAF9783F1200151202EA8E9A
:0610B6002F8F300210FF35
:100EBF007F41120E8C8F27E527C394994004752527
:100ECF000122E527C39466400475250222E527C356
:0C0EDF0094194004752503227525042297
:09111800120D807534008F3522A0
:100EEB00D3E5359400E5349400400EE5359531E5B6
:100EFB003494005004D2018002C201D3E530953303
:0C0F0B00E52F94004003D20422C204220F
:100CD700C3E5359524E5349523400CE5359524FD8A
:100CE700E5349523FC800BC3E5249535FDE5239575
:100CF70034FCE522452160028029C3ED9405EC947C
:100D07000050047F01800FC3ED940AEC9400500457
:100D17007F0280027F03EF652D60088F2D75210FFD
:090D27007522A0853423853524D2
:010D300022A0
:100A1800E4FEFC30032BAE2EE532B402028015E56D
:100A280032B40313E53745367007F536753764B2C7
:100A380000300003430680AF06120003AF2B0211FB
:100A480030300121E525B401054306018017E5256D
:100A5800B40205430603800DE525B40305430607E4
:100A6800800343060FE52DB402028015E52DB4037B
:100A780013E53745367007F536753764B200300030
:100A880003430680300106300403430420EC30E5BC
:100A980003D38001C3920530050B200208052AE51F
:100AA8002A70020529A2059202AF06120003AF04BC
:070AB8001211308E2C8C2B73
:010ABF002214
:1007C700D2C4D2C2D2B5D2B4D2B0D2B1D2B2D2B3DD
:1007D700C2C420B005BF0702D32220B105BF06025D
:1007E700D32220B205BF0502D32220B305BF0402DE
:1007F700D322D2C4D2C2D2B5D2B4D2B0D2B1D2B23D
:10080700D2B3C2C220B005BF0B02D32220B105BFAD
:100817000A02D32220B205BF0902D32220B305BFA3
:100827000802D322D2C4D2C2D2B5D2B4D2B0D2B186
:10083700D2B2D2B3C2B520B005BF0F02D32220B1C6
:1008470005BF0E02D32220B205BF0D02D32220B36B
:1008570005BF0C02D322D2C4D2C2D2B5D2B4D2B011
:10086700D2B1D2B2D2B3C2B420B005BF1302D322E1
:1008770020B105BF1202D32220B205BF1102D32235
:0A08870020B305BF1002D322C322E4
:100BF1001206E3EF6078BF04230526E526C39404BB
:100C01004003E4F526E526B40210E4F528D203E515
:100C11002C547FF52E852D328002C203E526640215
:100C2100704CBF050C0528E528C394024003E4F588
:100C310028BF081CE528700BE533C39450501105FB
:100C410033800DE531D3944B500674052531F531D0
:100C5100BF091BE528700AE533D3941440101533FE
:0E0C610022E531C39419400674FB2531F531AC
:010C6F002262
:10058B00E4F53CF53DF53EF53FF540F541F542F51B
:10059B0043F544F545120FD3121076E4F526F528F2
:1005AB0075331E75311EF529F52A752D01C203FF12
:1005BB00120003E4FF1211301210FF7FEE7E0212C5
:1005CB0010BC1210A6120EBF1211188534238535DC
:1005DB0024E5267005120DC88017E526B401051217
:1005EB000D31800DE526B40205120E0C8003120AA4
:1005FB00C0C3E53B953DFFE53A953CFEC3EF940A3E
:10060B00EE94004009853A3C853B3D120BF1C3E566
:10061B003B953FFFE53A953EFEC3EF94E8EE94031E
:10062B004009853A3E853B3F1210A6C3E53B9541F9
:10063B00FFE53A9540FEC3EF9464EE9400400985C4
:10064B003A40853B41120EBFC3E53B9543FFE53A6C
:10065B009542FEC3EF94C8EE94004009853A42855B
:10066B003B43121118C3E53B9545FFE53A9544FE14
:10067B00C3EF94E8EE94034009853A44853B451259
:10068B000CD7120EEB120A18E526640370427F0892
:10069B001207C750330F1207C7502DE53945387075
:1006AB0009853A38853B390205DCC3E53B9539FFB3
:1006BB00E53A9538FEC3EF94D0EE9407500302054C
:1006CB00DCE4F529F52A8001E4F538F5390205DC7F
:0806DB00E4F538F5390205DCF5
:100CBB001008C0F9A4B0999282F880908883C6A1DD
:020CCB00868E13
:10089100EF14B40F0040030209219008A975F00379
:1008A100A4C58325F0C583730208D60208DB0208BC
:1008B100E00208E50208EA0208EF0208F40208F97A
:1008C1000208FE02090302090802090D02091202C7
:1008D100091702091C7580018049758002804475E1
:1008E1008004803F758008803A758010803575805E
:1008F100208030758040802B7580808026758090A7
:100901008021758088801C75808380177580C680E2
:10091100127580A1800D758086800875808E800398
:100921007580FFE5A0541F44C0F5A053A01F7408B3
:100931002DF8E6F580E5A0541F44E0F5A053A01F73
:100941007F027E001210BC7580FFE5A0541F44E0B9
:06095100F5A053A01F22D7
:10095700EF14B40F0040030209E790096F75F00325
:10096700A4C58325F0C5837302099C0209A1020966
:10097700A60209AB0209B00209B50209BA0209BF0A
:100987000209C40209C90209CE0209D30209D80221
:1009970009DD0209E275800180497580028044758E
:1009A7008004803F758008803A7580108035758097
:1009B700208030758040802B7580808026758090E0
:1009C7008021758088801C75808380177580C6801C
:1009D700127580A1800D758086800875808E8003D2
:1009E7007580FFE5A0541F44C0F5A053A01F8D805C
:1009F700E5A0541F44E0F5A053A01F7F027E00121C
:100A070010BC7580FFE5A0541F44E0F5A053A01F5C
:010A170022BC
:1010BC00EF1FAC0670011E4C600A7D0C7CA9DCFE97
:0410CC00DDFC80ECDB
:0110D00022FD
:100FD3007580FFE5A0541F4480F5A053A01FE4F5DE
:0D0FE30080E5A0541F44A0F5A053A01F22DC
:0D10FF00120F6E7FCC120FB57F44020FB5AB
:100F4300120F6E7FCC120FB57FBE120FB512105C5D
:100F53008F4612105CEFFEE546FFFDAC06EC120275
:0B0F6300B1E4FBFA7980784102020F34
:081121008F993099FDC299225B
:10100D00759850438E40538EFE53890F758B8F7597
:0B101D008DFDC2ABD28ED2ACD2AF2250
:1003CE00E4F51BD2C4D2C2D2B5D2B4D2B0D2B1D21D
:1003DE00B2D2B3C2C420B0137F14FE1210BC30B020
:1003EE00FD7F147E001210BC751B0720B1147F1404
:1003FE007E001210BC30B1FD7F147E001210BC7551
:10040E001B0620B2147F147E001210BC30B2FD7F8A
:10041E00147E001210BC751B0520B3147F147E00D1
:10042E001210BC30B3FD7F147E001210BC751B047D
:10043E00D2C4D2C2D2B5D2B4D2B0D2B1D2B2D2B369
:10044E00C2C220B0147F147E001210BC30B0FD7FEB
:10045E00147E001210BC751B0B20B1147F147E008D
:10046E001210BC30B1FD7F147E001210BC751B0A39
:10047E0020B2147F147E001210BC30B2FD7F147EA9
:10048E00001210BC751B0920B3147F147E001210CD
:10049E00BC30B3FD7F147E001210BC751B08D2C495
:1004AE00D2C2D2B5D2B4D2B0D2B1D2B2D2B3C2B518
:1004BE0020B0147F147E001210BC30B0FD7F147E6D
:1004CE00001210BC751B0F20B1147F147E00121089
:1004DE00BC30B1FD7F147E001210BC751B0E20B215
:1004EE00147F147E001210BC30B2FD7F147E0012F9
:1004FE0010BC751B0D20B3147F147E001210BC307F
:10050E00B3FD7F147E001210BC751B0CD2C4D2C278
:10051E00D2B5D2B4D2B0D2B1D2B2D2B3C2B420B06C
:10052E00147F147E001210BC30B0FD7F147E0012BA
:10053E0010BC751B1320B1147F147E001210BC303A
:10054E00B1FD7F147E001210BC751B1220B2147FF9
:10055E00147E001210BC30B2FD7F147E001210BC4F
:10056E00751B1120B3147F147E001210BC30B3FD26
:0C057E007F147E001210BC751B10AF1B18
:01058A00224E
:04102800D2A07F05CE
:10102C00000000000000000000000000000000AE06
:06103C00071FEE70EB221D
:0F10E300D2A1121028C2A17F0512102CC2A02288
:0C110C00C2A1121028D2A17F0502102CF5
:020F1700AD0724
:100F1900E4FCC2A07F0512102CED30E704D2A180B9
:100F290002C2A17F0512102CD2A0ED25E0FD7F059C
:090F390012102C0CBC08DBC2A054
:010F4200228C
:100FF000E4FC121028ED25E0FD30A103430501C2F9
:0C100000A07F0512102C0CBC08E8AF0506
:01100C0022C1
:1010D100121028A2A1E433FDC2A07F0512102CAF8B
:0110E1000509
:0110E20022EB
:10108E00C2A0EF24FF92A17F0512102C121028C2CD
:08109E00A0D2A17F0502102C75
:041042007F057E00A8
:10104600EF1FAA0670011E4A600BE4FDEDC3940C67
:0510560050EE0D80F7D3
:01105B002272
:020FB500A9078A
:100FB700E4FBC294E9139294121042D294E9C3134A
:0C0FC700F90BBB08ED7F057E0002104610
:10105C00E4FBC294ECC313FCD2943094034304809D
:09106C001210420BBB08EBAF04AB
:011075002258
:100F6E00C205D2947F0C7E00121046C2947F507E32
:100F7E0000121046D2947F0A7E00121046A294925E
:060F8E0005121042A2054D
:010F9400223A
:100F95008F1C1210E37F90120F171210D17F401291
:100FA5000F171210D1AF1C120F171210D102110C0E
:020E8C008F468F
:100E8E001210E37F90120F171210D1AF46120F17E8
:100E9E001210D112110C1210E37F91120F171210B3
:100EAE00D1120FF08F477F0112108E12110CAF4727
:010EBE002211
:0611290000007F21DFFE43
:01112F00229D
:100D800075D901E4F5D8F5F9F5E9FED290121129EB
:100D9000C2901211290EBE08F2D2DE30910330DF6C
:100DA000FAC2DE30DF05C2DF7F0022AFF9EFFEAD11
:100DB000E9EDFFAC06E41202B17B967A43798B78B9
:070DC0003C1201061202EAD9
:010DC7002209
:090CCD00011900011A00011800D0
:1006E300E4FFD2C4D2C2D2B5D2B4D2B0D2B1D2B264
:1006F300D2B3C2C420B0047F07801320B1047F06A5
:10070300800C20B2047F05800520B3027F04D2C48D
:10071300D2C2D2B5D2B4D2B0D2B1D2B2D2B3C2C2A3
:1007230020B0047F0B801320B1047F0A800C20B219
:10073300047F09800520B3027F08D2C4D2C2D2B598
:10074300D2B4D2B0D2B1D2B2D2B3C2B520B0047F48
:100753000F801320B1047F0E800C20B2047F0D8024
:100763000520B3027F0CD2C4D2C2D2B5D2B4D2B068
:10077300D2B1D2B2D2B3C2B420B0047F138013205B
:10078300B1047F12800C20B2047F11800520B302D4
:100793007F10EFB5190BE51AC39403500B051A80AC
:0D07A30007E4F51A8F19FF22E51AB40314BC
:1007B000E519600AE5187006751801AF1922E519E8
:0407C0007002F518B6
:0207C4007F00B4
:0107C6002210
:10000E00020356E86480F8E933E83360110460F0C7
:10001E00ED33EC337009E8FCE9FDEAFEEBFF220458
:10002E0060DED3EB9FEA9EE99DE8C2E78CF0C2F753
:10003E0095F0400CE8CCF8E9CDF9EACEFAEBCFFB1F
:10004E0012032185D0F05804700320D5B3E8047054
:10005E00075002B2D502036092D5EC0460F7E4CCEF
:10006E00C0E0C398F8603B94186008400DD0E0FBE8
:10007E00020338E4FBFAC9FC8028E830E406E4C940
:10008E00FBE4CAFCE830E305E4C9CACBFCE854073C
:10009E006010F8C3E913F9EA13FAEB13FBEC13FC47
:1000AE00D8F130F52FC3E49CFCEF9BFFEE9AFEEDEA
:1000BE0099FDD0E0FBEF4E4D4C701222DB03020394
:1000CE005DEC2CFCEF33FFEE33FEED33FDED30E750
:1000DE00EB020338EF2BFFEE3AFEED39FDD0E0FBDD
:1000EE0050130BBB0003020360ED13FDEE13FEEF86
:0800FE0013FFEC13FC020338B0
:10010600EC4D6011E8497017ED33EC3304600DE4F3
:10011600FCFFFEFD22E933E8330470F802035612B1
:10012600032158046009E4CC2481500628500902B2
:10013600036028400302035DC0E0EB4A7044B980C7
:1001460006D0E0FB02034CEF4E701CBD8008EBFFAF
:10015600EAFEE9FD80EBE98DF0A4FEE5F00201EF91
:10016600E9CDF9EAFEEBFFEF89F0A4FCE5F0CE89D4
:10017600F0A42EFFE435F0CD89F0A42DFEE435F091
:100186008067EF4E7005BD80D780C3EF8BF0A4ACBF
:10019600F0EE8BF0A42CFCE435F0F8EF8AF0A42CFA
:1001A600E5F038FCE433CB8DF0A42CFCE5F03BF80D
:1001B600EE8AF0A42CFCE5F038F8E433CF89F0A4FD
:1001C6002CFCE5F038CF3400CE89F0A42FFFE5F003
:1001D6003EFEE433C98DF0A42EFEE5F039CD8AF05B
:1001E600A42FFFE5F03EFEE43DFD33D0E0FB5007D3
:1001F6000BBB000F020360EC2CFCEF33FFEE33FE6B
:06020600ED33FD02033898
:10020C00020360EC5D046005E859047003020356B8
:10021C00120321580460F6EC4860F2EC7004FDFE09
:10022C00FF22C860DB2481C85009C39860025006C5
:10023C0002035D9850CAF582E9294B4A7005AB82DE
:10024C0002034C75F0007C1A7880C3EF9BEE9AED9C
:10025C0099400DC3EF9BFFEE9AFEED99FDE842F03D
:10026C00DC23ACF0D0E0FFD0E0FED0E0FDAB822090
:10027C00E7101BEB60BAEC2CFCEF33FFEE33FEED1A
:10028C0033FD020338E803F830E705C0F075F000E1
:10029C00EF2FFFEE33FEED33FD40B830E7C280AAFE
:1002AC0075F020800E75F010800575F0087D007ECD
:1002BC00007F003392D530D5031203C0EC334010CD
:1002CC00EF33FFEE33FEED33FDEC33FCD5F0ED22D6
:0E02DC00E5F0247EA2D513CC92E7CDCEFF2212
:1002EA00EDD2E7CD33EC3392D524814006E4FFFE0C
:1002FA00FDFC22FCE4CFCECDCC24E0501174FF806B
:10030A00EDC3CC13CCCD13CDCE13CECF13CF047007
:07031A00F030D5DE0203C044
:10032100E9D2E7C933E833F892D5EDD2E7CD33EC22
:0703310033FC5002B2D5229B
:10033800EC30E7100FBF000C0EBE00080DBD000426
:100348000BEB6014A2D5EB13FCED92E7FD2274FFD2
:10035800FCFDFEFF22E480F8A2D574FF13FC7D802B
:03036800E480EF3F
:03000000020B658B
:0C0B6500787FE4F6D8FD758147020BACE8
:10036B00BC000BBE0029EF8DF084FFADF022E4CC76
:10037B00F875F008EF2FFFEE33FEEC33FCEE9DEC3F
:10038B00984005FCEE9DFE0FD5F0E9E4CEFD22ED85
:10039B00F8F5F0EE8420D21CFEADF075F008EF2FCF
:1003AB00FFED33FD4007985006D5F0F222C398FDC0
:0503BB000FD5F0EA225D
:0E03C000C3E49FFFE49EFEE49DFDE49CFC224E
:100B710002058BE493A3F8E493A34003F68001F20A
:100B810008DFF48029E493A3F85407240CC8C33385
:100B9100C4540F4420C8834004F456800146F6DF54
:100BA100E4800B0102040810204080900C70E47E68
:100BB100019360BCA3FF543F30E509541FFEE49349
:100BC100A360010ECF54C025E060A840B8E493A310
:100BD100FAE493A3F8E493A3C8C582C8CAC583CA3B
:100BE100F0A3C8C582C8CAC583CADFE9DEE780BEF3
:010CD600001D
:00000001FF
