:1002C3001204481205137FE87E031204EB12051390
:1002D3007FE87E031204EB1203DE1200E18E1E8F11
:1002E3001F7C007D641201B78E188F19AE1EAF1FDD
:1002F3007C007D641201B7AA04AB057D0A7C00AFC4
:1003030003AE021201B78E1A8F1B7D0A7C00AF0366
:10031300AE021201B78C1C8D1DE4F520F521AD1939
:10032300AC187F011201FBAD1BAC1A7F021201FB5B
:10033300AD1DAC1C7F031201FB0521E521700205F5
:0F03430020C394C8E5206480948040D20202D089
:100500001008C0F9A4B0999282F880908883C6A19F
:02051000868ED5
:1001FB00EF14B40F00400302028B90021375F0034F
:10020B00A4C58325F0C58373020240020245020296
:10021B004A02024F02025402025902025E020263B8
:10022B0002026802026D02027202027702027C0273
:10023B0002810202867580018049758002804475B7
:10024B008004803F758008803A75801080357580FA
:10025B00208030758040802B758080802675809043
:10026B008021758088801C75808380177580C6807F
:10027B00127580A1800D758086800875808E800335
:10028B007580FFE5A0541F44C0F5A053A01FED548B
:10029B000F2408F8E6F580E5A0541F44E0F5A053C1
:1002AB00A01F7F027E001204EB7580FFE5A0541F98
:0802BB0044E0F5A053A01F224E
:040465007FF47E01A1
:100469007C007D05120162AE071FEE600A00007B69
:070479000C1BEB60F280FA9E
:010480002259
:10048100D294C294120465D2947F467E001204690C
:0A049100A294E433FA120465AF02EE
:01049B00223E
:1004B700AA07C2947F0A7E00120469EA24FF929475
:0A04C7007F327E00120469D29422F5
:10040900C2947F057E00120469D2947F057E001292
:100419000469A294E433FA7F327E00120469AF02C0
:0104290022B0
:0204D1008F2377
:1004D300E4F97401A801088002C333D8FC5523FF53
:0704E3001204B709B908EB90
:0104EA0022EF
:10042A00E4F523F9120409EF600D7401A8010880AC
:0D043A0002C333D8FC422309B908E9AF23FF
:010447002292
:1004EB00EF1FAC0670011E4C600A7D0C7CA9DCFE74
:0404FB00DDFC80ECB8
:0104FF0022DA
:100448007580FFE5A0541F4480F5A053A01FE4F574
:0D04580080E5A0541F44A0F5A053A01F2272
:0D0513001204817FCC1204D17F440204D178
:1003DE001204817FCC1204D17FBE1204D112042AE2
:1003EE008F2212042AEFFEE522FFFDAC06EC12006E
:0B03FE00A8E4FBFA79807841020006B9
:080520008F993099FDC2992268
:10049C00759850438E40538EFE53890F758B8F7514
:0B04AC008DFDC2ABD28ED2ACD2AF22CD
:10000300020157EC5D046005E85904700302014DD9
:10001300120118580460F6EC4860F2EC7004FDFE1F
:10002300FF22C860DB2481C85009C39860025006D0
:100033000201549850CAF582E9294B4A7005AB82F4
:1000430002014375F0007C1A7880C3EF9BEE9AEDB2
:1000530099400DC3EF9BFFEE9AFEED99FDE842F048
:10006300DC23ACF0D0E0FFD0E0FED0E0FDAB82209B
:10007300E7101BEB60BAEC2CFCEF33FFEE33FEED25
:1000830033FD02012FE803F830E705C0F075F000F7
:10009300EF2FFFEE33FEED33FD40B830E7C280AA09
:1000A30075F020800E75F010800575F0087D007ED8
:1000B300007F003392D530D5031201EDEC334010AD
:1000C300EF33FFEE33FEED33FDEC33FCD5F0ED22E1
:0E00D300E5F0247EA2D513CC92E7CDCEFF221D
:1000E100EDD2E7CD33EC3392D524814006E4FFFE17
:1000F100FDFC22FCE4CFCECDCC24E0501174FF8076
:10010100EDC3CC13CCCD13CDCE13CECF13CF047012
:07011100F030D5DE0201ED24
:10011800E9D2E7C933E833F892D5EDD2E7CD33EC2D
:0701280033FC5002B2D522A6
:10012F00EC30E7100FBF000C0EBE00080DBD000431
:10013F000BEB6014A2D5EB13FCED92E7FD2274FFDD
:10014F00FCFDFEFF22E480F8A2D574FF13FC7D8036
:03015F00E480EF4A
:03000000020352A6
:0C035200787FE4F6D8FD75812302039942
:10016200BC000BBE0029EF8DF084FFADF022E4CC81
:10017200F875F008EF2FFFEE33FEEC33FCEE9DEC4A
:10018200984005FCEE9DFE0FD5F0E9E4CEFD22ED90
:10019200F8F5F0EE8420D21CFEADF075F008EF2FDA
:1001A200FFED33FD4007985006D5F0F222C398FDCB
:0501B2000FD5F0EA2268
:1001B700C2D5EC30E709B2D5E4C39DFDE49CFCEE63
:1001C70030E715B2D5E4C39FFFE49EFE120162C378
:1001D700E49DFDE49CFC800312016230D507C3E473
:0601E7009FFFE49EFE22D2
:0E01ED00C3E49FFFE49EFEE49DFDE49CFC2223
:10035E000202C3E493A3F8E493A34003F68001F2F0
:10036E0008DFF48029E493A3F85407240CC8C333A0
:10037E00C4540F4420C8834004F456800146F6DF6F
:10038E00E4800B0102040810204080900500E47EFA
:10039E00019360BCA3FF543F30E509541FFEE49364
:1003AE00A360010ECF54C025E060A840B8E493A32B
:1003BE00FAE493A3F8E493A3C8C582C8CAC583CA56
:1003CE00F0A3C8C582C8CAC583CADFE9DEE780BE0E
:0105120000E8
:00000001FF
