:100BEE00012400012600022C001E023000000238F3
:100BFE000000012500012301012F1E012E1E012BD5
:100C0E000102270000C101C104C103012A0001290C
:100C1E0000C102023600000221000002320000C1B3
:050C2E0000023400008B
:0D1076008F80E5A0541F4DF5A053A01F2250
:08000300EFF4FF7D800210768E
:0510AB007DA00210769B
:100FEA00538E7F5389F0438901758A18758CFCC228
:080FFA008DD2A9D2AFD28C22E6
:03000B00020DC320
:100DC300C0E0C0D0758A18758CFC0537E537700212
:100DD3000536D3E5229400E52194004008E5221569
:100DE3002270021521D3E5339400E53294004008C4
:0D0DF300E533153370021532D0D0D0E03258
:100D3C007D0C7F0112087BAE2CAF2D7C007D6412E4
:100D4C00036B7E007F0ACFCDCFCECCCE12036BAD22
:100D5C00077F0212087BAE2CAF2D7C007D0A12039C
:100D6C006B7F0312087B7DC87F07120941AD237F7F
:040D7C000802087BE6
:100C9F007DC77F01120941AD2B7F0212087BAE3059
:100CAF00AF317C007D6412036BAD077F0612087BAA
:100CBF00AE30AF317C007D6412036B7E007F0ACFB4
:100CCF00CDCFCECCCE12036BAD077F0712087BAE14
:0F0CDF0030AF317C007D0A12036B7F0802087B67
:100D80007D8C7F01120941E52670177D0C7F0212D0
:100D9000087BE52F75F00A84FD7F0712087BE52F9D
:100DA00080157DC77F02120941E52E75F00A84FD8A
:100DB0007F0712087BE52E75F00A84ADF07F0812DC
:030DC000087B228B
:100B8B007DC87F011209417D0C7F0212087BAE27C5
:100B9B00AF287C037DE812036B7C007D0A12036B8C
:100BAB007F0512087BAE27AF287C007D6412036B98
:100BBB007C007D0A12036B7F0612087BAE27AF28E1
:100BCB007C007D0A12036B7C007D0A12036B7F078E
:100BDB0012087BAE27AF287C007D0A12036B7F08BF
:030BEB0002087B82
:10101A00121083120EB7E4FBFAF9783F1200151288
:07102A0002EA8E2C8F2D223B
:100E33007F41120E008F25E525C394994004752345
:100E43000122E525C39466400475230222E525C3E8
:0C0E530094194004752303227523042227
:0F105800853038853139120C4F7530008F3122B9
:100E5F00D3E5319400E5309400400EE531952EE551
:100E6F003094005004D2018002C201D3E52D952F9A
:0C0E7F00E52C94004003D20422C204229F
:100CEE00C3E5319539E5309538400CE5319539FF3E
:100CFE00E5309538FE800BC3E5399531FFE5389523
:100D0E0030FEE52245217025C3EF9405EE94005088
:100D1E0005752B018011C3EF940AEE9400500575F2
:0D0D2E002B028003752B0375210B7522B875
:010D3B002295
:100A8E00E4FEFC30030AAF2A120003AF290210ABBA
:100A9E00300121E523B401054306018017E523B497
:100AAE000205430603800DE523B4030543060780C4
:100ABE000343060FE52BB402028015E52BB4031396
:100ACE00E53345327007F532753364B200300003FA
:100ADE00430680300106300403430420EC30E50366
:100AEE00D38001C3920530050B2002080528E528A6
:100AFE0070020527A2059202AF06120003AF041280
:060B0E0010AB8E2A8C29B9
:010B140022BE
:1007AF00E4FED2C4D2C2D2B5D2B4D2B0D2B1D2B298
:1007BF00D2B3C2C420B0047E07801320B1047E06DA
:1007CF00800C20B2047E05800520B3027E04EEB5B6
:1007DF000702D322D2C4D2C2D2B5D2B4D2B0D2B1D0
:1007EF00D2B2D2B3C2C220B0047E0B801320B104A8
:1007FF007E0A800C20B2047E09800520B3027E0899
:10080F00EEB50702D322D2C4D2C2D2B5D2B4D2B07F
:10081F00D2B1D2B2D2B3C2B520B0047E0F801320B2
:10082F00B1047E0E800C20B2047E0D800520B30231
:10083F007E0CEEB50702D322D2C4D2C2D2B5D2B447
:10084F00D2B0D2B1D2B2D2B3C2B420B0047E138030
:10085F001320B1047E12800C20B2047E118005207B
:0B086F00B3027E10EEB50702D322C3D7
:01087A00225B
:100B15001206CBEF606FBF041A0524E524C39404C5
:100B25004003E4F524E524B40207E4F526D2038066
:100B350002C203E5246402704CBF050C0526E526B8
:100B4500C394024003E4F526BF081CE526700BE5B7
:100B55002FC394505011052F800DE52ED3944B5083
:100B6500067405252EF52EBF091BE526700AE52F0F
:100B7500D394144010152F22E52EC3941940067402
:050B8500FB252EF52EFA
:010B8A002248
:10058B00E4F53AF53BF53CF53DF53EF53FF540F529
:10059B0041F542F543120F47120FEAE4F524F52615
:1005AB00752F1E752E1EF527F528752B01C203FF1F
:1005BB00120003E4FF1210AB1210837FEE7E0212C7
:1005CB00103112101A120E33121058E52470051246
:1005DB000D3C8017E524B40105120C9F800DE5241A
:1005EB00B40205120D808003120B8BC3E537953BCC
:1005FB00FFE536953AFEC3EF940AEE940040098569
:10060B00363A85373B120B15C3E537953DFFE5367B
:10061B00953CFEC3EF94E8EE9403400985363C8588
:10062B00373D12101AC3E537953FFFE536953EFE71
:10063B00C3EF9464EE9400400985363E85373F1234
:10064B000E33C3E5379541FFE5369540FEC3EF9476
:10065B00C8EE94004009853640853741121058C3C7
:10066B00E5379543FFE5369542FEC3EF94E8EE94EC
:10067B00034009853642853743120CEE120E5F128A
:10068B000A8EE524640370307F081207AF50210FE8
:10069B001207AF501B0535E53570020534C394D0F6
:1006AB00E534940750030205D6E4F527F5288001BD
:1006BB00E4F534F5350205D6E4F534F5350205D607
:100C33001008C0F9A4B0999282F880908883C6A165
:020C4300868E9B
:10087B00EF14B40F00400302090B90089375F003BB
:10088B00A4C58325F0C583730208C00208C50208FE
:10089B00CA0208CF0208D40208D90208DE0208E314
:1008AB000208E80208ED0208F20208F70208FC024F
:1008BB000901020906758001804975800280447523
:1008CB008004803F758008803A7580108035758074
:1008DB00208030758040802B7580808026758090BD
:1008EB008021758088801C75808380177580C680F9
:1008FB00127580A1800D758086800875808E8003AF
:10090B007580FFE5A0541F44C0F5A053A01F7408C9
:10091B002DF8E6F580E5A0541F44E0F5A053A01F89
:10092B007F027E001210317580FFE5A0541F44E05A
:06093B00F5A053A01F22ED
:10094100EF14B40F0040030209D190095975F00367
:10095100A4C58325F0C5837302098602098B0209A8
:100961009002099502099A02099F0209A40209A9A4
:100971000209AE0209B30209B80209BD0209C202A5
:1009810009C70209CC7580018049758002804475D0
:100991008004803F758008803A75801080357580AD
:1009A100208030758040802B7580808026758090F6
:1009B1008021758088801C75808380177580C68032
:1009C100127580A1800D758086800875808E8003E8
:1009D1007580FFE5A0541F44C0F5A053A01F8D8072
:1009E100E5A0541F44E0F5A053A01F7F027E001232
:1009F10010317580FFE5A0541F44E0F5A053A01FFE
:010A010022D2
:10103100EF1FAC0670011E4C600A7D0C7CA9DCFE22
:04104100DDFC80EC66
:011045002288
:100F47007580FFE5A0541F4480F5A053A01FE4F56A
:0D0F570080E5A0541F44A0F5A053A01F2268
:0D108300120EE27FCC120F297F44020F29CC
:100EB700120EE27FCC120F297FBE120F29120FD01C
:100EC7008F44120FD0EFFEE544FFFDAC06EC120293
:0B0ED700B1E4FBFA7980784102020FC1
:08109C008F993099FDC29922E1
:100F8100759850438E40538EFE53890F758B8F7524
:0B0F91008DFDC2ABD28ED2ACD2AF22DD
:1003CE00E4F51BD2C4D2C2D2B5D2B4D2B0D2B1D21D
:1003DE00B2D2B3C2C420B0137F14FE12103130B0AB
:1003EE00FD7F147E00121031751B0720B1147F148F
:1003FE007E0012103130B1FD7F147E001210317567
:10040E001B0620B2147F147E0012103130B2FD7F15
:10041E00147E00121031751B0520B3147F147E005C
:10042E0012103130B3FD7F147E00121031751B0493
:10043E00D2C4D2C2D2B5D2B4D2B0D2B1D2B2D2B369
:10044E00C2C220B0147F147E0012103130B0FD7F76
:10045E00147E00121031751B0B20B1147F147E0018
:10046E0012103130B1FD7F147E00121031751B0A4F
:10047E0020B2147F147E0012103130B2FD7F147E34
:10048E0000121031751B0920B3147F147E00121058
:10049E003130B3FD7F147E00121031751B08D2C4AB
:1004AE00D2C2D2B5D2B4D2B0D2B1D2B2D2B3C2B518
:1004BE0020B0147F147E0012103130B0FD7F147EF8
:1004CE0000121031751B0F20B1147F147E00121014
:1004DE003130B1FD7F147E00121031751B0E20B22B
:1004EE00147F147E0012103130B2FD7F147E001284
:1004FE001031751B0D20B3147F147E001210313095
:10050E00B3FD7F147E00121031751B0CD2C4D2C203
:10051E00D2B5D2B4D2B0D2B1D2B2D2B3C2B420B06C
:10052E00147F147E0012103130B0FD7F147E001245
:10053E001031751B1320B1147F147E001210313050
:10054E00B1FD7F147E00121031751B1220B2147F84
:10055E00147E0012103130B2FD7F147E0012103165
:10056E00751B1120B3147F147E0012103130B3FDB1
:0C057E007F147E00121031751B10AF1BA3
:01058A00224E
:040F9C00D2A07F055B
:100FA000000000000000000000000000000000AE93
:060FB000071FEE70EB22AA
:0F106700D2A1120F9CC2A17F05120FA0C2A0221E
:0C109000C2A1120F9CD2A17F05020FA08C
:020E8B00AD07B1
:100E8D00E4FCC2A07F05120FA0ED30E704D2A180D3
:100E9D0002C2A17F05120FA0D2A0ED25E0FD7F05B6
:090EAD00120FA00CBC08DBC2A06E
:010EB6002219
:100F6400E4FC120F9CED25E0FD30A103430501C212
:0C0F7400A07F05120FA00CBC08E8AF0520
:010F8000224E
:10104600120F9CA2A1E433FDC2A07F05120FA0AF30
:011056000594
:011057002276
:10100200C2A0EF24FF92A17F05120FA0120F9CC273
:08101200A0D2A17F05020FA08E
:040FB6007F057E0035
:100FBA00EF1FAA0670011E4A600BE4FDEDC3940CF4
:050FCA0050EE0D80F760
:010FCF0022FF
:020F2900A90716
:100F2B00E4FBC294E9139294120FB6D294E9C31363
:0C0F3B00F90BBB08ED7F057E00020FBA29
:100FD000E4FBC294ECC313FCD2943094034304802A
:090FE000120FB60BBB08EBAF04C5
:010FE90022E5
:100EE200C205D2947F0C7E00120FBAC2947F507E4C
:100EF20000120FBAD2947F0A7E00120FBAA2949205
:060F020005120FB6A20566
:010F080022C6
:100F09008F1C1210677F90120E8B1210467F4012B1
:100F19000E8B121046AF1C120E8B12104602109047
:020E00008F441D
:100E02001210677F90120E8B121046AF44120E8B97
:100E12001210461210901210677F91120E8B121050
:100E220046120F648F457F01121002121090AF45D7
:010E3200229D
:0610A40000007F21DFFEC9
:0110AA002223
:100C4F0075D901E4F5D8F5F9F5E9FED2901210A4A3
:100C5F00C2901210A40EBE08F2D2DE309107E5F951
:100C6F00C3944040F6C2DEE5F9C394404005C2DFAD
:100C7F007F0022AFF9EFFEADE9EDFFAC06E4120203
:0F0C8F00B17B047AE7798C783C1201061202EAF5
:010C9E002233
:090C4500011900011A0001180058
:1006CB00E4FFD2C4D2C2D2B5D2B4D2B0D2B1D2B27C
:1006DB00D2B3C2C420B0047F07801320B1047F06BD
:1006EB00800C20B2047F05800520B3027F04D2C4A6
:1006FB00D2C2D2B5D2B4D2B0D2B1D2B2D2B3C2C2BC
:10070B0020B0047F0B801320B1047F0A800C20B231
:10071B00047F09800520B3027F08D2C4D2C2D2B5B0
:10072B00D2B4D2B0D2B1D2B2D2B3C2B520B0047F60
:10073B000F801320B1047F0E800C20B2047F0D803C
:10074B000520B3027F0CD2C4D2C2D2B5D2B4D2B080
:10075B00D2B1D2B2D2B3C2B420B0047F1380132073
:10076B00B1047F12800C20B2047F11800520B302EC
:10077B007F10EFB5190BE51AC39403500B051A80C4
:0D078B0007E4F51A8F19FF22E51AB40314D4
:10079800E519600AE5187006751801AF1922E51900
:0407A8007002F518CE
:0207AC007F00CC
:0107AE002228
:10000E00020356E86480F8E933E83360110460F0C7
:10001E00ED33EC337009E8FCE9FDEAFEEBFF220458
:10002E0060DED3EB9FEA9EE99DE8C2E78CF0C2F753
:10003E0095F0400CE8CCF8E9CDF9EACEFAEBCFFB1F
:10004E0012032185D0F05804700320D5B3E8047054
:10005E00075002B2D502036092D5EC0460F7E4CCEF
:10006E00C0E0C398F8603B94186008400DD0E0FBE8
:10007E00020338E4FBFAC9FC8028E830E406E4C940
:10008E00FBE4CAFCE830E305E4C9CACBFCE854073C
:10009E006010F8C3E913F9EA13FAEB13FBEC13FC47
:1000AE00D8F130F52FC3E49CFCEF9BFFEE9AFEEDEA
:1000BE0099FDD0E0FBEF4E4D4C701222DB03020394
:1000CE005DEC2CFCEF33FFEE33FEED33FDED30E750
:1000DE00EB020338EF2BFFEE3AFEED39FDD0E0FBDD
:1000EE0050130BBB0003020360ED13FDEE13FEEF86
:0800FE0013FFEC13FC020338B0
:10010600EC4D6011E8497017ED33EC3304600DE4F3
:10011600FCFFFEFD22E933E8330470F802035612B1
:10012600032158046009E4CC2481500628500902B2
:10013600036028400302035DC0E0EB4A7044B980C7
:1001460006D0E0FB02034CEF4E701CBD8008EBFFAF
:10015600EAFEE9FD80EBE98DF0A4FEE5F00201EF91
:10016600E9CDF9EAFEEBFFEF89F0A4FCE5F0CE89D4
:10017600F0A42EFFE435F0CD89F0A42DFEE435F091
:100186008067EF4E7005BD80D780C3EF8BF0A4ACBF
:10019600F0EE8BF0A42CFCE435F0F8EF8AF0A42CFA
:1001A600E5F038FCE433CB8DF0A42CFCE5F03BF80D
:1001B600EE8AF0A42CFCE5F038F8E433CF89F0A4FD
:1001C6002CFCE5F038CF3400CE89F0A42FFFE5F003
:1001D6003EFEE433C98DF0A42EFEE5F039CD8AF05B
:1001E600A42FFFE5F03EFEE43DFD33D0E0FB5007D3
:1001F6000BBB000F020360EC2CFCEF33FFEE33FE6B
:06020600ED33FD02033898
:10020C00020360EC5D046005E859047003020356B8
:10021C00120321580460F6EC4860F2EC7004FDFE09
:10022C00FF22C860DB2481C85009C39860025006C5
:10023C0002035D9850CAF582E9294B4A7005AB82DE
:10024C0002034C75F0007C1A7880C3EF9BEE9AED9C
:10025C0099400DC3EF9BFFEE9AFEED99FDE842F03D
:10026C00DC23ACF0D0E0FFD0E0FED0E0FDAB822090
:10027C00E7101BEB60BAEC2CFCEF33FFEE33FEED1A
:10028C0033FD020338E803F830E705C0F075F000E1
:10029C00EF2FFFEE33FEED33FD40B830E7C280AAFE
:1002AC0075F020800E75F010800575F0087D007ECD
:1002BC00007F003392D530D5031203C0EC334010CD
:1002CC00EF33FFEE33FEED33FDEC33FCD5F0ED22D6
:0E02DC00E5F0247EA2D513CC92E7CDCEFF2212
:1002EA00EDD2E7CD33EC3392D524814006E4FFFE0C
:1002FA00FDFC22FCE4CFCECDCC24E0501174FF806B
:10030A00EDC3CC13CCCD13CDCE13CECF13CF047007
:07031A00F030D5DE0203C044
:10032100E9D2E7C933E833F892D5EDD2E7CD33EC22
:0703310033FC5002B2D5229B
:10033800EC30E7100FBF000C0EBE00080DBD000426
:100348000BEB6014A2D5EB13FCED92E7FD2274FFD2
:10035800FCFDFEFF22E480F8A2D574FF13FC7D802B
:03036800E480EF3F
:03000000020A02EF
:0C0A0200787FE4F6D8FD758145020A49B2
:10036B00BC000BBE0029EF8DF084FFADF022E4CC76
:10037B00F875F008EF2FFFEE33FEEC33FCEE9DEC3F
:10038B00984005FCEE9DFE0FD5F0E9E4CEFD22ED85
:10039B00F8F5F0EE8420D21CFEADF075F008EF2FCF
:1003AB00FFED33FD4007985006D5F0F222C398FDC0
:0503BB000FD5F0EA225D
:0E03C000C3E49FFFE49EFEE49DFDE49CFC224E
:100A0E0002058BE493A3F8E493A34003F68001F26E
:100A1E0008DFF48029E493A3F85407240CC8C333E9
:100A2E00C4540F4420C8834004F456800146F6DFB8
:100A3E00E4800B0102040810204080900BEEE47E4F
:100A4E00019360BCA3FF543F30E509541FFEE493AD
:100A5E00A360010ECF54C025E060A840B8E493A374
:100A6E00FAE493A3F8E493A3C8C582C8CAC583CA9F
:100A7E00F0A3C8C582C8CAC583CADFE9DEE780BE57
:010C4E0000A5
:00000001FF
