:10011C0012016AE51CFD7C007F01120003E51B2423
:10012C0001F51BE4351AF51AE43519F519E43518FF
:10013C00F518E47FE87E03FDFCAB1BAA1AA919A8ED
:10014C0018D31201C5400B051CE4F51BF51AF51963
:0E015C00F518E51CD3940F40BAE4F51C80B5ED
:1001B2001008C0F9A4B0999282F880908883C6A1F1
:0201C200868E27
:10000300EF14B40800504E90001875F003A4C58394
:1000130025F0C5837302003002003502003A020066
:100023003F02004402004902004E02005375800162
:1000330080267580028021758004801C758008806D
:10004300177580108012758020800D7580408008A0
:1000530075808080037580FFE5A0541F44C0F5A020
:1000630053A01FED540F2408F8E6F580E5A0541FB4
:1000730044E0F5A053A01F7F027E0012019D75800E
:0D008300FFE5A0541F44E0F5A053A01F228C
:0601DF0000007FCFDFFEEF
:0101E50022F7
:0801D6007F067ED3DEFEDFFC94
:0101DE0022FE
:10018700D294C2941201D6D2941201DFA294E4331E
:05019700FD1201D6FF7E
:01019C002240
:10019D00EF1FAC0670011E4C600A7D0C7CA9DCFEC5
:0401AD00DDFC80EC09
:0101B100222B
:10016A007580FFE5A0541F4480F5A053A01FE4F555
:0D017A0080E5A0541F44A0F5A053A01F2253
:030000000200906B
:0C009000787FE4F6D8FD75811C0200D7D3
:1001C500EB9FF5F0EA9E42F0E99D42F0E89C45F090
:0101D5002207
:10009C0002011CE493A3F8E493A34003F68001F25D
:1000AC0008DFF48029E493A3F85407240CC8C33365
:1000BC00C4540F4420C8834004F456800146F6DF34
:1000CC00E4800B01020408102040809001B2E47E11
:1000DC00019360BCA3FF543F30E509541FFEE49329
:1000EC00A360010ECF54C025E060A840B8E493A3F0
:1000FC00FAE493A3F8E493A3C8C582C8CAC583CA1B
:10010C00F0A3C8C582C8CAC583CADFE9DEE780BED2
:0101C400003A
:00000001FF
