:10089C001207F9751900751A1E1209157FEE7E02E2
:0808AC001208CC12043180FB9C
:100431001209157F0112070A8F18E518C394974016
:1004410005751D01803CE518C39466400BE51894C1
:10045100975005751D02802AAC18E4120126E4FBB1
:10046100FA79CC78411200A36002500CE518C394CC
:10047100665005751D03800AE518C39497500375EE
:100481001D04E4F51BF51C7D0C7F011204F7AE1968
:10049100AF1A7C007D641201DB7E007F0ACFCDCFD5
:1004A100CECCCE1201DBAD077F021204F7AE19AF3D
:1004B1001A7C007D641201DB7E007F0ACFCDCFCE96
:1004C100CCCE1201DB7F031204F77DC87F07120532
:1004D100BDAD1D7F081204F7051CE51C7002051B4C
:1004E100C394C8E51B64809480409C120769120183
:0604F1005A8E198F1A2239
:1008E1001008C0F9A4B0999282F880908883C6A1BB
:0208F100868EF1
:1004F700EF14B40F00400302058790050F75F00352
:10050700A4C58325F0C5837302053C020541020596
:100517004602054B02055002055502055A02055FC2
:1005270002056402056902056E0205730205780279
:10053700057D0205827580018049758002804475BA
:100547008004803F758008803A75801080357580FB
:10055700208030758040802B758080802675809044
:100567008021758088801C75808380177580C68080
:10057700127580A1800D758086800875808E800336
:100587007580FFE5A0541F44C0F5A053A01F740851
:100597002DF8E6F580E5A0541F44E0F5A053A01F11
:1005A7007F027E001208CC7580FFE5A0541F44E04F
:0605B700F5A053A01F2275
:1005BD00EF14B40F00400302064D9005D575F003FE
:1005CD00A4C58325F0C58373020602020607020641
:1005DD000C02061102061602061B02062002062553
:1005ED0002062A02062F02063402063902063E02D0
:1005FD000643020648758001804975800280447566
:10060D008004803F758008803A7580108035758034
:10061D00208030758040802B75808080267580907D
:10062D008021758088801C75808380177580C680B9
:10063D00127580A1800D758086800875808E80036F
:10064D007580FFE5A0541F44C0F5A053A01F8D80F9
:10065D00E5A0541F44E0F5A053A01F7F027E0012B9
:10066D0008CC7580FFE5A0541F44E0F5A053A01FF2
:01067D00225A
:1008CC00EF1FAC0670011E4C600A7D0C7CA9DCFE8F
:0408DC00DDFC80ECD3
:0108E00022F5
:1007F9007580FFE5A0541F4480F5A053A01FE4F5C0
:0D08090080E5A0541F44A0F5A053A01F22BD
:0D0915001207947FCC1207DB7F440207DB42
:100769001207947FCC1207DB7FBE1207DB120882C7
:100779008F1E120882EFFEE51EFFFDAC06EC12018A
:0B07890021E4FBFA79807841020006B1
:08092E008F993099FDC2992256
:10083300759850438E40538EFE53890F758B8F7579
:0B0843008DFDC2ABD28ED2ACD2AF2232
:10027400E4F521D2C4D2C2D2B5D2B4D2B0D2B1D272
:10028400B2D2B3C2C420B0137F14FE1208CC30B073
:10029400FD7F147E001208CC75210720B1147F1451
:1002A4007E001208CC30B1FD7F147E001208CC759C
:1002B400210620B2147F147E001208CC30B2FD7FD8
:1002C400147E001208CC75210520B3147F147E001F
:1002D4001208CC30B3FD7F147E001208CC752104C3
:1002E400D2C4D2C2D2B5D2B4D2B0D2B1D2B2D2B3C5
:1002F400C2C220B0147F147E001208CC30B0FD7F3F
:10030400147E001208CC75210B20B1147F147E00DA
:100314001208CC30B1FD7F147E001208CC75210A7E
:1003240020B2147F147E001208CC30B2FD7F147EFC
:10033400001208CC75210920B3147F147E00120822
:10034400CC30B3FD7F147E001208CC752108D2C4D2
:10035400D2C2D2B5D2B4D2B0D2B1D2B2D2B3C2B573
:1003640020B0147F147E001208CC30B0FD7F147EC0
:10037400001208CC75210F20B1147F147E001208DE
:10038400CC30B1FD7F147E001208CC75210E20B252
:10039400147F147E001208CC30B2FD7F147E00124C
:1003A40008CC75210D20B3147F147E001208CC30C4
:1003B400B3FD7F147E001208CC75210CD2C4D2C2C6
:1003C400D2B5D2B4D2B0D2B1D2B2D2B3C2B420B0C8
:1003D400147F147E001208CC30B0FD7F147E00120E
:1003E40008CC75211320B1147F147E001208CC3080
:1003F400B1FD7F147E001208CC75211220B2147F47
:10040400147E001208CC30B2FD7F147E001208CC9A
:1004140075211120B3147F147E001208CC30B3FD73
:0C0424007F147E001208CC752110AF215F
:0104300022A9
:04084E00D2A07F05B0
:10085200000000000000000000000000000000AEE8
:06086200071FEE70EB22FF
:0F090600D2A112084EC2A17F05120852C2A02230
:0C092200C2A112084ED2A17F05020852AB
:02073D00AD0706
:10073F00E4FCC2A07F05120852ED30E704D2A1807D
:10074F0002C2A17F05120852D2A0ED25E0FD7F0560
:09075F001208520CBC08DBC2A018
:01076800226E
:10081600E4FC12084EED25E0FD30A103430501C2BC
:0C082600A07F051208520CBC08E8AF05CA
:0108320022A3
:1008F40012084EA2A1E433FDC2A07F05120852AF34
:0109040005ED
:0109050022CF
:1008B400C2A0EF24FF92A17F0512085212084EC273
:0808C400A0D2A17F0502085239
:040868007F057E008A
:10086C00EF1FAA0670011E4A600BE4FDEDC3940C49
:05087C0050EE0D80F7B5
:010881002254
:0207DB00A9076C
:1007DD00E4FBC294E9139294120868D294E9C3130E
:0C07ED00F90BBB08ED7F057E0002086CD4
:10088200E4FBC294ECC313FCD2943094034304807F
:090892001208680BBB08EBAF046F
:01089B00223A
:10079400C200D2947F0C7E0012086CC2947F507EFB
:1007A4000012086CD2947F0A7E0012086CA2949204
:0607B40000120868A2001B
:0107BA00221C
:1007BB008F221209067F9012073D1208F47F401218
:1007CB00073D1208F4AF2212073D1208F40209226A
:02070A008F1E40
:10070C001209067F9012073D1208F4AF1E12073D26
:10071C001208F41209221209067F9112073D1208E1
:10072C00F41208168F1F7F011208B4120922AF1F92
:01073C00229A
:100003000201D0EC5D046005E8590470030201C6E7
:10001300120191580460F6EC4860F2EC7004FDFEA6
:10002300FF22C860DB2481C85009C39860025006D0
:100033000201CD9850CAF582E9294B4A7005AB827B
:100043000201BC75F0007C1A7880C3EF9BEE9AED39
:1000530099400DC3EF9BFFEE9AFEED99FDE842F048
:10006300DC23ACF0D0E0FFD0E0FED0E0FDAB82209B
:10007300E7101BEB60BAEC2CFCEF33FFEE33FEED25
:1000830033FD0201A8E803F830E705C0F075F0007E
:10009300EF2FFFEE33FEED33FD40B830E7C280AA09
:1000A30074F8CC6480CCC86480C8F58204604FC304
:1000B300EB9FF5F0EA9E42F0E99D42F0E89C45F0A3
:1000C300603C501DE5825FFFE582D313CB5BCBF42D
:1000D3002B5582FB50280ABA002409B90020088056
:1000E3001DE5825BFBE582D313CF5FCFF4C3132FF0
:1000F3005582FF50090EBE00050DBD00010CC3EB78
:100103009FF5F0EA9E42F0E99D42F0E89C45F060DD
:0901130007CC4820E701B3EC22FF
:10011C0075F020800E75F010800575F0087D007E5E
:10012C00007F003392D530D503120211EC3340100E
:10013C00EF33FFEE33FEED33FDEC33FCD5F0ED2267
:0E014C00E5F0247EA2D513CC92E7CDCEFF22A3
:10015A00EDD2E7CD33EC3392D524814006E4FFFE9D
:10016A00FDFC22FCE4CFCECDCC24E0501174FF80FC
:10017A00EDC3CC13CCCD13CDCE13CECF13CF047099
:07018A00F030D5DE02021186
:10019100E9D2E7C933E833F892D5EDD2E7CD33ECB4
:0701A10033FC5002B2D5222D
:1001A800EC30E7100FBF000C0EBE00080DBD0004B8
:1001B8000BEB6014A2D5EB13FCED92E7FD2274FF64
:1001C800FCFDFEFF22E480F8A2D574FF13FC7D80BD
:0301D800E480EFD1
:0300000002067E77
:0C067E00787FE4F6D8FD7581220206C5E5
:1001DB00C2D5EC30E709B2D5E4C39DFDE49CFCEE3F
:1001EB0030E715B2D5E4C39FFFE49EFE12021FC396
:1001FB00E49DFDE49CFC800312021F30D507C3E491
:06020B009FFFE49EFE22AD
:0E021100C3E49FFFE49EFEE49DFDE49CFC22FE
:10068A0002089CE493A3F8E493A34003F68001F2E2
:10069A0008DFF48029E493A3F85407240CC8C33371
:1006AA00C4540F4420C8834004F456800146F6DF40
:1006BA00E4800B01020408102040809008E1E47EE7
:1006CA00019360BCA3FF543F30E509541FFEE49335
:1006DA00A360010ECF54C025E060A840B8E493A3FC
:1006EA00FAE493A3F8E493A3C8C582C8CAC583CA27
:1006FA00F0A3C8C582C8CAC583CADFE9DEE780BEDF
:0108F3000004
:10021F00BC000BBE0029EF8DF084FFADF022E4CCC3
:10022F00F875F008EF2FFFEE33FEEC33FCEE9DEC8C
:10023F00984005FCEE9DFE0FD5F0E9E4CEFD22EDD2
:10024F00F8F5F0EE8420D21CFEADF075F008EF2F1C
:10025F00FFED33FD4007985006D5F0F222C398FD0D
:05026F000FD5F0EA22AA
:00000001FF
