:100A7C0002080000020A00000211001E020F001EF4
:100A5800120ADD750D00750E1E75130075141E1231
:100A68000BCE7FEE7E02120B98E509450870FA124C
:040A7800053780F5C9
:10062000120BCE7F011209A78F0CE50CC3949940E1
:1006300005751701803CE50CC39466400BE50C94EE
:10064000995005751702802AAC0CE412022CE4FBC9
:10065000FA79CC78411201A96002500CE50CC394E0
:10066000665005751703800AE50CC394975003750F
:100670001704E4F515F5167D0C7F011206E6AE0DA4
:10068000AF0E7C007D641202E17E007F0ACFCDCFE9
:10069000CECCCE1202E1AD077F021206E6AE0DAF60
:1006A0000E7C007D641202E17E007F0ACFCDCFCEAA
:1006B000CCCE1202E17F031206E67DC87F07120747
:1006C000ACAD177F081206E60516E5167002051593
:1006D000C394C8E51564809480409C120A061202F7
:0606E000608E0D8F0E225A
:1008F9007DC77F011207ACAE13AF147C007D641273
:1009090002E1AD077F061206E6AE13AF147C007D47
:10091900641202E17E007F0ACFCDCFCECCCE120287
:10092900E1AD077F071206E6AE13AF147C007D64C4
:100939001202E17E007F0ACFCDCFCECCCE1202E1EA
:0D0949007F081206E61209577513008F147F
:01095600227E
:10053700E50B450A70617D8C7F011207AC7D0C7F4E
:10054700021206E6AE11AF127C007D0A1202E1AD7F
:10055700077F071206E6AE11AF127C007D0A120272
:10056700E17F081206E612037ABF080A0512E512B0
:1005770070250511802112037ABF090AE5121512A9
:1005870070151511801112037ABF080B12037ABF79
:100597000905E4F511F512E50B6401450A70617D63
:1005A7008C7F011207AC7DC77F021207ACAE0FAF7D
:1005B700107C007D0A1202E1AD077F071206E6AE46
:1005C7000FAF107C007D0A1202E17F081206E612C7
:1005D700037ABF080A0510E5107025050F80211260
:1005E700037ABF090AE51015107015150F8011124F
:1005F700037ABF080B12037ABF0905E4F50FF5105C
:1006070012037ABF0512050BE50B7002050A640297
:09061700450A7004F50AF50B22F6
:100A8C001021C0F9A4B0999282F880908883C6A1F5
:020A9C00868E44
:1006E600EF14B40F0040030207769006FE75F00380
:1006F600A4C58325F0C5837302072B0207300207C2
:100706003502073A02073F02074402074902074E2D
:1007160002075302075802075D02076202076702D3
:10072600076C0207717580018049758002804475E7
:100736008004803F758008803A758010803575800A
:10074600208030758040802B758080802675809053
:100756008021758088801C75808380177580C6808F
:10076600127580A1800D758086800875808E800345
:100776007580FFE5A0541F44C0F5A053A01F742147
:100786002DF8E6F580E5A0541F44E0F5A053A01F20
:100796007F027E00120B987580FFE5A0541F44E08F
:0607A600F5A053A01F2284
:1007AC00EF14B40F00400302083C9007C475F0032B
:1007BC00A4C58325F0C583730207F10207F602076F
:1007CC00FB02080002080502080A02080F020814BE
:1007DC0002081902081E02082302082802082D022A
:1007EC000832020837758001804975800280447593
:1007FC008004803F758008803A7580108035758044
:10080C00208030758040802B75808080267580908C
:10081C008021758088801C75808380177580C680C8
:10082C00127580A1800D758086800875808E80037E
:10083C007580FFE5A0541F44C0F5A053A01F8D8008
:10084C00E5A0541F44E0F5A053A01F7F027E0012C8
:10085C000B987580FFE5A0541F44E0F5A053A01F32
:01086C002269
:100B9800EF1FAC0670011E4C600A7D0C7CA9DCFEC0
:040BA800DDFC80EC04
:010BAC002226
:100ADD007580FFE5A0541F4480F5A053A01FE4F5D9
:0D0AED0080E5A0541F44A0F5A053A01F22D7
:0D0BCE00120A317FCC120ABF7F44020ABF19
:100A0600120A317FCC120ABF7FBE120ABF120B66D2
:100A16008F1E120B66EFFEE51EFFFDAC06EC120202
:0B0A260027E4FBFA7980784102010C04
:080BE7008F993099FDC299229B
:100B1700759850438E40538EFE53890F758B8F7592
:0B0B27008DFDC2ABD28ED2ACD2AF224B
:10037A00E4F531D2C4D2C2D2B5D2B4D2B0D2B1D25B
:10038A00B2D2B3C2C420B0137F14FE120B9830B09D
:10039A00FD7F147E00120B9875310720B1147F146B
:1003AA007E00120B9830B1FD7F147E00120B9875F7
:1003BA00310620B2147F147E00120B9830B2FD7FF2
:1003CA00147E00120B9875310520B3147F147E0039
:1003DA00120B9830B3FD7F147E00120B987531040E
:1003EA00D2C4D2C2D2B5D2B4D2B0D2B1D2B2D2B3BE
:1003FA00C2C220B0147F147E00120B9830B0FD7F69
:10040A00147E00120B9875310B20B1147F147E00F4
:10041A00120B9830B1FD7F147E00120B9875310AC9
:10042A0020B2147F147E00120B9830B2FD7F147E26
:10043A0000120B9875310920B3147F147E00120B39
:10044A009830B3FD7F147E00120B98753108D2C420
:10045A00D2C2D2B5D2B4D2B0D2B1D2B2D2B3C2B56C
:10046A0020B0147F147E00120B9830B0FD7F147EEA
:10047A0000120B9875310F20B1147F147E00120BF5
:10048A009830B1FD7F147E00120B9875310E20B2A0
:10049A00147F147E00120B9830B2FD7F147E001276
:1004AA000B9875310D20B3147F147E00120B98300F
:1004BA00B3FD7F147E00120B9875310CD2C4D2C2E0
:1004CA00D2B5D2B4D2B0D2B1D2B2D2B3C2B420B0C1
:1004DA00147F147E00120B9830B0FD7F147E001238
:1004EA000B9875311320B1147F147E00120B9830CB
:1004FA00B1FD7F147E00120B9875311220B2147F61
:10050A00147E00120B9830B2FD7F147E00120B98F5
:10051A0075311120B3147F147E00120B9830B3FD8D
:0C052A007F147E00120B98753110AF3169
:0105360022A2
:040B3200D2A07F05C9
:100B3600000000000000000000000000000000AE01
:060B4600071FEE70EB2218
:0F0BBF00D2A1120B32C2A17F05120B36C2A022A7
:0C0BDB00C2A1120B32D2A17F05020B3622
:0209DA00AD0767
:1009DC00E4FCC2A07F05120B36ED30E704D2A180F7
:1009EC0002C2A17F05120B36D2A0ED25E0FD7F05DA
:0909FC00120B360CBC08DBC2A092
:010A050022CE
:100AFA00E4FC120B32ED25E0FD30A103430501C2EF
:0C0B0A00A07F05120B360CBC08E8AF05FC
:010B160022BC
:100BAD00120B32A2A1E433FDC2A07F05120B36AFAA
:010BBD000532
:010BBE002214
:100B8000C2A0EF24FF92A17F05120B36120B32C2D6
:080B9000A0D2A17F05020B3683
:040B4C007F057E00A3
:100B5000EF1FAA0670011E4A600BE4FDEDC3940C62
:050B600050EE0D80F7CE
:010B6500226D
:020ABF00A90785
:100AC100E4FBC294E9139294120B4CD294E9C31340
:0C0AD100F90BBB08ED7F057E00020B5006
:100B6600E4FBC294ECC313FCD29430940343048098
:090B7600120B4C0BBB08EBAF04A1
:010B7F002253
:100A3100C200D2947F0C7E00120B50C2947F507E74
:100A410000120B50D2947F0A7E00120B50A2949296
:060A510000120B4CA20094
:010A5700227C
:100A9F008F1F120BBF7F901209DA120BAD7F40121E
:100AAF0009DA120BADAF1F1209DA120BAD020BDB15
:0209A7008F1CA3
:1009A900120BBF7F901209DA120BADAF1C1209DAD4
:1009B900120BAD120BDB120BBF7F911209DA120B6E
:1009C900AD120AFA8F1D7F01120B80120BDBAF1DCE
:0109D90022FB
:060BEF0000007F21DFFE83
:010BF50022DD
:1009570075D901E4F5D8F5F9F5E9FED290120BEF58
:10096700C290120BEF0EBE08F2D2DE309107E5F906
:10097700C3944040F6C2DEE5F9C394404005C2DFA8
:100987007F0022AFF9EFFEADE9EDFFAC06E41202FE
:0F099700277B047AE7798C783C12000312026008
:0109A600222E
:10000300EC4D6011E8497017ED33EC3304600DE4F7
:10001300FCFFFEFD22E933E8330470F80202CC1240
:10002300029758046009E4CC248150062850090241
:1000330002D62840030202D3C0E0EB4A7044B980E1
:1000430006D0E0FB0202C2EF4E701CBD8008EBFF3E
:10005300EAFEE9FD80EBE98DF0A4FEE5F00200EC99
:10006300E9CDF9EAFEEBFFEF89F0A4FCE5F0CE89D8
:10007300F0A42EFFE435F0CD89F0A42DFEE435F095
:100083008067EF4E7005BD80D780C3EF8BF0A4ACC3
:10009300F0EE8BF0A42CFCE435F0F8EF8AF0A42CFE
:1000A300E5F038FCE433CB8DF0A42CFCE5F03BF811
:1000B300EE8AF0A42CFCE5F038F8E433CF89F0A401
:1000C3002CFCE5F038CF3400CE89F0A42FFFE5F007
:1000D3003EFEE433C98DF0A42EFEE5F039CD8AF05F
:1000E300A42FFFE5F03EFEE43DFD33D0E0FB5007D7
:1000F3000BBB000F0202D6EC2CFCEF33FFEE33FEFA
:06010300ED33FD0202AE27
:100109000202D6EC5D046005E8590470030202CCD2
:10011900120297580460F6EC4860F2EC7004FDFE98
:10012900FF22C860DB2481C85009C39860025006C9
:100139000202D39850CAF582E9294B4A7005AB826D
:100149000202C275F0007C1A7880C3EF9BEE9AED2B
:1001590099400DC3EF9BFFEE9AFEED99FDE842F041
:10016900DC23ACF0D0E0FFD0E0FED0E0FDAB822094
:10017900E7101BEB60BAEC2CFCEF33FFEE33FEED1E
:1001890033FD0202AEE803F830E705C0F075F00070
:10019900EF2FFFEE33FEED33FD40B830E7C280AA02
:1001A90074F8CC6480CCC86480C8F58204604FC3FD
:1001B900EB9FF5F0EA9E42F0E99D42F0E89C45F09C
:1001C900603C501DE5825FFFE582D313CB5BCBF426
:1001D9002B5582FB50280ABA002409B9002008804F
:1001E9001DE5825BFBE582D313CF5FCFF4C3132FE9
:1001F9005582FF50090EBE00050DBD00010CC3EB71
:100209009FF5F0EA9E42F0E99D42F0E89C45F060D6
:0902190007CC4820E701B3EC22F8
:1002220075F020800E75F010800575F0087D007E57
:10023200007F003392D530D503120317EC33401000
:10024200EF33FFEE33FEED33FDEC33FCD5F0ED2260
:0E025200E5F0247EA2D513CC92E7CDCEFF229C
:10026000EDD2E7CD33EC3392D524814006E4FFFE96
:10027000FDFC22FCE4CFCECDCC24E0501174FF80F5
:10028000EDC3CC13CCCD13CDCE13CECF13CF047092
:07029000F030D5DE02031778
:10029700E9D2E7C933E833F892D5EDD2E7CD33ECAD
:0702A70033FC5002B2D52226
:1002AE00EC30E7100FBF000C0EBE00080DBD0004B1
:1002BE000BEB6014A2D5EB13FCED92E7FD2274FF5D
:1002CE00FCFDFEFF22E480F8A2D574FF13FC7D80B6
:0302DE00E480EFCA
:0300000002086D86
:0C086D00787FE4F6D8FD7581310208B4F4
:1002E100C2D5EC30E709B2D5E4C39DFDE49CFCEE38
:1002F10030E715B2D5E4C39FFFE49EFE120325C388
:10030100E49DFDE49CFC800312032530D507C3E482
:060311009FFFE49EFE22A6
:0E031700C3E49FFFE49EFEE49DFDE49CFC22F7
:10087900020A58E493A3F8E493A34003F68001F233
:1008890008DFF48029E493A3F85407240CC8C33380
:10089900C4540F4420C8834004F456800146F6DF4F
:1008A900E4800B0102040810204080900A7CE47E59
:1008B900019360BCA3FF543F30E509541FFEE49344
:1008C900A360010ECF54C025E060A840B8E493A30B
:1008D900FAE493A3F8E493A3C8C582C8CAC583CA36
:1008E900F0A3C8C582C8CAC583CADFE9DEE780BEEE
:010A9E000057
:10032500BC000BBE0029EF8DF084FFADF022E4CCBC
:10033500F875F008EF2FFFEE33FEEC33FCEE9DEC85
:10034500984005FCEE9DFE0FD5F0E9E4CEFD22EDCB
:10035500F8F5F0EE8420D21CFEADF075F008EF2F15
:10036500FFED33FD4007985006D5F0F222C398FD06
:050375000FD5F0EA22A3
:00000001FF
