:03000000020AE908
:0C0AE900787FE4F6D8FD758142020B30E6
:02111800610074
:0E10DC0012109D7BFF7A11791812060080F524
:100EA700EF24FB601414601B14602224037026E5F2
:100EB700A0541F4480F5A0801CE5A0541F44A0F552
:100EC700A08012E5A0541F44C0F5A08008E5A054F7
:090ED7001F44E0F5A053A01F2206
:10109D007580FF7F04120EA7E4F5807F05020EA771
:1010AD00C0F9A4B0999282F880908883C6A1868EEB
:100BED008D1FEF14B40800504C900C0475F003A445
:100BFD00C58325F0C58373020C1C020C21020C2643
:100C0D00020C2B020C30020C35020C3A020C3F7513
:100C1D0080018021758002801C758004801775808D
:100C2D00088012758010800D7580208008758040B9
:100C3D0080037580807F06120EA7E51F9010AD937F
:100C4D00F5807F07120EA77F027E0012104F758070
:060C5D00FF7F07020EA755
:100C63008D40EF14B40800504C900C7A75F003A437
:100C7300C58325F0C58373020C92020C97020C9C6A
:100C8300020CA1020CA6020CAB020CB0020CB5754F
:100C930080018021758002801C7580048017758017
:100CA300088012758010800D758020800875804043
:100CB30080037580807F06120EA78540807F071210
:100CC3000EA77F027E0012104F7580FF7F07020E72
:010CD300A779
:100B75008D41EF14B40800504C900B8C75F003A414
:100B8500C58325F0C58373020BA4020BA9020BAE26
:100B9500020BB3020BB8020BBD020BC2020BC775E9
:100BA50080018021758002801C7580048017758006
:100BB500088012758010800D758020800875804032
:100BC50080037580807F06120EA7E5419010AD93D6
:100BD500547FF5807F07120EA77F027E0012104F0B
:080BE5007580FF7F07020EA7D7
:0810EA00C109013E00013F00B5
:100A0D00E4FFD2B3D2B2D2B1D2B0D2B4D2B5D2C247
:100A1D00D2C4C2B420B3047F10801320B2047F115E
:100A2D00800C20B1047F12800520B0027F13D2B359
:100A3D00D2B2D2B1D2B0D2B4D2B5D2C2D2C4C2B572
:100A4D0020B3047F0C801320B2047F0D800C20B1E5
:100A5D00047F0E800520B0027F0FD2B3D2B2D2B187
:100A6D00D2B0D2B4D2B5D2C2D2C4C2C220B3047FE6
:100A7D0008801320B2047F09800C20B1047F0A8006
:100A8D000520B0027F0BD2B3D2B2D2B1D2B0D2B464
:100A9D00D2B5D2C2D2C4C2C420B3047F0480132005
:100AAD00B2047F05800C20B1047F06800520B002C2
:100ABD007F07EFB53E0BE53FC394035009053F801B
:100ACD0005E4F53F8F3EE53FB4030E200906EF60C8
:0B0ADD0003D20922EF7002C2097F0063
:010AE80022EB
:10104F00EF1FAC0670011E4C600A7D0C7CA9DCFE04
:04105F00DDFC80EC48
:01106300226A
:1010BD0080828486888A8C8E81838587898B8D8FAB
:0510F200031655552313
:10107800E4FEC297EF1392A3EFC313FFD2970EBEFD
:0210880008F06E
:01108A002243
:10106400C29300C29700D29300121078AF051210F9
:0410740078C2932289
:100EE000E4FDC29300C29700D29300121078E4FF91
:100EF000C297EDC313FD30A303430580D2970FBF04
:100F000008EEC29300C29700D29700C2A300D2A3FA
:030F100000AF052A
:010F130022BB
:080E1F008F128B138A14891550
:100E27009010C4E493FFE4FD121064E4FCECC39556
:100E370012501EEC9010BD93FFAB130515E515AAD4
:100E4700147002051414F9120502FD1210640C80C7
:0C0E5700DC9010C4E493FF7D8002106466
:040FE900D2A07F050E
:100FED00000000000000000000000000000000AE46
:060FFD00071FEE70EB225D
:0F10CD00D2A1120FE9C2A17F05120FEDC2A0221E
:0C110500C2A1120FE9D2A17F05020FED7C
:020F1400AD0727
:100F1600E4FCC2A07F05120FEDED30E704D2A180FC
:100F260002C2A17F05120FEDD2A0ED25E0FD7F05DF
:090F3600120FED0CBC08DBC2A097
:010F3F00228F
:100FCC00E4FC120FE9ED25E0FD30A103430501C25D
:0C0FDC00A07F05120FED0CBC08E8AF056B
:010FE80022E6
:10108B00120FE9A2A1E433FDC2A07F05120FEDAF51
:01109B00054F
:01109C002231
:10103700C2A0EF24FF92A17F05120FED120FE9C2A4
:08104700A0D2A17F05020FED0C
:041003007F057E00E7
:10100700EF1FAA0670011E4A600BE4FDEDC3940CA6
:0510170050EE0D80F712
:01101C0022B1
:020FAE00A90791
:100FB000E4FBC294E9139294121003D294E9C31390
:0C0FC000F90BBB08ED7F057E0002100756
:10101D00E4FBC294ECC313FCD294309403430480DC
:09102D001210030BBB08EBAF0429
:011036002297
:100F4000C20AD2947F0C7E00121007C2947F507E9A
:100F500000121007D2947F0A7E00121007A294920A
:060F60000A121003A20AB0
:010F66002268
:0D10F800120F407FCC120FAE7F44020FAEEE
:100D8700120F407FCC120FAE7FBE120FAE12101D96
:100D97008F1B12101DEFF519E51BF51AE51920E752
:100DA70008FCAD1A1202A6801AAE19EE3395E0FDC3
:100DB700FCE4251AFFE43EFEED34FFFDEC34FFFCB6
:0D0DC7001202A1E4FBFA7980783D1200FBD6
:010DD40022FC
:020DD5008F1C71
:100DD7001210CD7F90120F1412108BAF1C120F142C
:100DE70012108B1211051210CD7F91120F141210D1
:100DF7008B120FCC8F1DE4FF121037120FCC8F1EF2
:100E07007F01121037121105AC1EE41202ABE4FB8E
:080E1700FA794C784202020452
:100F8E008F421210CD7F90120F1412108B7F4012D1
:100F9E000F1412108BAF42120F1412108B02110588
:100E63008F088D098B0A8A0B890C1210CD7FA01273
:100E73000F1412108BAF088019AF091509EF601A10
:100E8300AB0A050CE50CAA0B7002050B14F912054D
:100E930002FF120F1412108B80DF1211057F057EE3
:040EA3000002104FEA
:100D2E008F0D8D0E8B0F8A1089111210CD7FA01290
:100D3E000F1412108BAF0D120F1412108B1211050F
:100D4E001210CD7FA1120F1412108BAF0E150EEFD5
:100D5E006024120FCCAB0F0511E511AA107002051D
:100D6E001014F9EF120548E50E6004E4FF80027FCF
:090D7E000112103780D5021105A5
:0611110000007F21DFFE5B
:0111170022B5
:100CD40075D901E4F5D8F5F9F5E9FED290121111B0
:100CE400C2901211110EBE08F2D2DE309107E5F95E
:100CF400C3944040F6E5F9C394404004E4FEFF2267
:100D0400C2DEAFF9EFFEADE9EDFFAC06E41202A6D8
:100D14007B047AE7798C783C1200FB7B867A5A79DB
:090D240053784012000A1202DFAC
:010D2D0022A3
:1000030002034BE86480F8E933E83360110460F0DD
:10001300ED33EC337009E8FCE9FDEAFEEBFF220463
:1000230060DED3EB9FEA9EE99DE8C2E78CF0C2F75E
:1000330095F0400CE8CCF8E9CDF9EACEFAEBCFFB2A
:1000430012031685D0F05804700320D5B3E804706A
:10005300075002B2D502035592D5EC0460F7E4CC05
:10006300C0E0C398F8603B94186008400DD0E0FBF3
:1000730002032DE4FBFAC9FC8028E830E406E4C956
:10008300FBE4CAFCE830E305E4C9CACBFCE8540747
:100093006010F8C3E913F9EA13FAEB13FBEC13FC52
:1000A300D8F130F52FC3E49CFCEF9BFFEE9AFEEDF5
:1000B30099FDD0E0FBEF4E4D4C701222DB0302039F
:1000C30052EC2CFCEF33FFEE33FEED33FDED30E766
:1000D300EB02032DEF2BFFEE3AFEED39FDD0E0FBF3
:1000E30050130BBB0003020355ED13FDEE13FEEF9C
:0800F30013FFEC13FC02032DC6
:1000FB00EC4D6011E8497017ED33EC3304600DE4FF
:10010B00FCFFFEFD22E933E8330470F802034B12C7
:10011B00031658046009E4CC2481500628500902C8
:10012B000355284003020352C0E0EB4A7044B980E8
:10013B0006D0E0FB020341EF4E701CBD8008EBFFC5
:10014B00EAFEE9FD80EBE98DF0A4FEE5F00201E4A7
:10015B00E9CDF9EAFEEBFFEF89F0A4FCE5F0CE89DF
:10016B00F0A42EFFE435F0CD89F0A42DFEE435F09C
:10017B008067EF4E7005BD80D780C3EF8BF0A4ACCA
:10018B00F0EE8BF0A42CFCE435F0F8EF8AF0A42C05
:10019B00E5F038FCE433CB8DF0A42CFCE5F03BF818
:1001AB00EE8AF0A42CFCE5F038F8E433CF89F0A408
:1001BB002CFCE5F038CF3400CE89F0A42FFFE5F00E
:1001CB003EFEE433C98DF0A42EFEE5F039CD8AF066
:1001DB00A42FFFE5F03EFEE43DFD33D0E0FB5007DE
:1001EB000BBB000F020355EC2CFCEF33FFEE33FE81
:0601FB00ED33FD02032DAF
:10020100020355EC5D046005E85904700302034BD9
:10021100120316580460F6EC4860F2EC7004FDFE1F
:10022100FF22C860DB2481C85009C39860025006D0
:100231000203529850CAF582E9294B4A7005AB82F4
:1002410002034175F0007C1A7880C3EF9BEE9AEDB2
:1002510099400DC3EF9BFFEE9AFEED99FDE842F048
:10026100DC23ACF0D0E0FFD0E0FED0E0FDAB82209B
:10027100E7101BEB60BAEC2CFCEF33FFEE33FEED25
:1002810033FD02032DE803F830E705C0F075F000F7
:10029100EF2FFFEE33FEED33FD40B830E7C280AA09
:1002A10075F020800E75F010800575F0087D007ED8
:1002B100007F003392D530D50312055AEC3340103C
:1002C100EF33FFEE33FEED33FDEC33FCD5F0ED22E1
:0E02D100E5F0247EA2D513CC92E7CDCEFF221D
:1002DF00EDD2E7CD33EC3392D524814006E4FFFE17
:1002EF00FDFC22FCE4CFCECDCC24E0501174FF8076
:1002FF00EDC3CC13CCCD13CDCE13CECF13CF047013
:07030F00F030D5DE02055AB3
:10059E00E5392425F8E60539227822300702782538
:1005AE00E475F0011205680205022000EB7F2ED2E1
:1005BE00008018EF540F2490D43440D4FF30040B35
:1005CE00EF24BFB41A0050032461FFE53A60021510
:1005DE003A053DE53D7002053C30070D7822E47585
:1005EE00F001120568EF020548020F677403D20787
:1005FE008003E4C207F5398B228A238924E4F53A75
:10060E00F53CF53DE53A60077F201205D980F5757A
:10061E003BFFC201C200C202C203C205C206C2082B
:10062E001205A7FF700D3007057F001205EAAF3DDA
:10063E00AE3C22B4255FC2D5C2041205A7FF24D05A
:10064E00B40A00501A75F00A783A30D50508B6FF8C
:10065E000106C6A426F620D5047002D20380D92442
:10066E00CFB41A00EF5004C2E5D2040208D7D2016B
:10067E0080C6D20080C0D20280BCD2D580BAD2054C
:10068E0080B47F201205D92002077401B53A0040CC
:10069E00F112059EFF1205D9020612D208D206806B
:1006AE009512059EFB12059EFA12059EF94A4B7095
:1006BE000679CE7A097BFF20022EE53A602A7E006B
:1006CE008E8275830012051B60060EEE653B70F080
:1006DE00C2D5EBC0E0EAC0E0E9C0E0EE120937D0C7
:1006EE00E0F9D0E0FAD0E0FB120502FF60AAEBC001
:1006FE00E0EAC0E0E9C0E01205D9D0E02401F9D06B
:10070E00E03400FAD0E0FBE53B0460DCD53BD98059
:10071E0087D20280A212091A60F7E53B700104121B
:10072E000360A93B600DE53B600914F53B1209C15E
:10073E00EF60F3EA30E702F404C3995077EAF42548
:10074E003B0430E701E404F53B800D12091A60C149
:10075E00EA053B253B120360EA7838F630E701E400
:10076E00253B04D53B0420050114120937E4C0E0F3
:10077E001209C17838E6601320E70714F61205C196
:10078E00802204F6D0E014C0E07F001205C1E53BE4
:10079E0060071205B8153B800B3005031205B8D063
:1007AE00E0020612D0E00480C512091A60A0E53BF3
:1007BE00041203607838EAF6E53B20050260010476
:0507CE002404120937AC
:1007D30074FF04C0E01209C11205C1E53B20050204
:1007E30060031205B8D0E0B53BE87F451205CB782E
:1007F30038E67F2B30E7047F2DF404C0E01205D9DF
:10080300D0E075F00A84C0F01205C2D0E01205C230
:10081300020612791080027908C206C2088008D243
:10082300D5790A8004790AC2D5E53B047002F53B09
:10083300E4FAFDFEFF12059EFC7B0820011312055E
:100843009EFD7B1030000A12059EFE12059EFF7B63
:1008530020EC3382D592D55013C3E43000069FFFBA
:10086300E49EFEE42001039DFDE49CFCE4CBF8C27E
:1008730001EC700CCFCECDCCE824F8F870F38017E0
:10088300C3EF33FFEE33FEED33FDEC33FCEB33FB11
:10089300994002FB0FD8E9EB300105F8D0E0C448DA
:1008A300B201C0E00AEC4D4E4F78207B0070C2EAE3
:1008B300B53B0040BCC0E0120939D0F0D0E02001C4
:1008C30004C4C0E0C4B201C0F01205C2D0F0D5F038
:1008D300EB02061212057806AF5308165806804C31
:1008E300067C42081A4F0822440822490695430809
:1008F300285507594607B74507234709EE5006848D
:100903002D06882E06AB2B068C2306A92009D72A91
:10091300064448000006A3E53BB4FF03753B0612FB
:10092300059EFC12059EFD12059EFE12059EFF7894
:100933003102038F790AA2D5200314300509B910B7
:10094300020404B9080104A2D520060250010420C0
:1009530002689202B53A005034C0E07F2030031998
:100963007F30A20272067205500F120990C202C2B2
:1009730006C205C2087F30800F300503E9C0E012CC
:1009830005D9300503D0E0F9D0E0B53ACC300517EE
:100993007F30B9100C1205D97F583004077F788057
:1009A30003B908031205D93002057F2D0205D97F4B
:1009B300202008F87F2B2006F322920280CF7F00AD
:1009C300B4070050052431F8E6FF22286E756C6CDD
:1009D3002900D20112059E3001F8C201783A30D5C0
:1009E3000108F60206442D5043495812059E24037C
:1009F300B405004001E49009E9931205CA743A1260
:0A0A030005CAD203753A0402081672
:10031600E9D2E7C933E833F892D5EDD2E7CD33EC2D
:0703260033FC5002B2D522A6
:10032D00EC30E7100FBF000C0EBE00080DBD000431
:10033D000BEB6014A2D5EB13FCED92E7FD2274FFDD
:10034D00FCFDFEFF22E480F8A2D574FF13FC7D8036
:03035D00E480EF4A
:10036000F920E72824F950037907E4F42402FB1864
:10037000DBFDE624FB5014E9600DE4F618E604F614
:0F038000B40A08E4F6D9F57401F60A22C2D522B0
:10038F00ED33EC3392D5FA602AB4FF33EDC2E77B3D
:10039F00FF60067A0379B4E4227A0379BD20D5048D
:1003AF007A0379B8224E614E002B494E46002D49F3
:1003BF004E4600E47A08F608DAFC7B00740722E860
:1003CF00C0E0ECC0E0EDC0E0EEC0E0EFC0E0EA75E9
:1003DF00F010A4CAABF075F04DA42BFBE435F0FC84
:1003EF00EA2410FAEB34C5FBEC34D9FCEDC2E7FF7D
:1003FF0075F056A4F42411C5F0F434C58FF0A42A77
:10040F00E5F03BE43CF620E7141204C2D0E0FFD045
:10041F00E0FED0E0FDD0E0FC1202048014F40412E0
:10042F0004C2D0E0FFD0E0FED0E0FDD0E0FC12002F
:10043F00FBD0E0F8E6FAEDD2E7CD33EC332482FBC4
:10044F00E4C3CF33CFCE33CECD33CD33DBF37B0706
:10045F0075F00A846004F6081B0AE5F0F6088FF0C1
:10046F00740AA4FFACF08EF0740AA42CFEACF0500A
:10047F00010C8DF0740AA42CFDE435F0F608DBDED8
:03048F00740722CD
:100492003F8000004120000042C80000447A000072
:1004A200461C400047C35000497424004B189680F4
:1004B2004CBEBC205A0E1BCA6753C21C749DC5AEEB
:1004C200FB60065407601C23231204F0EB543860CF
:1004D200091204DC1204EB1200FBECF8EDF9EEFA5F
:1004E200EFCB22EB1204EB80F1543803241C90046E
:1004F20092FE93FC0EEE93FD0EEE930ECE93FF2230
:100AF5000210DCE493A3F8E493A34003F68001F22B
:100B050008DFF48029E493A3F85407240CC8C33301
:100B1500C4540F4420C8834004F456800146F6DFD0
:100B2500E4800B01020408102040809010EAE47E66
:100B3500019360BCA3FF543F30E509541FFEE493C5
:100B4500A360010ECF54C025E060A840B8E493A38C
:100B5500FAE493A3F8E493A3C8C582C8CAC583CAB7
:100B6500F0A3C8C582C8CAC583CADFE9DEE780BE6F
:0110F70000F8
:10050200BB010689828A83E0225002E722BBFE02F7
:09051200E32289828A83E493222A
:10051B00BB010CE58229F582E5833AF583E0225095
:10052B0006E92582F8E622BBFE06E92582F8E222DF
:0D053B00E58229F582E5833AF583E49322F9
:10054800BB010689828A83F0225002F722BBFE0192
:02055800F3228C
:0E055A00C3E49FFFE49EFEE49DFDE49CFC22B2
:10056800FAE6FB0808E6F925F0F618E6CA3AF62294
:10057800D083D082F8E4937012740193700DA3A312
:1005880093F8740193F5828883E473740293686026
:06059800EFA3A3A380DF26
:100F6700EFB40A07740D120F72740A309811A8991A
:100F7700B8130CC2983098FDA899C298B811F630EA
:070F870099FDC299F59922C2
:00000001FF
