:03000000020A47AA
:0C0A4700787FE4F6D8FD75812A020A8E43
:100EB2000113000110000309000000C100C101C1BB
:100EC20002041500000000041940400000040C0058
:0D0ED20000000001140001080002110000E2
:100CA1007DC17F01120BC1AF18AE17AD16AC151285
:100CB100037BAD077F06120AD3E4FFFE7D207C4152
:100CC100AB18AA17A916A81512011E12037B7C00E6
:100CD1007D0A1204277F07120B4BE4FFFE7DC87CBF
:100CE10042AB18AA17A916A81512011E12037B7C84
:0B0CF100007D0A1204277F08020B4B55
:100CFC007D8C7F01120BC1AF1CAE1BAD1AAC19124F
:100D0C00037BAD077F06120AD3E4FFFE7D207C41F6
:100D1C00AB1CAA1BA91AA81912011E12037B7C007A
:100D2C007D0A1204277F07120B4BE4FFFE7DC87C63
:100D3C0042AB1CAA1BA91AA81912011E12037B7C18
:0B0D4C00007D0A1204277F08020B4BF9
:10059F007DC87F01120BC17B407A42790F7800AF83
:1005AF000FAE0EAD0DAC0C120499E4FBFAF9F8C3C3
:1005BF00120539603F7B407A42790F7800AF0FAE5A
:1005CF000EAD0DAC0C120499AD077F02120B4B7BD5
:1005DF00407A42790F7800AF0FAE0EAD0DAC0C1212
:1005EF000499AC00AD01AE02AF037BA07A8679010E
:1005FF007800802D7BA07A8679017800AF0FAE0E40
:10060F00AD0DAC0C120499E4FBFAF9F8C3120539DD
:10061F00603D7BA07A86097800AF0FAE0EAD0DACB2
:10062F000C120499AD077F03120B4B7BA07A8679CE
:10063F00017800AF0FAE0EAD0DAC0C120499AC00EB
:10064F00AD01AE02AF03E47B107A27F9F8802BE4FB
:10065F007B107A27F9F8AF0FAE0EAD0DAC0C12046C
:10066F0099E4FBFAF9F8C3120539603BE47B107A81
:10067F0027F8AF0FAE0EAD0DAC0C120499AD077F7E
:10068F0004120B4BE47B107A27F9F8AF0FAE0EADC7
:10069F000DAC0C120499AC00AD01AE02AF03E47BBC
:1006AF00E87A03F9F8802BE47BE87A03F9F8AF0FC7
:1006BF00AE0EAD0DAC0C120499E4FBFAF9F8C312AF
:1006CF000539603AE47BE87A03F8AF0FAE0EAD0D53
:1006DF00AC0C120499AD077F05120B4BE47BE87A43
:1006EF0003F9F8AF0FAE0EAD0DAC0C120499AC00C0
:1006FF00AD01AE02AF03E47B64FAF9F88028E47B26
:10070F0064FAF9F8AF0FAE0EAD0DAC0C120499E40C
:10071F00FBFAF9F8C31205396056E47B64F8AF0FA2
:10072F00AE0EAD0DAC0C120499AD077F06120B4B3C
:10073F00E47B64FAF9F8AF0FAE0EAD0DAC0C1204FA
:10074F0099AC00AD01AE02AF03E47B0AFAF9F812DF
:10075F000499AD077F07120B4BE47B0AFAF9F8AF48
:10076F000FAE0EAD0DAC0C120499AF03AD07804B5D
:10077F00E47B0AFAF9F8AF0FAE0EAD0DAC0C120414
:10078F0099E4FBFAF9F8C3120539602DE47B0AF8F6
:10079F00AF0FAE0EAD0DAC0C120499AD077F071263
:1007AF000B4BE47B0AFAF9F8AF0FAE0EAD0DAC0CA4
:1007BF00120499AF03AD078002AD0F7F08120B4BE8
:0107CF002207
:03000B000207D019
:1007D000C0E0C0F0C083C082C0D075D000C000C0EF
:1007E00001C002C003C004C005C006C007AF1CAEF4
:1007F0001BAD1AAC19AB18AA17A916A8151202C47A
:10080000500A0512E512700A05118006751100756F
:100810001200AF1CAE1BAD1AAC19AB18AA17A91663
:10082000A8151202C460064004D201C20230012E93
:10083000AF1CAE1BAD1AAC19AB18AA17A916A81598
:100840001202C45019D202E50F2401F50FE4350E4F
:10085000F50EE4350DF50DE4350CF50CC201050877
:1008600012097D8F13E513640C6018E513640D60A5
:1008700012E5136410600CE51364116006E5136063
:10088000020514E513640C6011E513640D600BE5BB
:100890001364106005E513B41103751400E513B477
:1008A0000C0C0510E510D394024003751000E51000
:1008B000B4022FE513B40D0C750F00750E00750D05
:1008C00000750C00E513B40C19D200E4FFFE7D2086
:1008D0007C41AB1CAA1BA91AA81912011E12037B8A
:1008E0008F09E5106401707AE513B41035E4FFFE5A
:1008F0007DA07C40AB1CAA1BA91AA8191202C450E7
:1009000013AF1CAE1BAD1AAC19E4FBFAF9783F1219
:10091000002D8038751C00751B00751A00751900B4
:100920008040E513B4113BE4FFFEFDFCAB1CAA1BA9
:10093000A91AA8191202C4601D401BAF1CAE1BAD42
:100940001AAC19E4FBFAF9783F1200298F1C8E1BB0
:100950008D1A8C19800C751C00751B00751AA075FA
:100960001940D007D006D005D004D003D002D00162
:0D097000D000D0D0D082D083D0F0D0E032C3
:100E3D007580FFD3E51294F4E511940140055380BC
:100E4D00FE8000E50F5401FFE4FEFDFCFBFAF9F80E
:100E5D00C312053960055380FD8000E514D394035A
:0C0E6D0040055380FB80007F04020E79DA
:10000E00538E7F5389F0758AF0758CD8C28DD28C41
:05001E00D2A9D2AF22BF
:100C32001210AF12000E7B007A007909752501E4CB
:100C4200FD120D57AC09E4120347E4FBFA79207850
:100C5200411202278F1C8E1B8D1A8C19120E3D30E9
:100C620000107B007A007909752501E4FD120DFB65
:100C7200C200E508D39405400E120DAA8F188E17F4
:100C82008D168C15E4F508E5107005120CA180CCC8
:0F0C9200E510B40105120CFC80C212059F80BD55
:10105100EF1FAC0670011E4C600A7D0C7CA9DCFE02
:04106100DDFC80EC46
:011065002268
:030023000210DCEC
:0C10DC00309808C29885992A75290132C5
:100FD000759850538EBF538EFE53890F758BCC7509
:0B0FE0008DFFC2ABD28ED2ACD2AF228C
:080003008F993099FDC299228A
:100F70008B1D8A1E891FAB1DAA1EA91F1203FC60B0
:100F800013051FE51F7002051E14F91203FCFF1262
:050F9000000380E222D5
:0E10CE00E529B40106E4F5297F01227F002206
:10107A00E4FEC297EF1392A3EFC313FFD2970EBEFB
:02108A0008F06C
:01108C002241
:10106600C29300C29700D2930012107AAF051210F5
:041076007AC2932285
:100EE900E4FDC29300C29700D2930012107AE4FF86
:100EF900C297EDC313FD30A303430580D2970FBFFB
:100F090008EEC29300C29700D29700C2A300D2A3F1
:030F190000AF0521
:010F1C0022B2
:040FEB00D2A07F050C
:100FEF00000000000000000000000000000000AE44
:060FFF00071FEE70EB225B
:0F10BF00D2A1120FEBC2A17F05120FEFC2A02228
:0C10E800C2A1120FEBD2A17F05020FEF96
:020F1D00AD071E
:100F1F00E4FCC2A07F05120FEFED30E704D2A180F1
:100F2F0002C2A17F05120FEFD2A0ED25E0FD7F05D4
:090F3F00120FEF0CBC08DBC2A08C
:010F48002286
:100FB300E4FC120FEBED25E0FD30A103430501C274
:0C0FC300A07F05120FEF0CBC08E8AF0582
:010FCF0022FF
:10108D00120FEBA2A1E433FDC2A07F05120FEFAF4B
:01109D00054D
:01109E00222F
:10103900C2A0EF24FF92A17F05120FEF120FEBC29E
:08104900A0D2A17F05020FEF08
:041005007F057E00E5
:10100900EF1FAA0670011E4A600BE4FDEDC3940CA4
:0510190050EE0D80F710
:01101E0022AF
:020F9500A907AA
:100F9700E4FBC294E9139294121005D294E9C313A7
:0C0FA700F90BBB08ED7F057E000210096D
:10101F00E4FBC294ECC313FCD294309403430480DA
:09102F001210050BBB08EBAF0425
:011038002295
:100F4900C203D2947F0C7E00121009C2947F507E96
:100F590000121009D2947F0A7E00121009A29492FD
:060F690003121005A203B3
:010F6F00225F
:100DFB008B218A2289238D241210BF7FA0120F1DF5
:100E0B0012108DAF248019AF251525EF601AAB2179
:100E1B000523E523AA227002052214F91203FCFF15
:100E2B00120F1D12108D80DF1210E87F057E00025D
:020E3B00105154
:100D57008B218A2289238D241210BF7FA0120F1D99
:100D670012108DAF24120F1D12108D1210E81210E1
:100D7700BF7FA1120F1D12108DAF251525EF602023
:100D8700120FB3AB210523E523AA22700205221413
:100D9700F9EF120415E52560E07F0112103980D9BB
:030DA7000210E84F
:10109F00C0F9A4B0999282F880908883C6A1868EF9
:100B4B008D21EF14B40800504C900B6275F003A488
:100B5B00C58325F0C58373020B7A020B7F020B84CE
:100B6B00020B89020B8E020B93020B98020B9D75E5
:100B7B0080018021758002801C7580048017758030
:100B8B00088012758010800D75802080087580405C
:100B9B0080037580807F06120E79E52190109F935C
:100BAB00F5807F07120E797F027E0012105175803F
:060BBB00FF7F07020E7926
:100BC1008D21EF14B40800504C900BD875F003A49C
:100BD100C58325F0C58373020BF0020BF5020BFAF6
:100BE100020BFF020C04020C09020C0E020C13751D
:100BF10080018021758002801C75800480177580BA
:100C0100088012758010800D7580208008758040E5
:100C110080037580807F06120E798521807F0712FF
:100C21000E797F027E001210517580FF7F07020E40
:010C31007949
:100AD3008D21EF14B40800504C900AEA75F003A47A
:100AE300C58325F0C58373020B02020B07020B0CAF
:100AF300020B11020B16020B1B020B20020B2575B6
:100B030080018021758002801C75800480177580A8
:100B1300088012758010800D7580208008758040D4
:100B230080037580807F06120E79E52190109F93D4
:100B3300547FF5807F07120E797F027E00121051D9
:080B43007580FF7F07020E79A7
:100E7900EF24FB601414601B14602224037026E520
:100E8900A0541F4480F5A0801CE5A0541F44A0F580
:100E9900A08012E5A0541F44C0F5A08008E5A05425
:090EA9001F44E0F5A053A01F2234
:090EDF0001260001270001280092
:10097D00E4FFD2B3D2B2D2B1D2B0D2B4D2B5D2C2D8
:10098D00D2C4C2B320C4027F0420C2027F0820B5A6
:10099D00027F0C20B4027F10D2B3D2B2D2B1D2B04A
:1009AD00D2B4D2B5D2C2D2C4C2B220C4027F052005
:1009BD00C2027F0920B5027F0D20B4027F11D2B390
:1009CD00D2B2D2B1D2B0D2B4D2B5D2C2D2C4C2B1E7
:1009DD0020C4027F0620C2027F0A20B5027F0E20AE
:1009ED00B4027F12D2B3D2B2D2B1D2B0D2B4D2B598
:1009FD00D2C2D2C4C2B020C4027F0720C2027F0B74
:100A0D0020B5027F0F20B4027F13E526B5070BE555
:100A1D0028C394035009052880058F26E4F528E5A1
:100A2D002864037012EF6008E52770047527012212
:090A3D00EF7004F527FF227F0091
:010A4600228D
:1010AF007580FF7F04120E79E4F5807F05020E79BB
:100DAA00E4F521F522FFFEFDFC1210BF7F90120F21
:100DBA001D12108D7F03120F1D12108D1210E812D2
:100DCA0010BF7F91120F1D12108D120FB38F22E4E4
:100DDA00FF121039120FB38F217F0112103912102E
:100DEA00E8AC21E4120347E4FBFA794C78420202A8
:010DFA0027D1
:100026000203E7E86480F8E933E83360110460F01E
:10003600ED33EC337009E8FCE9FDEAFEEBFF220440
:1000460060DED3EB9FEA9EE99DE8C2E78CF0C2F73B
:1000560095F0400CE8CCF8E9CDF9EACEFAEBCFFB07
:100066001203B285D0F05804700320D5B3E80470AB
:10007600075002B2D50203F192D5EC0460F7E4CC46
:10008600C0E0C398F8603B94186008400DD0E0FBD0
:100096000203C9E4FBFAC9FC8028E830E406E4C997
:1000A600FBE4CAFCE830E305E4C9CACBFCE8540724
:1000B6006010F8C3E913F9EA13FAEB13FBEC13FC2F
:1000C600D8F130F52FC3E49CFCEF9BFFEE9AFEEDD2
:1000D60099FDD0E0FBEF4E4D4C701222DB0302037C
:1000E600EEEC2CFCEF33FFEE33FEED33FDED30E7A7
:1000F600EB0203C9EF2BFFEE3AFEED39FDD0E0FB34
:1001060050130BBB00030203F1ED13FDEE13FEEFDC
:0801160013FFEC13FC0203C906
:10011E00EC4D6011E8497017ED33EC3304600DE4DB
:10012E00FCFFFEFD22E933E8330470F80203E71208
:10013E0003B258046009E4CC248150062850090209
:10014E0003F12840030203EEC0E0EB4A7044B9808D
:10015E0006D0E0FB0203DDEF4E701CBD8008EBFF06
:10016E00EAFEE9FD80EBE98DF0A4FEE5F002020760
:10017E00E9CDF9EAFEEBFFEF89F0A4FCE5F0CE89BC
:10018E00F0A42EFFE435F0CD89F0A42DFEE435F079
:10019E008067EF4E7005BD80D780C3EF8BF0A4ACA7
:1001AE00F0EE8BF0A42CFCE435F0F8EF8AF0A42CE2
:1001BE00E5F038FCE433CB8DF0A42CFCE5F03BF8F5
:1001CE00EE8AF0A42CFCE5F038F8E433CF89F0A4E5
:1001DE002CFCE5F038CF3400CE89F0A42FFFE5F0EB
:1001EE003EFEE433C98DF0A42EFEE5F039CD8AF043
:1001FE00A42FFFE5F03EFEE43DFD33D0E0FB5007BB
:10020E000BBB000F0203F1EC2CFCEF33FFEE33FEC1
:06021E00ED33FD0203C9EF
:100224000203F1EC5D046005E8590470030203E77E
:100234001203B2580460F6EC4860F2EC7004FDFE60
:10024400FF22C860DB2481C85009C39860025006AD
:100254000203EE9850CAF582E9294B4A7005AB8235
:100264000203DD75F0007C1A7880C3EF9BEE9AEDF3
:1002740099400DC3EF9BFFEE9AFEED99FDE842F025
:10028400DC23ACF0D0E0FFD0E0FED0E0FDAB822078
:10029400E7101BEB60BAEC2CFCEF33FFEE33FEED02
:1002A40033FD0203C9E803F830E705C0F075F00038
:1002B400EF2FFFEE33FEED33FD40B830E7C280AAE6
:1002C40074F8CC6480CCC86480C8F58204604FC3E1
:1002D400EB9FF5F0EA9E42F0E99D42F0E89C45F080
:1002E400603C501DE5825FFFE582D313CB5BCBF40A
:1002F4002B5582FB50280ABA002409B90020088033
:100304001DE5825BFBE582D313CF5FCFF4C3132FCC
:100314005582FF50090EBE00050DBD00010CC3EB54
:100324009FF5F0EA9E42F0E99D42F0E89C45F060BA
:0903340007CC4820E701B3EC22DC
:10033D0075F020800E75F010800575F0087D007E3B
:10034D00007F003392D530D50312052BEC334010CE
:10035D00EF33FFEE33FEED33FDEC33FCD5F0ED2244
:0E036D00E5F0247EA2D513CC92E7CDCEFF2280
:10037B00EDD2E7CD33EC3392D524814006E4FFFE7A
:10038B00FDFC22FCE4CFCECDCC24E0501174FF80D9
:10039B00EDC3CC13CCCD13CDCE13CECF13CF047076
:0703AB00F030D5DE02052B46
:1003B200E9D2E7C933E833F892D5EDD2E7CD33EC91
:0703C20033FC5002B2D5220A
:1003C900EC30E7100FBF000C0EBE00080DBD000495
:1003D9000BEB6014A2D5EB13FCED92E7FD2274FF41
:1003E900FCFDFEFF22E480F8A2D574FF13FC7D809A
:0303F900E480EFAE
:100A5300020C32E493A3F8E493A34003F68001F27B
:100A630008DFF48029E493A3F85407240CC8C333A4
:100A7300C4540F4420C8834004F456800146F6DF73
:100A8300E4800B0102040810204080900EB2E47E43
:100A9300019360BCA3FF543F30E509541FFEE49368
:100AA300A360010ECF54C025E060A840B8E493A32F
:100AB300FAE493A3F8E493A3C8C582C8CAC583CA5A
:100AC300F0A3C8C582C8CAC583CADFE9DEE780BE12
:010EE8000009
:1003FC00BB010689828A83E0225002E722BBFE02FF
:09040C00E32289828A83E4932231
:10041500BB010689828A83F0225002F722BBFE01C6
:02042500F322C0
:10042700C2D5EC30E709B2D5E4C39DFDE49CFCEEF0
:1004370030E715B2D5E4C39FFFE49EFE12054AC319
:10044700E49DFDE49CFC800312054A30D507C3E414
:060457009FFFE49EFE225F
:10045D0075F008758200EF2FFFEE33FECD33CDCC56
:10046D0033CCC58233C5829BED9AEC99E5829840D9
:10047D000CF582EE9BFEED9AFDEC99FC0FD5F0D6B6
:10048D00E4CEFBE4CDFAE4CCF9A88222B800C1B9E0
:10049D000059BA002DEC8BF084CFCECDFCE5F0CB1E
:1004AD00F97818EF2FFFEE33FEED33FDEC33FCEB57
:1004BD0033FB10D703994004EB99FB0FD8E5E4F912
:1004CD00FA227818EF2FFFEE33FEED33FDEC33FCFF
:1004DD00C933C910D7059BE99A4007EC9BFCE99AF3
:1004ED00F90FD8E0E4C9FAE4CCFB2275F010EF2F38
:1004FD00FFEE33FEED33FDCC33CCC833C810D70738
:10050D009BEC9AE899400AED9BFDEC9AFCE899F872
:0E051D000FD5F0DAE4CDFBE4CCFAE4C8F92205
:0E052B00C3E49FFFE49EFEE49DFDE49CFC22E1
:10053900EB9FF5F0EA9E42F0E99D42F0E89C45F018
:01054900228F
:10054A00BC000BBE0029EF8DF084FFADF022E4CC95
:10055A00F875F008EF2FFFEE33FEEC33FCEE9DEC5E
:10056A00984005FCEE9DFE0FD5F0E9E4CEFD22EDA4
:10057A00F8F5F0EE8420D21CFEADF075F008EF2FEE
:10058A00FFED33FD4007985006D5F0F222C398FDDF
:05059A000FD5F0EA227C
:00000001FF
