:03000000020A4CA5
:0C0A4C00787FE4F6D8FD75812A020A9339
:100EB7000113000110000309000000C100C101C1B6
:100EC70002041500000000041940400000040C0053
:0D0ED70000000001140001080002110000DD
:100CA6007DC17F01120BC6AF18AE17AD16AC15127B
:100CB600037BAD077F06120AD8E4FFFE7D207C4148
:100CC600AB18AA17A916A81512011E12037B7C00E1
:100CD6007D0A1204277F07120B50E4FFFE7DC87CB5
:100CE60042AB18AA17A916A81512011E12037B7C7F
:0B0CF600007D0A1204277F08020B504B
:100D01007D8C7F01120BC6AF1CAE1BAD1AAC191244
:100D1100037BAD077F06120AD8E4FFFE7D207C41EC
:100D2100AB1CAA1BA91AA81912011E12037B7C0075
:100D31007D0A1204277F07120B50E4FFFE7DC87C59
:100D410042AB1CAA1BA91AA81912011E12037B7C13
:0B0D5100007D0A1204277F08020B50EF
:10059F007DC87F01120BC67B407A42790F7800AF7E
:1005AF000FAE0EAD0DAC0C120499E4FBFAF9F8C3C3
:1005BF00120539603F7B407A42790F7800AF0FAE5A
:1005CF000EAD0DAC0C120499AD077F02120B507BD0
:1005DF00407A42790F7800AF0FAE0EAD0DAC0C1212
:1005EF000499AC00AD01AE02AF037BA07A8679010E
:1005FF007800802D7BA07A8679017800AF0FAE0E40
:10060F00AD0DAC0C120499E4FBFAF9F8C3120539DD
:10061F00603D7BA07A86097800AF0FAE0EAD0DACB2
:10062F000C120499AD077F03120B507BA07A8679C9
:10063F00017800AF0FAE0EAD0DAC0C120499AC00EB
:10064F00AD01AE02AF03E47B107A27F9F8802BE4FB
:10065F007B107A27F9F8AF0FAE0EAD0DAC0C12046C
:10066F0099E4FBFAF9F8C3120539603BE47B107A81
:10067F0027F8AF0FAE0EAD0DAC0C120499AD077F7E
:10068F0004120B50E47B107A27F9F8AF0FAE0EADC2
:10069F000DAC0C120499AC00AD01AE02AF03E47BBC
:1006AF00E87A03F9F8802BE47BE87A03F9F8AF0FC7
:1006BF00AE0EAD0DAC0C120499E4FBFAF9F8C312AF
:1006CF000539603AE47BE87A03F8AF0FAE0EAD0D53
:1006DF00AC0C120499AD077F05120B50E47BE87A3E
:1006EF0003F9F8AF0FAE0EAD0DAC0C120499AC00C0
:1006FF00AD01AE02AF03E47B64FAF9F88028E47B26
:10070F0064FAF9F8AF0FAE0EAD0DAC0C120499E40C
:10071F00FBFAF9F8C31205396056E47B64F8AF0FA2
:10072F00AE0EAD0DAC0C120499AD077F06120B5037
:10073F00E47B64FAF9F8AF0FAE0EAD0DAC0C1204FA
:10074F0099AC00AD01AE02AF03E47B0AFAF9F812DF
:10075F000499AD077F07120B50E47B0AFAF9F8AF43
:10076F000FAE0EAD0DAC0C120499AF03AD07804B5D
:10077F00E47B0AFAF9F8AF0FAE0EAD0DAC0C120414
:10078F0099E4FBFAF9F8C3120539602DE47B0AF8F6
:10079F00AF0FAE0EAD0DAC0C120499AD077F071263
:1007AF000B50E47B0AFAF9F8AF0FAE0EAD0DAC0C9F
:1007BF00120499AF03AD078002AD0F7F08120B50E3
:0107CF002207
:03000B000207D019
:1007D000C0E0C0F0C083C082C0D075D000C000C0EF
:1007E00001C002C003C004C005C006C007120982D0
:1007F0008F13E510B4011EE513B40C19D200E4FF09
:10080000FE7D207C41AB1CAA1BA91AA81912011E4F
:1008100012037B8F09AF1CAE1BAD1AAC19AB18AA23
:1008200017A916A8151202C4500A0512E512700A7B
:1008300005118006751100751200AF1CAE1BAD1AB4
:10084000AC19AB18AA17A916A8151202C460064065
:1008500004D201C20230012EAF1CAE1BAD1AAC197E
:10086000AB18AA17A916A8151202C45019D202E58E
:100870000F2401F50FE4350EF50EE4350DF50DE40A
:10088000350CF50CC2010508E513640C6018E5137E
:10089000640D6012E5136410600CE51364116006CA
:1008A000E51360020514E513640C6011E513640D93
:1008B000600BE51364106005E513B41103751400B3
:1008C000E513B40C0C0510E510D394024003751029
:1008D00000E510B40211E513B40D0C750F00750E90
:1008E00000750D00750C00E5106401707AE513B415
:1008F0001035E4FFFE7DA07C40AB1CAA1BA91AA802
:10090000191202C45013AF1CAE1BAD1AAC19E4FB94
:10091000FAF9783F12002D8038751C00751B0075A0
:100920001A007519008040E513B4113BE4FFFEFD89
:10093000FCAB1CAA1BA91AA8191202C4601D401BFB
:10094000AF1CAE1BAD1AAC19E4FBFAF9783F1200EC
:10095000298F1C8E1B8D1A8C19800C751C00751B21
:1009600000751AA0751940D007D006D005D004D064
:1009700003D002D001D000D0D0D082D083D0F0D02C
:02098000E03263
:100E42007580FFD3E51294F4E511940140055380B7
:100E5200FE8000E50F5401FFE4FEFDFCFBFAF9F809
:100E6200C312053960055380FD8000E514C3940365
:0C0E720040055380FB80007F04020E7ED0
:10000E00538E7F5389F0758AF0758CD8C28DD28C41
:05001E00D2A9D2AF22BF
:100C37001210B412000E7B007A007909752501E4C1
:100C4700FD120D5CAC09E4120347E4FBFA79207846
:100C5700411202278F1C8E1B8D1A8C19120E4230DF
:100C670000107B007A007909752501E4FD120E005A
:100C7700C200E508D39405400E120DAF8F188E17EA
:100C87008D168C15E4F508E5107005120CA680CCBE
:0F0C9700E510B40105120D0180C212059F80BD4A
:10105600EF1FAC0670011E4C600A7D0C7CA9DCFEFD
:04106600DDFC80EC41
:01106A002263
:030023000210E1E7
:0C10E100309808C29885992A75290132C0
:100FD500759850538EBF538EFE53890F758BCC7504
:0B0FE5008DFFC2ABD28ED2ACD2AF2287
:080003008F993099FDC299228A
:100F75008B1D8A1E891FAB1DAA1EA91F1203FC60AB
:100F850013051FE51F7002051E14F91203FCFF125D
:050F9500000380E222D0
:0E10D300E529B40106E4F5297F01227F002201
:10107F00E4FEC297EF1392A3EFC313FFD2970EBEF6
:02108F0008F067
:01109100223C
:10106B00C29300C29700D2930012107FAF051210EB
:04107B007FC293227B
:100EEE00E4FDC29300C29700D2930012107FE4FF7C
:100EFE00C297EDC313FD30A303430580D2970FBFF6
:100F0E0008EEC29300C29700D29700C2A300D2A3EC
:030F1E0000AF051C
:010F210022AD
:040FF000D2A07F0507
:100FF400000000000000000000000000000000AE3F
:06100400071FEE70EB2255
:0F10C400D2A1120FF0C2A17F05120FF4C2A02219
:0C10ED00C2A1120FF0D2A17F05020FF487
:020F2200AD0719
:100F2400E4FCC2A07F05120FF4ED30E704D2A180E7
:100F340002C2A17F05120FF4D2A0ED25E0FD7F05CA
:090F4400120FF40CBC08DBC2A082
:010F4D002281
:100FB800E4FC120FF0ED25E0FD30A103430501C26A
:0C0FC800A07F05120FF40CBC08E8AF0578
:010FD40022FA
:10109200120FF0A2A1E433FDC2A07F05120FF4AF3C
:0110A2000548
:0110A300222A
:10103E00C2A0EF24FF92A17F05120FF4120FF0C28F
:08104E00A0D2A17F05020FF4FE
:04100A007F057E00E0
:10100E00EF1FAA0670011E4A600BE4FDEDC3940C9F
:05101E0050EE0D80F70B
:0110230022AA
:020F9A00A907A5
:100F9C00E4FBC294E913929412100AD294E9C3139D
:0C0FAC00F90BBB08ED7F057E0002100E63
:10102400E4FBC294ECC313FCD294309403430480D5
:0910340012100A0BBB08EBAF041B
:01103D002290
:100F4E00C203D2947F0C7E0012100EC2947F507E8C
:100F5E000012100ED2947F0A7E0012100EA29492EE
:060F6E000312100AA203A9
:010F7400225A
:100E00008B218A2289238D241210C47FA0120F22E5
:100E1000121092AF248019AF251525EF601AAB216F
:100E20000523E523AA227002052214F91203FCFF10
:100E3000120F2212109280DF1210ED7F057E000249
:020E400010564A
:100D5C008B218A2289238D241210C47FA0120F228A
:100D6C00121092AF24120F221210921210ED1210C8
:100D7C00C47FA1120F22121092AF251525EF60200F
:100D8C00120FB8AB210523E523AA22700205221409
:100D9C00F9EF120415E52560E07F0112103E80D9B1
:030DAC000210ED45
:1010A400C0F9A4B0999282F880908883C6A1868EF4
:100B50008D21EF14B40800504C900B6775F003A47E
:100B6000C58325F0C58373020B7F020B84020B89BA
:100B7000020B8E020B93020B98020B9D020BA275C7
:100B800080018021758002801C758004801775802B
:100B9000088012758010800D758020800875804057
:100BA00080037580807F06120E7EE5219010A4934D
:100BB000F5807F07120E7E7F027E00121056758030
:060BC000FF7F07020E7E1C
:100BC6008D21EF14B40800504C900BDD75F003A492
:100BD600C58325F0C58373020BF5020BFA020BFFE2
:100BE600020C04020C09020C0E020C13020C1875FE
:100BF60080018021758002801C75800480177580B5
:100C0600088012758010800D7580208008758040E0
:100C160080037580807F06120E7E8521807F0712F5
:100C26000E7E7F027E001210567580FF7F07020E31
:010C36007E3F
:100AD8008D21EF14B40800504C900AEF75F003A470
:100AE800C58325F0C58373020B07020B0C020B119B
:100AF800020B16020B1B020B20020B25020B2A7598
:100B080080018021758002801C75800480177580A3
:100B1800088012758010800D7580208008758040CF
:100B280080037580807F06120E7EE5219010A493C5
:100B3800547FF5807F07120E7E7F027E00121056CA
:080B48007580FF7F07020E7E9D
:100E7E00EF24FB601414601B14602224037026E51B
:100E8E00A0541F4480F5A0801CE5A0541F44A0F57B
:100E9E00A08012E5A0541F44C0F5A08008E5A05420
:090EAE001F44E0F5A053A01F222F
:090EE4000126000127000128008D
:10098200E4FFD2B3D2B2D2B1D2B0D2B4D2B5D2C2D3
:10099200D2C4C2B320C4027F0420C2027F0820B5A1
:1009A200027F0C20B4027F10D2B3D2B2D2B1D2B045
:1009B200D2B4D2B5D2C2D2C4C2B220C4027F052000
:1009C200C2027F0920B5027F0D20B4027F11D2B38B
:1009D200D2B2D2B1D2B0D2B4D2B5D2C2D2C4C2B1E2
:1009E20020C4027F0620C2027F0A20B5027F0E20A9
:1009F200B4027F12D2B3D2B2D2B1D2B0D2B4D2B593
:100A0200D2C2D2C4C2B020C4027F0720C2027F0B6E
:100A120020B5027F0F20B4027F13E526B5070BE550
:100A220028C394035009052880058F26E4F528E59C
:100A32002864037012EF6008E5277004752701220D
:090A4200EF7004F527FF227F008C
:010A4B002288
:1010B4007580FF7F04120E7EE4F5807F05020E7EAC
:100DAF00E4F521F522FFFEFDFC1210C47F90120F17
:100DBF00221210927F03120F221210921210ED12B4
:100DCF0010C47F91120F22121092120FB88F22E4CB
:100DDF00FF12103E120FB88F217F0112103E12101A
:100DEF00EDAC21E4120347E4FBFA794C784202029E
:010DFF0027CC
:100026000203E7E86480F8E933E83360110460F01E
:10003600ED33EC337009E8FCE9FDEAFEEBFF220440
:1000460060DED3EB9FEA9EE99DE8C2E78CF0C2F73B
:1000560095F0400CE8CCF8E9CDF9EACEFAEBCFFB07
:100066001203B285D0F05804700320D5B3E80470AB
:10007600075002B2D50203F192D5EC0460F7E4CC46
:10008600C0E0C398F8603B94186008400DD0E0FBD0
:100096000203C9E4FBFAC9FC8028E830E406E4C997
:1000A600FBE4CAFCE830E305E4C9CACBFCE8540724
:1000B6006010F8C3E913F9EA13FAEB13FBEC13FC2F
:1000C600D8F130F52FC3E49CFCEF9BFFEE9AFEEDD2
:1000D60099FDD0E0FBEF4E4D4C701222DB0302037C
:1000E600EEEC2CFCEF33FFEE33FEED33FDED30E7A7
:1000F600EB0203C9EF2BFFEE3AFEED39FDD0E0FB34
:1001060050130BBB00030203F1ED13FDEE13FEEFDC
:0801160013FFEC13FC0203C906
:10011E00EC4D6011E8497017ED33EC3304600DE4DB
:10012E00FCFFFEFD22E933E8330470F80203E71208
:10013E0003B258046009E4CC248150062850090209
:10014E0003F12840030203EEC0E0EB4A7044B9808D
:10015E0006D0E0FB0203DDEF4E701CBD8008EBFF06
:10016E00EAFEE9FD80EBE98DF0A4FEE5F002020760
:10017E00E9CDF9EAFEEBFFEF89F0A4FCE5F0CE89BC
:10018E00F0A42EFFE435F0CD89F0A42DFEE435F079
:10019E008067EF4E7005BD80D780C3EF8BF0A4ACA7
:1001AE00F0EE8BF0A42CFCE435F0F8EF8AF0A42CE2
:1001BE00E5F038FCE433CB8DF0A42CFCE5F03BF8F5
:1001CE00EE8AF0A42CFCE5F038F8E433CF89F0A4E5
:1001DE002CFCE5F038CF3400CE89F0A42FFFE5F0EB
:1001EE003EFEE433C98DF0A42EFEE5F039CD8AF043
:1001FE00A42FFFE5F03EFEE43DFD33D0E0FB5007BB
:10020E000BBB000F0203F1EC2CFCEF33FFEE33FEC1
:06021E00ED33FD0203C9EF
:100224000203F1EC5D046005E8590470030203E77E
:100234001203B2580460F6EC4860F2EC7004FDFE60
:10024400FF22C860DB2481C85009C39860025006AD
:100254000203EE9850CAF582E9294B4A7005AB8235
:100264000203DD75F0007C1A7880C3EF9BEE9AEDF3
:1002740099400DC3EF9BFFEE9AFEED99FDE842F025
:10028400DC23ACF0D0E0FFD0E0FED0E0FDAB822078
:10029400E7101BEB60BAEC2CFCEF33FFEE33FEED02
:1002A40033FD0203C9E803F830E705C0F075F00038
:1002B400EF2FFFEE33FEED33FD40B830E7C280AAE6
:1002C40074F8CC6480CCC86480C8F58204604FC3E1
:1002D400EB9FF5F0EA9E42F0E99D42F0E89C45F080
:1002E400603C501DE5825FFFE582D313CB5BCBF40A
:1002F4002B5582FB50280ABA002409B90020088033
:100304001DE5825BFBE582D313CF5FCFF4C3132FCC
:100314005582FF50090EBE00050DBD00010CC3EB54
:100324009FF5F0EA9E42F0E99D42F0E89C45F060BA
:0903340007CC4820E701B3EC22DC
:10033D0075F020800E75F010800575F0087D007E3B
:10034D00007F003392D530D50312052BEC334010CE
:10035D00EF33FFEE33FEED33FDEC33FCD5F0ED2244
:0E036D00E5F0247EA2D513CC92E7CDCEFF2280
:10037B00EDD2E7CD33EC3392D524814006E4FFFE7A
:10038B00FDFC22FCE4CFCECDCC24E0501174FF80D9
:10039B00EDC3CC13CCCD13CDCE13CECF13CF047076
:0703AB00F030D5DE02052B46
:1003B200E9D2E7C933E833F892D5EDD2E7CD33EC91
:0703C20033FC5002B2D5220A
:1003C900EC30E7100FBF000C0EBE00080DBD000495
:1003D9000BEB6014A2D5EB13FCED92E7FD2274FF41
:1003E900FCFDFEFF22E480F8A2D574FF13FC7D809A
:0303F900E480EFAE
:100A5800020C37E493A3F8E493A34003F68001F271
:100A680008DFF48029E493A3F85407240CC8C3339F
:100A7800C4540F4420C8834004F456800146F6DF6E
:100A8800E4800B0102040810204080900EB7E47E39
:100A9800019360BCA3FF543F30E509541FFEE49363
:100AA800A360010ECF54C025E060A840B8E493A32A
:100AB800FAE493A3F8E493A3C8C582C8CAC583CA55
:100AC800F0A3C8C582C8CAC583CADFE9DEE780BE0D
:010EED000004
:1003FC00BB010689828A83E0225002E722BBFE02FF
:09040C00E32289828A83E4932231
:10041500BB010689828A83F0225002F722BBFE01C6
:02042500F322C0
:10042700C2D5EC30E709B2D5E4C39DFDE49CFCEEF0
:1004370030E715B2D5E4C39FFFE49EFE12054AC319
:10044700E49DFDE49CFC800312054A30D507C3E414
:060457009FFFE49EFE225F
:10045D0075F008758200EF2FFFEE33FECD33CDCC56
:10046D0033CCC58233C5829BED9AEC99E5829840D9
:10047D000CF582EE9BFEED9AFDEC99FC0FD5F0D6B6
:10048D00E4CEFBE4CDFAE4CCF9A88222B800C1B9E0
:10049D000059BA002DEC8BF084CFCECDFCE5F0CB1E
:1004AD00F97818EF2FFFEE33FEED33FDEC33FCEB57
:1004BD0033FB10D703994004EB99FB0FD8E5E4F912
:1004CD00FA227818EF2FFFEE33FEED33FDEC33FCFF
:1004DD00C933C910D7059BE99A4007EC9BFCE99AF3
:1004ED00F90FD8E0E4C9FAE4CCFB2275F010EF2F38
:1004FD00FFEE33FEED33FDCC33CCC833C810D70738
:10050D009BEC9AE899400AED9BFDEC9AFCE899F872
:0E051D000FD5F0DAE4CDFBE4CCFAE4C8F92205
:0E052B00C3E49FFFE49EFEE49DFDE49CFC22E1
:10053900EB9FF5F0EA9E42F0E99D42F0E89C45F018
:01054900228F
:10054A00BC000BBE0029EF8DF084FFADF022E4CC95
:10055A00F875F008EF2FFFEE33FEEC33FCEE9DEC5E
:10056A00984005FCEE9DFE0FD5F0E9E4CEFD22EDA4
:10057A00F8F5F0EE8420D21CFEADF075F008EF2FEE
:10058A00FFED33FD4007985006D5F0F222C398FDDF
:05059A000FD5F0EA227C
:00000001FF
